{
	"data": {
		"bytecode": {
			"linkReferences": {},
			"object": "60a0604052600c805462ffffff19166001908117909155600f805460ff191690911790553480156200003057600080fd5b506040518060400160405280600b81526020016a546f70204761696e65727360a81b8152506040518060400160405280600381526020016224544760e81b8152508160039080519060200190620000899291906200081f565b5080516200009f9060049060208401906200081f565b505050620000bc620000b6620004ad60201b60201c565b620004b1565b33739ac64cc6e4415144c455bd8e4837fea55603e5c3620000df81600162000503565b6001600160a01b03811660808190526040805163c45a015560e01b8152905163c45a0155916004808201926020929091908290030181865afa1580156200012a573d6000803e3d6000fd5b505050506040513d601f19601f82011682018060405250810190620001509190620008c5565b6001600160a01b031663c9c6539630836001600160a01b031663ad5c46486040518163ffffffff1660e01b8152600401602060405180830381865afa1580156200019e573d6000803e3d6000fd5b505050506040513d601f19601f82011682018060405250810190620001c49190620008c5565b6040516001600160e01b031960e085901b1681526001600160a01b039283166004820152911660248201526044016020604051808303816000875af115801562000212573d6000803e3d6000fd5b505050506040513d601f19601f82011682018060405250810190620002389190620008c5565b600680546001600160a01b0319166001600160a01b039290921691821790556200026490600162000503565b6006546200027d906001600160a01b031660016200057d565b6006600460008282826a52b7d2dcc80cd2e40000006103e8620002a28260016200090d565b620002ae91906200092f565b60095569152d02c7e14af6800000600a556103e8620002cf8260056200090d565b620002db91906200092f565b600b5560118790556012869055601385905584620002fa878962000952565b62000306919062000952565b6010556015849055601683905560178290558162000325848662000952565b62000331919062000952565b6014556063601f55600780546001600160a01b03199081167382a5fb750f2a013e04ccd79437bc88cfcd0e68fa1790915560088054909116331790556200037a896001620005d0565b62000387306001620005d0565b6200039661dead6001620005d0565b600854620003af906001600160a01b03166001620005d0565b600754620003c8906001600160a01b03166001620005d0565b620003d589600162000503565b620003e230600162000503565b600854620003fb906001600160a01b0316600162000503565b6200040a61dead600162000503565b60075462000423906001600160a01b0316600162000503565b306000908152601d60205260408082208054600160ff1991821681179092557f3a7826adcba3cf4a45d240eca37ae44625cce3b447503fb3d25291f41c32dd7580548216831790556006546001600160a01b0316845291909220805490911690911790556200049389826200067a565b6200049e896200075f565b505050505050505050620009aa565b3390565b600580546001600160a01b038381166001600160a01b0319831681179093556040519116919082907f8be0079c531659141344cd1fd0a4f28419497f9722a3daafe3b4186f6b6457e090600090a35050565b6005546001600160a01b03163314620005525760405162461bcd60e51b815260206004820181905260248201526000805160206200422c83398151915260448201526064015b60405180910390fd5b6001600160a01b03919091166000908152601c60205260409020805460ff1916911515919091179055565b6001600160a01b0382166000818152602080526040808220805460ff191685151590811790915590519092917fffa9187bf1f18bf477bd0ea1bcbb64e93b6a98132473929edfce215cd9b16fab91a35050565b6005546001600160a01b031633146200061b5760405162461bcd60e51b815260206004820181905260248201526000805160206200422c833981519152604482015260640162000549565b6001600160a01b0382166000818152601b6020908152604091829020805460ff191685151590811790915591519182527f9d8f7706ea1113d1a167b526eca956215946dd36cc7df39eb16180222d8b5df7910160405180910390a25050565b6001600160a01b038216620006d25760405162461bcd60e51b815260206004820152601f60248201527f45524332303a206d696e7420746f20746865207a65726f206164647265737300604482015260640162000549565b8060026000828254620006e6919062000952565b90915550506001600160a01b038216600090815260208190526040812080548392906200071590849062000952565b90915550506040518181526001600160a01b038316906000907fddf252ad1be2c89b69c2b068fc378daa952ba7f163c4a11628f55a4df523b3ef9060200160405180910390a35050565b6005546001600160a01b03163314620007aa5760405162461bcd60e51b815260206004820181905260248201526000805160206200422c833981519152604482015260640162000549565b6001600160a01b038116620008115760405162461bcd60e51b815260206004820152602660248201527f4f776e61626c653a206e6577206f776e657220697320746865207a65726f206160448201526564647265737360d01b606482015260840162000549565b6200081c81620004b1565b50565b8280546200082d906200096d565b90600052602060002090601f0160209004810192826200085157600085556200089c565b82601f106200086c57805160ff19168380011785556200089c565b828001600101855582156200089c579182015b828111156200089c5782518255916020019190600101906200087f565b50620008aa929150620008ae565b5090565b5b80821115620008aa5760008155600101620008af565b600060208284031215620008d857600080fd5b81516001600160a01b0381168114620008f057600080fd5b9392505050565b634e487b7160e01b600052601160045260246000fd5b60008160001904831182151516156200092a576200092a620008f7565b500290565b6000826200094d57634e487b7160e01b600052601260045260246000fd5b500490565b60008219821115620009685762000968620008f7565b500190565b600181811c908216806200098257607f821691505b60208210811415620009a457634e487b7160e01b600052602260045260246000fd5b50919050565b60805161382e620009fe6000396000818161052e01528181611a3c01528181611b28015281816120f501528181612e4001528181612ef901528181612f3501528181612faf015261300c015261382e6000f3fe60806040526004361061041f5760003560e01c8063857ebd4b1161021e578063c876d0b911610123578063ee40166e116100ab578063f63743421161007a578063f637434214610c4f578063f77dbdc614610c65578063f8b45b0514610c95578063fc155d1d14610cab578063fe98afed14610ccb57600080fd5b8063ee40166e14610bee578063f11a24d314610c04578063f22857a814610c1a578063f2fde38b14610c2f57600080fd5b8063d85ba063116100f2578063d85ba06314610b47578063dd62ed3e14610b5d578063e2f4560514610ba3578063e3f8da5514610bb9578063e884f26014610bd957600080fd5b8063c876d0b914610ae1578063c8c8ebe414610afb578063d049901814610b11578063d498031214610b3157600080fd5b80639a7a23d6116101a6578063a9059cbb11610175578063a9059cbb14610a33578063afa4f3b214610a53578063b62496f514610a73578063bbc0c74214610aa2578063c024666814610ac157600080fd5b80639a7a23d6146109b3578063a457c2d7146109d3578063a4640b82146109f3578063a67096e214610a1357600080fd5b80638da5cb5b116101ed5780638da5cb5b1461092a5780639213691314610948578063924de9b71461095e5780639485b9d81461097e57806395d89b411461099e57600080fd5b8063857ebd4b146108c057806387dbd21d146108e05780638a8c523c146108f55780638b992b111461090a57600080fd5b8063313ce567116103245780635d098b38116102ac578063715018a61161027b578063715018a6146108355780637571336a1461084a57806375f0a8741461086a5780637bce5a041461088a578063800db58e146108a057600080fd5b80635d098b38146107a95780636a486a8e146107c95780636ddd1713146107df57806370a08231146107ff57600080fd5b806349bd5a5e116102f357806349bd5a5e146106f65780634a62bb65146107165780634fbee1931461073057806351c7cd5f1461076957806352ba99211461078957600080fd5b8063313ce56714610680578063395093511461069c5780633b0e0133146106bc57806345d377a4146106dc57600080fd5b80631a221dbb116103a75780631f3fed8f116103765780631f3fed8f146105fe5780631fe70a981461061457806323b872dd1461062a57806327a14fc21461064a57806327c8f8351461066a57600080fd5b80631a221dbb146105925780631a8145bb146105a85780631cd348c0146105be5780631e293c10146105de57600080fd5b80630f683e90116103ee5780630f683e90146104cc57806310d5de53146104ec5780631694505e1461051c57806317700f011461056857806318160ddd1461057d57600080fd5b806306fdde031461042b578063095ea7b3146104565780630b166d50146104865780630d075d9c146104aa57600080fd5b3661042657005b600080fd5b34801561043757600080fd5b50610440610ceb565b60405161044d9190613227565b60405180910390f35b34801561046257600080fd5b5061047661047136600461327a565b610d7d565b604051901515815260200161044d565b34801561049257600080fd5b5061049c601a5481565b60405190815260200161044d565b3480156104b657600080fd5b506104ca6104c53660046132a6565b610d93565b005b3480156104d857600080fd5b506104ca6104e73660046132a6565b610e0e565b3480156104f857600080fd5b506104766105073660046132d2565b601c6020526000908152604090205460ff1681565b34801561052857600080fd5b506105507f000000000000000000000000000000000000000000000000000000000000000081565b6040516001600160a01b03909116815260200161044d565b34801561057457600080fd5b506104ca610e64565b34801561058957600080fd5b5060025461049c565b34801561059e57600080fd5b5061049c60175481565b3480156105b457600080fd5b5061049c60195481565b3480156105ca57600080fd5b50600854610550906001600160a01b031681565b3480156105ea57600080fd5b506104ca6105f93660046132ef565b610ea1565b34801561060a57600080fd5b5061049c60185481565b34801561062057600080fd5b5061049c60135481565b34801561063657600080fd5b50610476610645366004613308565b610ee3565b34801561065657600080fd5b506104ca6106653660046132ef565b610f8f565b34801561067657600080fd5b5061055061dead81565b34801561068c57600080fd5b506040516012815260200161044d565b3480156106a857600080fd5b506104766106b736600461327a565b610fd1565b3480156106c857600080fd5b506104766106d73660046132d2565b61100d565b3480156106e857600080fd5b506021546104769060ff1681565b34801561070257600080fd5b50600654610550906001600160a01b031681565b34801561072257600080fd5b50600c546104769060ff1681565b34801561073c57600080fd5b5061047661074b3660046132d2565b6001600160a01b03166000908152601b602052604090205460ff1690565b34801561077557600080fd5b506104ca6107843660046132a6565b611067565b34801561079557600080fd5b506104766107a436600461335f565b6110b0565b3480156107b557600080fd5b506104ca6107c43660046132d2565b611145565b3480156107d557600080fd5b5061049c60145481565b3480156107eb57600080fd5b50600c546104769062010000900460ff1681565b34801561080b57600080fd5b5061049c61081a3660046132d2565b6001600160a01b031660009081526020819052604090205490565b34801561084157600080fd5b506104ca6111cc565b34801561085657600080fd5b506104ca610865366004613432565b611202565b34801561087657600080fd5b50600754610550906001600160a01b031681565b34801561089657600080fd5b5061049c60115481565b3480156108ac57600080fd5b506104ca6108bb3660046132d2565b611257565b3480156108cc57600080fd5b506104766108db3660046132d2565b6112cc565b3480156108ec57600080fd5b506104ca61131e565b34801561090157600080fd5b506104ca611354565b34801561091657600080fd5b506104766109253660046132ef565b611395565b34801561093657600080fd5b506005546001600160a01b0316610550565b34801561095457600080fd5b5061049c60155481565b34801561096a57600080fd5b506104ca61097936600461346b565b6113cb565b34801561098a57600080fd5b506104ca6109993660046132d2565b611411565b3480156109aa57600080fd5b5061044061149f565b3480156109bf57600080fd5b506104ca6109ce366004613432565b6114ae565b3480156109df57600080fd5b506104766109ee36600461327a565b611566565b3480156109ff57600080fd5b506104ca610a0e3660046132d2565b6115ff565b348015610a1f57600080fd5b506104ca610a2e366004613488565b611686565b348015610a3f57600080fd5b50610476610a4e36600461327a565b611731565b348015610a5f57600080fd5b50610476610a6e3660046132ef565b61173e565b348015610a7f57600080fd5b50610476610a8e3660046132d2565b602080526000908152604090205460ff1681565b348015610aae57600080fd5b50600c5461047690610100900460ff1681565b348015610acd57600080fd5b506104ca610adc366004613432565b611774565b348015610aed57600080fd5b50600f546104769060ff1681565b348015610b0757600080fd5b5061049c60095481565b348015610b1d57600080fd5b50610476610b2c36600461335f565b6117fd565b348015610b3d57600080fd5b5061049c601f5481565b348015610b5357600080fd5b5061049c60105481565b348015610b6957600080fd5b5061049c610b78366004613488565b6001600160a01b03918216600090815260016020908152604080832093909416825291909152205490565b348015610baf57600080fd5b5061049c600a5481565b348015610bc557600080fd5b50610476610bd436600461346b565b611892565b348015610be557600080fd5b506104766118d6565b348015610bfa57600080fd5b5061049c600d5481565b348015610c1057600080fd5b5061049c60125481565b348015610c2657600080fd5b50610476611913565b348015610c3b57600080fd5b506104ca610c4a3660046132d2565b611954565b348015610c5b57600080fd5b5061049c60165481565b348015610c7157600080fd5b50610476610c803660046132d2565b601d6020526000908152604090205460ff1681565b348015610ca157600080fd5b5061049c600b5481565b348015610cb757600080fd5b506104ca610cc63660046132ef565b6119ef565b348015610cd757600080fd5b506104ca610ce63660046132d2565b611bd9565b606060038054610cfa906134b6565b80601f0160208091040260200160405190810160405280929190818152602001828054610d26906134b6565b8015610d735780601f10610d4857610100808354040283529160200191610d73565b820191906000526020600020905b815481529060010190602001808311610d5657829003601f168201915b5050505050905090565b6000610d8a338484611c4b565b50600192915050565b6005546001600160a01b03163314610dc65760405162461bcd60e51b8152600401610dbd906134f1565b60405180910390fd5b60118390556012829055601381905580610de0838561353c565b610dea919061353c565b60105560215460ff1615610e0957600a610e048382613554565b602455505b505050565b6005546001600160a01b03163314610e385760405162461bcd60e51b8152600401610dbd906134f1565b60158390556016829055601781905580610e52838561353c565b610e5c919061353c565b601455505050565b6005546001600160a01b03163314610e8e5760405162461bcd60e51b8152600401610dbd906134f1565b600c805462ffff00191690556000600d55565b6005546001600160a01b03163314610ecb5760405162461bcd60e51b8152600401610dbd906134f1565b610edd81670de0b6b3a764000061356b565b60095550565b6000610ef0848484611d6f565b6001600160a01b038416600090815260016020908152604080832033845290915290205482811015610f755760405162461bcd60e51b815260206004820152602860248201527f45524332303a207472616e7366657220616d6f756e74206578636565647320616044820152676c6c6f77616e636560c01b6064820152608401610dbd565b610f828533858403611c4b565b60019150505b9392505050565b6005546001600160a01b03163314610fb95760405162461bcd60e51b8152600401610dbd906134f1565b610fcb81670de0b6b3a764000061356b565b600b5550565b3360008181526001602090815260408083206001600160a01b03871684529091528120549091610d8a91859061100890869061353c565b611c4b565b6005546000906001600160a01b0316331461103a5760405162461bcd60e51b8152600401610dbd906134f1565b506001600160a01b0381166000908152601e60205260409020805460ff191660019081179091555b919050565b6005546001600160a01b031633146110915760405162461bcd60e51b8152600401610dbd906134f1565b6021805460ff1916600117905543602555602292909255602355602455565b6005546000906001600160a01b031633146110dd5760405162461bcd60e51b8152600401610dbd906134f1565b60005b8251811015610d8a576001601e60008584815181106111015761110161358a565b6020908102919091018101516001600160a01b03168252810191909152604001600020805460ff19169115159190911790558061113d816135a0565b9150506110e0565b6005546001600160a01b0316331461116f5760405162461bcd60e51b8152600401610dbd906134f1565b6007546040516001600160a01b03918216918316907fa751787977eeb3902e30e1d19ca00c6ad274a1f622c31a206e32366700b0567490600090a3600780546001600160a01b0319166001600160a01b0392909216919091179055565b6005546001600160a01b031633146111f65760405162461bcd60e51b8152600401610dbd906134f1565b61120060006128b4565b565b6005546001600160a01b0316331461122c5760405162461bcd60e51b8152600401610dbd906134f1565b6001600160a01b03919091166000908152601c60205260409020805460ff1916911515919091179055565b6005546001600160a01b031633146112815760405162461bcd60e51b8152600401610dbd906134f1565b6001600160a01b0381163b6112a85760405162461bcd60e51b8152600401610dbd906135bb565b6001600160a01b03166000908152601d60205260409020805460ff19166001179055565b6005546000906001600160a01b031633146112f95760405162461bcd60e51b8152600401610dbd906134f1565b506001600160a01b03166000908152601e60205260409020805460ff19169055600190565b6005546001600160a01b031633146113485760405162461bcd60e51b8152600401610dbd906134f1565b6021805460ff19169055565b6005546001600160a01b0316331461137e5760405162461bcd60e51b8152600401610dbd906134f1565b600c805462ffff0019166201010017905543600d55565b6005546000906001600160a01b031633146113c25760405162461bcd60e51b8152600401610dbd906134f1565b50601f55600190565b6005546001600160a01b031633146113f55760405162461bcd60e51b8152600401610dbd906134f1565b600c8054911515620100000262ff000019909216919091179055565b6005546001600160a01b0316331461143b5760405162461bcd60e51b8152600401610dbd906134f1565b6000816001600160a01b03164760405160006040518083038185875af1925050503d8060008114611488576040519150601f19603f3d011682016040523d82523d6000602084013e61148d565b606091505b505090508061149b57600080fd5b5050565b606060048054610cfa906134b6565b6005546001600160a01b031633146114d85760405162461bcd60e51b8152600401610dbd906134f1565b6006546001600160a01b038381169116141561155c5760405162461bcd60e51b815260206004820152603960248201527f54686520706169722063616e6e6f742062652072656d6f7665642066726f6d2060448201527f6175746f6d617465644d61726b65744d616b65725061697273000000000000006064820152608401610dbd565b61149b8282612906565b3360009081526001602090815260408083206001600160a01b0386168452909152812054828110156115e85760405162461bcd60e51b815260206004820152602560248201527f45524332303a2064656372656173656420616c6c6f77616e63652062656c6f77604482015264207a65726f60d81b6064820152608401610dbd565b6115f53385858403611c4b565b5060019392505050565b6005546001600160a01b031633146116295760405162461bcd60e51b8152600401610dbd906134f1565b6008546040516001600160a01b03918216918316907f15e571905a1c816ac9ad091c2b82079da1ad3668d345e3894c424c5e5b47d97b90600090a3600880546001600160a01b0319166001600160a01b0392909216919091179055565b6005546001600160a01b031633146116b05760405162461bcd60e51b8152600401610dbd906134f1565b6040516370a0823160e01b81523060048201526000906001600160a01b038316906370a0823190602401602060405180830381865afa1580156116f7573d6000803e3d6000fd5b505050506040513d601f19601f8201168201806040525081019061171b91906135fc565b9050610e096001600160a01b0383168483612959565b6000610d8a338484611d6f565b6005546000906001600160a01b0316331461176b5760405162461bcd60e51b8152600401610dbd906134f1565b50600a55600190565b6005546001600160a01b0316331461179e5760405162461bcd60e51b8152600401610dbd906134f1565b6001600160a01b0382166000818152601b6020908152604091829020805460ff191685151590811790915591519182527f9d8f7706ea1113d1a167b526eca956215946dd36cc7df39eb16180222d8b5df7910160405180910390a25050565b6005546000906001600160a01b0316331461182a5760405162461bcd60e51b8152600401610dbd906134f1565b60005b8251811015610d8a576000601e600085848151811061184e5761184e61358a565b6020908102919091018101516001600160a01b03168252810191909152604001600020805460ff19169115159190911790558061188a816135a0565b91505061182d565b6005546000906001600160a01b031633146118bf5760405162461bcd60e51b8152600401610dbd906134f1565b50600c805460ff1916911515919091179055600190565b6005546000906001600160a01b031633146119035760405162461bcd60e51b8152600401610dbd906134f1565b50600f805460ff19169055600190565b6005546000906001600160a01b031633146119405760405162461bcd60e51b8152600401610dbd906134f1565b50600f805460ff1916600190811790915590565b6005546001600160a01b0316331461197e5760405162461bcd60e51b8152600401610dbd906134f1565b6001600160a01b0381166119e35760405162461bcd60e51b815260206004820152602660248201527f4f776e61626c653a206e6577206f776e657220697320746865207a65726f206160448201526564647265737360d01b6064820152608401610dbd565b6119ec816128b4565b50565b6005546001600160a01b03163314611a195760405162461bcd60e51b8152600401610dbd906134f1565b6040805160028082526060820183526000926020830190803683370190505090507f00000000000000000000000000000000000000000000000000000000000000006001600160a01b031663ad5c46486040518163ffffffff1660e01b8152600401602060405180830381865afa158015611a98573d6000803e3d6000fd5b505050506040513d601f19601f82011682018060405250810190611abc9190613615565b81600081518110611acf57611acf61358a565b60200260200101906001600160a01b031690816001600160a01b0316815250503081600181518110611b0357611b0361358a565b6001600160a01b03928316602091820292909201015260405163b6f9de9560e01b81527f00000000000000000000000000000000000000000000000000000000000000009091169063b6f9de95908490611b6a90600090869061dead904290600401613676565b6000604051808303818588803b158015611b8357600080fd5b505af1158015611b97573d6000803e3d6000fd5b50505050507fa017c1567cfcdd2d750a8c01e39fe2a846bcebc293c7d078477014d68482056882604051611bcd91815260200190565b60405180910390a15050565b6005546001600160a01b03163314611c035760405162461bcd60e51b8152600401610dbd906134f1565b6001600160a01b0381163b611c2a5760405162461bcd60e51b8152600401610dbd906135bb565b6001600160a01b03166000908152601d60205260409020805460ff19169055565b6001600160a01b038316611cad5760405162461bcd60e51b8152602060048201526024808201527f45524332303a20617070726f76652066726f6d20746865207a65726f206164646044820152637265737360e01b6064820152608401610dbd565b6001600160a01b038216611d0e5760405162461bcd60e51b815260206004820152602260248201527f45524332303a20617070726f766520746f20746865207a65726f206164647265604482015261737360f01b6064820152608401610dbd565b6001600160a01b0383811660008181526001602090815260408083209487168084529482529182902085905590518481527f8c5be1e5ebec7d5bd14f71427d1e84f3dd0314c0f7b2291e5b200ac8c7c3b925910160405180910390a3505050565b336000908152601d602052604090205460ff161561283f576001600160a01b038316611dad5760405162461bcd60e51b8152600401610dbd906136ab565b6001600160a01b038216611dd35760405162461bcd60e51b8152600401610dbd906136f0565b6001600160a01b0383166000908152601e602052604090205460ff1680611e1257506001600160a01b0382166000908152601e602052604090205460ff165b15611e605760006064601f5483611e29919061356b565b611e339190613733565b90506000611e418284613554565b9050611e4e8530846129ab565b611e598585836129ab565b5050505050565b80611e7157610e09838360006129ab565b60215460ff168015611e8557506000602454115b8015611e9357506000602354115b8015611ea157506000602254115b15611fbf57602354602554439190611eb99083613554565b1115611fbd576000602254602354602554611ed49190613733565b611ede919061356b565b611ee89083613554565b9050602454601154611efa919061353c565b8110611f36576021805460ff1916905560245460118190556013546012549091611f24919061353c565b611f2e919061353c565b601055611fbb565b60245481601154611f479190613554565b1115611f895780601154611f5b9190613554565b60118190556013546012549091611f72919061353c565b611f7c919061353c565b6010556025829055611fbb565b6021805460ff1916905560245460118190556013546012549091611fad919061353c565b611fb7919061353c565b6010555b505b505b600c5460ff1615612436576005546001600160a01b03848116911614801590611ff657506005546001600160a01b03838116911614155b801561200a57506001600160a01b03821615155b801561202157506001600160a01b03821661dead14155b80156120375750600654600160a01b900460ff16155b1561243657600c54610100900460ff166120cf576001600160a01b0383166000908152601b602052604090205460ff168061208a57506001600160a01b0382166000908152601b602052604090205460ff165b6120cf5760405162461bcd60e51b81526020600482015260166024820152752a3930b234b7339034b9903737ba1030b1ba34bb329760511b6044820152606401610dbd565b600f5460ff16156121f2576005546001600160a01b0383811691161480159061212a57507f00000000000000000000000000000000000000000000000000000000000000006001600160a01b0316826001600160a01b031614155b801561214457506006546001600160a01b03838116911614155b156121f257326000908152600e602052604090205443116121df5760405162461bcd60e51b815260206004820152604960248201527f5f7472616e736665723a3a205472616e736665722044656c617920656e61626c60448201527f65642e20204f6e6c79206f6e652070757263686173652070657220626c6f636b6064820152681030b63637bbb2b21760b91b608482015260a401610dbd565b326000908152600e602052604090204390555b6001600160a01b038316600090815260208052604090205460ff16801561223257506001600160a01b0382166000908152601c602052604090205460ff16155b15612316576009548111156122a75760405162461bcd60e51b815260206004820152603560248201527f427579207472616e7366657220616d6f756e742065786365656473207468652060448201527436b0bc2a3930b739b0b1ba34b7b720b6b7bab73a1760591b6064820152608401610dbd565b600b546001600160a01b0383166000908152602081905260409020546122cd908361353c565b11156123115760405162461bcd60e51b815260206004820152601360248201527213585e081dd85b1b195d08195e18d959591959606a1b6044820152606401610dbd565b612436565b6001600160a01b038216600090815260208052604090205460ff16801561235657506001600160a01b0383166000908152601c602052604090205460ff16155b156123cc576009548111156123115760405162461bcd60e51b815260206004820152603660248201527f53656c6c207472616e7366657220616d6f756e742065786365656473207468656044820152751036b0bc2a3930b739b0b1ba34b7b720b6b7bab73a1760511b6064820152608401610dbd565b600b546001600160a01b0383166000908152602081905260409020546123f2908361353c565b11156124365760405162461bcd60e51b815260206004820152601360248201527213585e081dd85b1b195d08195e18d959591959606a1b6044820152606401610dbd565b30600090815260208190526040902054600a54811080159081906124625750600c5462010000900460ff165b80156124785750600654600160a01b900460ff16155b801561249c57506001600160a01b038516600090815260208052604090205460ff16155b80156124c157506001600160a01b0385166000908152601b602052604090205460ff16155b80156124e657506001600160a01b0384166000908152601b602052604090205460ff16155b15612514576006805460ff60a01b1916600160a01b179055612506612b01565b6006805460ff60a01b191690555b6006546001600160a01b0386166000908152601b602052604090205460ff600160a01b90920482161591168061256257506001600160a01b0385166000908152601b602052604090205460ff165b1561256b575060005b6000811561282b5743600d546002612583919061353c565b101580156125c957506001600160a01b038616600090815260208052604090205460ff16806125c957506001600160a01b038716600090815260208052604090205460ff165b156126765760646125db86606361356b565b6125e59190613733565b905060636125f482602161356b565b6125fe9190613733565b6019600082825461260f919061353c565b909155506063905061262282602161356b565b61262c9190613733565b601a600082825461263d919061353c565b909155506063905061265082602161356b565b61265a9190613733565b6018600082825461266b919061353c565b9091555061280d9050565b6001600160a01b038616600090815260208052604090205460ff16801561269f57506000601454115b15612731576064601454866126b4919061356b565b6126be9190613733565b9050601454601654826126d1919061356b565b6126db9190613733565b601960008282546126ec919061353c565b9091555050601454601754612701908361356b565b61270b9190613733565b601a600082825461271c919061353c565b9091555050601454601554612650908361356b565b6001600160a01b038716600090815260208052604090205460ff16801561275a57506000601054115b1561280d5760646010548661276f919061356b565b6127799190613733565b90506010546012548261278c919061356b565b6127969190613733565b601960008282546127a7919061353c565b90915550506010546013546127bc908361356b565b6127c69190613733565b601a60008282546127d7919061353c565b90915550506010546011546127ec908361356b565b6127f69190613733565b60186000828254612807919061353c565b90915550505b801561281e5761281e8730836129ab565b6128288186613554565b94505b6128368787876129ab565b50505050505050565b333b1561288e5760405162461bcd60e51b815260206004820152601c60248201527f436f6e7472616374206e6f7420616c6c6f77656420746f2063616c6c000000006044820152606401610dbd565b6001600160a01b038316611dad5760405162461bcd60e51b8152600401610dbd906136ab565b600580546001600160a01b038381166001600160a01b0319831681179093556040519116919082907f8be0079c531659141344cd1fd0a4f28419497f9722a3daafe3b4186f6b6457e090600090a35050565b6001600160a01b0382166000818152602080526040808220805460ff191685151590811790915590519092917fffa9187bf1f18bf477bd0ea1bcbb64e93b6a98132473929edfce215cd9b16fab91a35050565b604080516001600160a01b038416602482015260448082018490528251808303909101815260649091019091526020810180516001600160e01b031663a9059cbb60e01b179052610e09908490612d17565b6001600160a01b0383166129d15760405162461bcd60e51b8152600401610dbd906136ab565b6001600160a01b0382166129f75760405162461bcd60e51b8152600401610dbd906136f0565b6001600160a01b03831660009081526020819052604090205481811015612a6f5760405162461bcd60e51b815260206004820152602660248201527f45524332303a207472616e7366657220616d6f756e7420657863656564732062604482015265616c616e636560d01b6064820152608401610dbd565b6001600160a01b03808516600090815260208190526040808220858503905591851681529081208054849290612aa690849061353c565b92505081905550826001600160a01b0316846001600160a01b03167fddf252ad1be2c89b69c2b068fc378daa952ba7f163c4a11628f55a4df523b3ef84604051612af291815260200190565b60405180910390a35b50505050565b3060009081526020819052604081205490506000601a54601854601954612b28919061353c565b612b32919061353c565b9050811580612b3f575080155b15612b48575050565b600060028260195485612b5b919061356b565b612b659190613733565b612b6f9190613733565b90506000612b7d8285613554565b905047612b8982612de9565b6000612b958247613554565b905060008560185483612ba8919061356b565b612bb29190613733565b9050600086601a5484612bc5919061356b565b612bcf9190613733565b9050600081612bde8486613554565b612be89190613554565b600060198190556018819055601a81905560075460405192935090916001600160a01b039091169085908381818185875af1925050503d8060008114612c4a576040519150601f19603f3d011682016040523d82523d6000602084013e612c4f565b606091505b50509050600088118015612c635750600082115b15612cb657612c728883612fa9565b601954604080518981526020810185905280820192909252517f17bbfb9a6069321b6ded73bd96327c9e6b7212a5cd51ff219cd61370acafb5619181900360600190a15b6008546040516001600160a01b03909116904790600081818185875af1925050503d8060008114612d03576040519150601f19603f3d011682016040523d82523d6000602084013e612d08565b606091505b50505050505050505050505050565b6000612d6c826040518060400160405280602081526020017f5361666545524332303a206c6f772d6c6576656c2063616c6c206661696c6564815250856001600160a01b03166130839092919063ffffffff16565b805190915015610e095780806020019051810190612d8a9190613755565b610e095760405162461bcd60e51b815260206004820152602a60248201527f5361666545524332303a204552433230206f7065726174696f6e20646964206e6044820152691bdd081cdd58d8d9595960b21b6064820152608401610dbd565b6040805160028082526060820183526000926020830190803683370190505090503081600081518110612e1e57612e1e61358a565b60200260200101906001600160a01b031690816001600160a01b0316815250507f00000000000000000000000000000000000000000000000000000000000000006001600160a01b031663ad5c46486040518163ffffffff1660e01b8152600401602060405180830381865afa158015612e9c573d6000803e3d6000fd5b505050506040513d601f19601f82011682018060405250810190612ec09190613615565b81600181518110612ed357612ed361358a565b60200260200101906001600160a01b031690816001600160a01b031681525050612f1e307f000000000000000000000000000000000000000000000000000000000000000084611c4b565b60405163791ac94760e01b81526001600160a01b037f0000000000000000000000000000000000000000000000000000000000000000169063791ac94790612f73908590600090869030904290600401613772565b600060405180830381600087803b158015612f8d57600080fd5b505af1158015612fa1573d6000803e3d6000fd5b505050505050565b612fd4307f000000000000000000000000000000000000000000000000000000000000000084611c4b565b60405163f305d71960e01b815230600482015260248101839052600060448201819052606482015261dead60848201524260a48201527f00000000000000000000000000000000000000000000000000000000000000006001600160a01b03169063f305d71990839060c40160606040518083038185885af115801561305e573d6000803e3d6000fd5b50505050506040513d601f19601f82011682018060405250810190611e5991906137ae565b6060613092848460008561309a565b949350505050565b6060824710156130fb5760405162461bcd60e51b815260206004820152602660248201527f416464726573733a20696e73756666696369656e742062616c616e636520666f6044820152651c8818d85b1b60d21b6064820152608401610dbd565b843b6131495760405162461bcd60e51b815260206004820152601d60248201527f416464726573733a2063616c6c20746f206e6f6e2d636f6e74726163740000006044820152606401610dbd565b600080866001600160a01b0316858760405161316591906137dc565b60006040518083038185875af1925050503d80600081146131a2576040519150601f19603f3d011682016040523d82523d6000602084013e6131a7565b606091505b50915091506131b78282866131c2565b979650505050505050565b606083156131d1575081610f88565b8251156131e15782518084602001fd5b8160405162461bcd60e51b8152600401610dbd9190613227565b60005b838110156132165781810151838201526020016131fe565b83811115612afb5750506000910152565b60208152600082518060208401526132468160408501602087016131fb565b601f01601f19169190910160400192915050565b6001600160a01b03811681146119ec57600080fd5b80356110628161325a565b6000806040838503121561328d57600080fd5b82356132988161325a565b946020939093013593505050565b6000806000606084860312156132bb57600080fd5b505081359360208301359350604090920135919050565b6000602082840312156132e457600080fd5b8135610f888161325a565b60006020828403121561330157600080fd5b5035919050565b60008060006060848603121561331d57600080fd5b83356133288161325a565b925060208401356133388161325a565b929592945050506040919091013590565b634e487b7160e01b600052604160045260246000fd5b6000602080838503121561337257600080fd5b823567ffffffffffffffff8082111561338a57600080fd5b818501915085601f83011261339e57600080fd5b8135818111156133b0576133b0613349565b8060051b604051601f19603f830116810181811085821117156133d5576133d5613349565b6040529182528482019250838101850191888311156133f357600080fd5b938501935b82851015613418576134098561326f565b845293850193928501926133f8565b98975050505050505050565b80151581146119ec57600080fd5b6000806040838503121561344557600080fd5b82356134508161325a565b9150602083013561346081613424565b809150509250929050565b60006020828403121561347d57600080fd5b8135610f8881613424565b6000806040838503121561349b57600080fd5b82356134a68161325a565b915060208301356134608161325a565b600181811c908216806134ca57607f821691505b602082108114156134eb57634e487b7160e01b600052602260045260246000fd5b50919050565b6020808252818101527f4f776e61626c653a2063616c6c6572206973206e6f7420746865206f776e6572604082015260600190565b634e487b7160e01b600052601160045260246000fd5b6000821982111561354f5761354f613526565b500190565b60008282101561356657613566613526565b500390565b600081600019048311821515161561358557613585613526565b500290565b634e487b7160e01b600052603260045260246000fd5b60006000198214156135b4576135b4613526565b5060010190565b60208082526021908201527f4f6e6c7920636f6e7472616374206164647265737320697320616c6c6f7765646040820152602160f81b606082015260800190565b60006020828403121561360e57600080fd5b5051919050565b60006020828403121561362757600080fd5b8151610f888161325a565b600081518084526020808501945080840160005b8381101561366b5781516001600160a01b031687529582019590820190600101613646565b509495945050505050565b84815260806020820152600061368f6080830186613632565b6001600160a01b03949094166040830152506060015292915050565b60208082526025908201527f45524332303a207472616e736665722066726f6d20746865207a65726f206164604082015264647265737360d81b606082015260800190565b60208082526023908201527f45524332303a207472616e7366657220746f20746865207a65726f206164647260408201526265737360e81b606082015260800190565b60008261375057634e487b7160e01b600052601260045260246000fd5b500490565b60006020828403121561376757600080fd5b8151610f8881613424565b85815284602082015260a06040820152600061379160a0830186613632565b6001600160a01b0394909416606083015250608001529392505050565b6000806000606084860312156137c357600080fd5b8351925060208401519150604084015190509250925092565b600082516137ee8184602087016131fb565b919091019291505056fea2646970667358221220425874664e25dabbca692d207fb38a37e60b13a2fcee3d4736a7d6130ed9e5a864736f6c634300080c00334f776e61626c653a2063616c6c6572206973206e6f7420746865206f776e6572",
			"opcodes": "PUSH1 0xA0 PUSH1 0x40 MSTORE PUSH1 0xC DUP1 SLOAD PUSH3 0xFFFFFF NOT AND PUSH1 0x1 SWAP1 DUP2 OR SWAP1 SWAP2 SSTORE PUSH1 0xF DUP1 SLOAD PUSH1 0xFF NOT AND SWAP1 SWAP2 OR SWAP1 SSTORE CALLVALUE DUP1 ISZERO PUSH3 0x30 JUMPI PUSH1 0x0 DUP1 REVERT JUMPDEST POP PUSH1 0x40 MLOAD DUP1 PUSH1 0x40 ADD PUSH1 0x40 MSTORE DUP1 PUSH1 0xB DUP2 MSTORE PUSH1 0x20 ADD PUSH11 0x546F70204761696E657273 PUSH1 0xA8 SHL DUP2 MSTORE POP PUSH1 0x40 MLOAD DUP1 PUSH1 0x40 ADD PUSH1 0x40 MSTORE DUP1 PUSH1 0x3 DUP2 MSTORE PUSH1 0x20 ADD PUSH3 0x245447 PUSH1 0xE8 SHL DUP2 MSTORE POP DUP2 PUSH1 0x3 SWAP1 DUP1 MLOAD SWAP1 PUSH1 0x20 ADD SWAP1 PUSH3 0x89 SWAP3 SWAP2 SWAP1 PUSH3 0x81F JUMP JUMPDEST POP DUP1 MLOAD PUSH3 0x9F SWAP1 PUSH1 0x4 SWAP1 PUSH1 0x20 DUP5 ADD SWAP1 PUSH3 0x81F JUMP JUMPDEST POP POP POP PUSH3 0xBC PUSH3 0xB6 PUSH3 0x4AD PUSH1 0x20 SHL PUSH1 0x20 SHR JUMP JUMPDEST PUSH3 0x4B1 JUMP JUMPDEST CALLER PUSH20 0x9AC64CC6E4415144C455BD8E4837FEA55603E5C3 PUSH3 0xDF DUP2 PUSH1 0x1 PUSH3 0x503 JUMP JUMPDEST PUSH1 0x1 PUSH1 0x1 PUSH1 0xA0 SHL SUB DUP2 AND PUSH1 0x80 DUP2 SWAP1 MSTORE PUSH1 0x40 DUP1 MLOAD PUSH4 0xC45A0155 PUSH1 0xE0 SHL DUP2 MSTORE SWAP1 MLOAD PUSH4 0xC45A0155 SWAP2 PUSH1 0x4 DUP1 DUP3 ADD SWAP3 PUSH1 0x20 SWAP3 SWAP1 SWAP2 SWAP1 DUP3 SWAP1 SUB ADD DUP2 DUP7 GAS STATICCALL ISZERO DUP1 ISZERO PUSH3 0x12A JUMPI RETURNDATASIZE PUSH1 0x0 DUP1 RETURNDATACOPY RETURNDATASIZE PUSH1 0x0 REVERT JUMPDEST POP POP POP POP PUSH1 0x40 MLOAD RETURNDATASIZE PUSH1 0x1F NOT PUSH1 0x1F DUP3 ADD AND DUP3 ADD DUP1 PUSH1 0x40 MSTORE POP DUP2 ADD SWAP1 PUSH3 0x150 SWAP2 SWAP1 PUSH3 0x8C5 JUMP JUMPDEST PUSH1 0x1 PUSH1 0x1 PUSH1 0xA0 SHL SUB AND PUSH4 0xC9C65396 ADDRESS DUP4 PUSH1 0x1 PUSH1 0x1 PUSH1 0xA0 SHL SUB AND PUSH4 0xAD5C4648 PUSH1 0x40 MLOAD DUP2 PUSH4 0xFFFFFFFF AND PUSH1 0xE0 SHL DUP2 MSTORE PUSH1 0x4 ADD PUSH1 0x20 PUSH1 0x40 MLOAD DUP1 DUP4 SUB DUP2 DUP7 GAS STATICCALL ISZERO DUP1 ISZERO PUSH3 0x19E JUMPI RETURNDATASIZE PUSH1 0x0 DUP1 RETURNDATACOPY RETURNDATASIZE PUSH1 0x0 REVERT JUMPDEST POP POP POP POP PUSH1 0x40 MLOAD RETURNDATASIZE PUSH1 0x1F NOT PUSH1 0x1F DUP3 ADD AND DUP3 ADD DUP1 PUSH1 0x40 MSTORE POP DUP2 ADD SWAP1 PUSH3 0x1C4 SWAP2 SWAP1 PUSH3 0x8C5 JUMP JUMPDEST PUSH1 0x40 MLOAD PUSH1 0x1 PUSH1 0x1 PUSH1 0xE0 SHL SUB NOT PUSH1 0xE0 DUP6 SWAP1 SHL AND DUP2 MSTORE PUSH1 0x1 PUSH1 0x1 PUSH1 0xA0 SHL SUB SWAP3 DUP4 AND PUSH1 0x4 DUP3 ADD MSTORE SWAP2 AND PUSH1 0x24 DUP3 ADD MSTORE PUSH1 0x44 ADD PUSH1 0x20 PUSH1 0x40 MLOAD DUP1 DUP4 SUB DUP2 PUSH1 0x0 DUP8 GAS CALL ISZERO DUP1 ISZERO PUSH3 0x212 JUMPI RETURNDATASIZE PUSH1 0x0 DUP1 RETURNDATACOPY RETURNDATASIZE PUSH1 0x0 REVERT JUMPDEST POP POP POP POP PUSH1 0x40 MLOAD RETURNDATASIZE PUSH1 0x1F NOT PUSH1 0x1F DUP3 ADD AND DUP3 ADD DUP1 PUSH1 0x40 MSTORE POP DUP2 ADD SWAP1 PUSH3 0x238 SWAP2 SWAP1 PUSH3 0x8C5 JUMP JUMPDEST PUSH1 0x6 DUP1 SLOAD PUSH1 0x1 PUSH1 0x1 PUSH1 0xA0 SHL SUB NOT AND PUSH1 0x1 PUSH1 0x1 PUSH1 0xA0 SHL SUB SWAP3 SWAP1 SWAP3 AND SWAP2 DUP3 OR SWAP1 SSTORE PUSH3 0x264 SWAP1 PUSH1 0x1 PUSH3 0x503 JUMP JUMPDEST PUSH1 0x6 SLOAD PUSH3 0x27D SWAP1 PUSH1 0x1 PUSH1 0x1 PUSH1 0xA0 SHL SUB AND PUSH1 0x1 PUSH3 0x57D JUMP JUMPDEST PUSH1 0x6 PUSH1 0x4 PUSH1 0x0 DUP3 DUP3 DUP3 PUSH11 0x52B7D2DCC80CD2E4000000 PUSH2 0x3E8 PUSH3 0x2A2 DUP3 PUSH1 0x1 PUSH3 0x90D JUMP JUMPDEST PUSH3 0x2AE SWAP2 SWAP1 PUSH3 0x92F JUMP JUMPDEST PUSH1 0x9 SSTORE PUSH10 0x152D02C7E14AF6800000 PUSH1 0xA SSTORE PUSH2 0x3E8 PUSH3 0x2CF DUP3 PUSH1 0x5 PUSH3 0x90D JUMP JUMPDEST PUSH3 0x2DB SWAP2 SWAP1 PUSH3 0x92F JUMP JUMPDEST PUSH1 0xB SSTORE PUSH1 0x11 DUP8 SWAP1 SSTORE PUSH1 0x12 DUP7 SWAP1 SSTORE PUSH1 0x13 DUP6 SWAP1 SSTORE DUP5 PUSH3 0x2FA DUP8 DUP10 PUSH3 0x952 JUMP JUMPDEST PUSH3 0x306 SWAP2 SWAP1 PUSH3 0x952 JUMP JUMPDEST PUSH1 0x10 SSTORE PUSH1 0x15 DUP5 SWAP1 SSTORE PUSH1 0x16 DUP4 SWAP1 SSTORE PUSH1 0x17 DUP3 SWAP1 SSTORE DUP2 PUSH3 0x325 DUP5 DUP7 PUSH3 0x952 JUMP JUMPDEST PUSH3 0x331 SWAP2 SWAP1 PUSH3 0x952 JUMP JUMPDEST PUSH1 0x14 SSTORE PUSH1 0x63 PUSH1 0x1F SSTORE PUSH1 0x7 DUP1 SLOAD PUSH1 0x1 PUSH1 0x1 PUSH1 0xA0 SHL SUB NOT SWAP1 DUP2 AND PUSH20 0x82A5FB750F2A013E04CCD79437BC88CFCD0E68FA OR SWAP1 SWAP2 SSTORE PUSH1 0x8 DUP1 SLOAD SWAP1 SWAP2 AND CALLER OR SWAP1 SSTORE PUSH3 0x37A DUP10 PUSH1 0x1 PUSH3 0x5D0 JUMP JUMPDEST PUSH3 0x387 ADDRESS PUSH1 0x1 PUSH3 0x5D0 JUMP JUMPDEST PUSH3 0x396 PUSH2 0xDEAD PUSH1 0x1 PUSH3 0x5D0 JUMP JUMPDEST PUSH1 0x8 SLOAD PUSH3 0x3AF SWAP1 PUSH1 0x1 PUSH1 0x1 PUSH1 0xA0 SHL SUB AND PUSH1 0x1 PUSH3 0x5D0 JUMP JUMPDEST PUSH1 0x7 SLOAD PUSH3 0x3C8 SWAP1 PUSH1 0x1 PUSH1 0x1 PUSH1 0xA0 SHL SUB AND PUSH1 0x1 PUSH3 0x5D0 JUMP JUMPDEST PUSH3 0x3D5 DUP10 PUSH1 0x1 PUSH3 0x503 JUMP JUMPDEST PUSH3 0x3E2 ADDRESS PUSH1 0x1 PUSH3 0x503 JUMP JUMPDEST PUSH1 0x8 SLOAD PUSH3 0x3FB SWAP1 PUSH1 0x1 PUSH1 0x1 PUSH1 0xA0 SHL SUB AND PUSH1 0x1 PUSH3 0x503 JUMP JUMPDEST PUSH3 0x40A PUSH2 0xDEAD PUSH1 0x1 PUSH3 0x503 JUMP JUMPDEST PUSH1 0x7 SLOAD PUSH3 0x423 SWAP1 PUSH1 0x1 PUSH1 0x1 PUSH1 0xA0 SHL SUB AND PUSH1 0x1 PUSH3 0x503 JUMP JUMPDEST ADDRESS PUSH1 0x0 SWAP1 DUP2 MSTORE PUSH1 0x1D PUSH1 0x20 MSTORE PUSH1 0x40 DUP1 DUP3 KECCAK256 DUP1 SLOAD PUSH1 0x1 PUSH1 0xFF NOT SWAP2 DUP3 AND DUP2 OR SWAP1 SWAP3 SSTORE PUSH32 0x3A7826ADCBA3CF4A45D240ECA37AE44625CCE3B447503FB3D25291F41C32DD75 DUP1 SLOAD DUP3 AND DUP4 OR SWAP1 SSTORE PUSH1 0x6 SLOAD PUSH1 0x1 PUSH1 0x1 PUSH1 0xA0 SHL SUB AND DUP5 MSTORE SWAP2 SWAP1 SWAP3 KECCAK256 DUP1 SLOAD SWAP1 SWAP2 AND SWAP1 SWAP2 OR SWAP1 SSTORE PUSH3 0x493 DUP10 DUP3 PUSH3 0x67A JUMP JUMPDEST PUSH3 0x49E DUP10 PUSH3 0x75F JUMP JUMPDEST POP POP POP POP POP POP POP POP POP PUSH3 0x9AA JUMP JUMPDEST CALLER SWAP1 JUMP JUMPDEST PUSH1 0x5 DUP1 SLOAD PUSH1 0x1 PUSH1 0x1 PUSH1 0xA0 SHL SUB DUP4 DUP2 AND PUSH1 0x1 PUSH1 0x1 PUSH1 0xA0 SHL SUB NOT DUP4 AND DUP2 OR SWAP1 SWAP4 SSTORE PUSH1 0x40 MLOAD SWAP2 AND SWAP2 SWAP1 DUP3 SWAP1 PUSH32 0x8BE0079C531659141344CD1FD0A4F28419497F9722A3DAAFE3B4186F6B6457E0 SWAP1 PUSH1 0x0 SWAP1 LOG3 POP POP JUMP JUMPDEST PUSH1 0x5 SLOAD PUSH1 0x1 PUSH1 0x1 PUSH1 0xA0 SHL SUB AND CALLER EQ PUSH3 0x552 JUMPI PUSH1 0x40 MLOAD PUSH3 0x461BCD PUSH1 0xE5 SHL DUP2 MSTORE PUSH1 0x20 PUSH1 0x4 DUP3 ADD DUP2 SWAP1 MSTORE PUSH1 0x24 DUP3 ADD MSTORE PUSH1 0x0 DUP1 MLOAD PUSH1 0x20 PUSH3 0x422C DUP4 CODECOPY DUP2 MLOAD SWAP2 MSTORE PUSH1 0x44 DUP3 ADD MSTORE PUSH1 0x64 ADD JUMPDEST PUSH1 0x40 MLOAD DUP1 SWAP2 SUB SWAP1 REVERT JUMPDEST PUSH1 0x1 PUSH1 0x1 PUSH1 0xA0 SHL SUB SWAP2 SWAP1 SWAP2 AND PUSH1 0x0 SWAP1 DUP2 MSTORE PUSH1 0x1C PUSH1 0x20 MSTORE PUSH1 0x40 SWAP1 KECCAK256 DUP1 SLOAD PUSH1 0xFF NOT AND SWAP2 ISZERO ISZERO SWAP2 SWAP1 SWAP2 OR SWAP1 SSTORE JUMP JUMPDEST PUSH1 0x1 PUSH1 0x1 PUSH1 0xA0 SHL SUB DUP3 AND PUSH1 0x0 DUP2 DUP2 MSTORE PUSH1 0x20 DUP1 MSTORE PUSH1 0x40 DUP1 DUP3 KECCAK256 DUP1 SLOAD PUSH1 0xFF NOT AND DUP6 ISZERO ISZERO SWAP1 DUP2 OR SWAP1 SWAP2 SSTORE SWAP1 MLOAD SWAP1 SWAP3 SWAP2 PUSH32 0xFFA9187BF1F18BF477BD0EA1BCBB64E93B6A98132473929EDFCE215CD9B16FAB SWAP2 LOG3 POP POP JUMP JUMPDEST PUSH1 0x5 SLOAD PUSH1 0x1 PUSH1 0x1 PUSH1 0xA0 SHL SUB AND CALLER EQ PUSH3 0x61B JUMPI PUSH1 0x40 MLOAD PUSH3 0x461BCD PUSH1 0xE5 SHL DUP2 MSTORE PUSH1 0x20 PUSH1 0x4 DUP3 ADD DUP2 SWAP1 MSTORE PUSH1 0x24 DUP3 ADD MSTORE PUSH1 0x0 DUP1 MLOAD PUSH1 0x20 PUSH3 0x422C DUP4 CODECOPY DUP2 MLOAD SWAP2 MSTORE PUSH1 0x44 DUP3 ADD MSTORE PUSH1 0x64 ADD PUSH3 0x549 JUMP JUMPDEST PUSH1 0x1 PUSH1 0x1 PUSH1 0xA0 SHL SUB DUP3 AND PUSH1 0x0 DUP2 DUP2 MSTORE PUSH1 0x1B PUSH1 0x20 SWAP1 DUP2 MSTORE PUSH1 0x40 SWAP2 DUP3 SWAP1 KECCAK256 DUP1 SLOAD PUSH1 0xFF NOT AND DUP6 ISZERO ISZERO SWAP1 DUP2 OR SWAP1 SWAP2 SSTORE SWAP2 MLOAD SWAP2 DUP3 MSTORE PUSH32 0x9D8F7706EA1113D1A167B526ECA956215946DD36CC7DF39EB16180222D8B5DF7 SWAP2 ADD PUSH1 0x40 MLOAD DUP1 SWAP2 SUB SWAP1 LOG2 POP POP JUMP JUMPDEST PUSH1 0x1 PUSH1 0x1 PUSH1 0xA0 SHL SUB DUP3 AND PUSH3 0x6D2 JUMPI PUSH1 0x40 MLOAD PUSH3 0x461BCD PUSH1 0xE5 SHL DUP2 MSTORE PUSH1 0x20 PUSH1 0x4 DUP3 ADD MSTORE PUSH1 0x1F PUSH1 0x24 DUP3 ADD MSTORE PUSH32 0x45524332303A206D696E7420746F20746865207A65726F206164647265737300 PUSH1 0x44 DUP3 ADD MSTORE PUSH1 0x64 ADD PUSH3 0x549 JUMP JUMPDEST DUP1 PUSH1 0x2 PUSH1 0x0 DUP3 DUP3 SLOAD PUSH3 0x6E6 SWAP2 SWAP1 PUSH3 0x952 JUMP JUMPDEST SWAP1 SWAP2 SSTORE POP POP PUSH1 0x1 PUSH1 0x1 PUSH1 0xA0 SHL SUB DUP3 AND PUSH1 0x0 SWAP1 DUP2 MSTORE PUSH1 0x20 DUP2 SWAP1 MSTORE PUSH1 0x40 DUP2 KECCAK256 DUP1 SLOAD DUP4 SWAP3 SWAP1 PUSH3 0x715 SWAP1 DUP5 SWAP1 PUSH3 0x952 JUMP JUMPDEST SWAP1 SWAP2 SSTORE POP POP PUSH1 0x40 MLOAD DUP2 DUP2 MSTORE PUSH1 0x1 PUSH1 0x1 PUSH1 0xA0 SHL SUB DUP4 AND SWAP1 PUSH1 0x0 SWAP1 PUSH32 0xDDF252AD1BE2C89B69C2B068FC378DAA952BA7F163C4A11628F55A4DF523B3EF SWAP1 PUSH1 0x20 ADD PUSH1 0x40 MLOAD DUP1 SWAP2 SUB SWAP1 LOG3 POP POP JUMP JUMPDEST PUSH1 0x5 SLOAD PUSH1 0x1 PUSH1 0x1 PUSH1 0xA0 SHL SUB AND CALLER EQ PUSH3 0x7AA JUMPI PUSH1 0x40 MLOAD PUSH3 0x461BCD PUSH1 0xE5 SHL DUP2 MSTORE PUSH1 0x20 PUSH1 0x4 DUP3 ADD DUP2 SWAP1 MSTORE PUSH1 0x24 DUP3 ADD MSTORE PUSH1 0x0 DUP1 MLOAD PUSH1 0x20 PUSH3 0x422C DUP4 CODECOPY DUP2 MLOAD SWAP2 MSTORE PUSH1 0x44 DUP3 ADD MSTORE PUSH1 0x64 ADD PUSH3 0x549 JUMP JUMPDEST PUSH1 0x1 PUSH1 0x1 PUSH1 0xA0 SHL SUB DUP2 AND PUSH3 0x811 JUMPI PUSH1 0x40 MLOAD PUSH3 0x461BCD PUSH1 0xE5 SHL DUP2 MSTORE PUSH1 0x20 PUSH1 0x4 DUP3 ADD MSTORE PUSH1 0x26 PUSH1 0x24 DUP3 ADD MSTORE PUSH32 0x4F776E61626C653A206E6577206F776E657220697320746865207A65726F2061 PUSH1 0x44 DUP3 ADD MSTORE PUSH6 0x646472657373 PUSH1 0xD0 SHL PUSH1 0x64 DUP3 ADD MSTORE PUSH1 0x84 ADD PUSH3 0x549 JUMP JUMPDEST PUSH3 0x81C DUP2 PUSH3 0x4B1 JUMP JUMPDEST POP JUMP JUMPDEST DUP3 DUP1 SLOAD PUSH3 0x82D SWAP1 PUSH3 0x96D JUMP JUMPDEST SWAP1 PUSH1 0x0 MSTORE PUSH1 0x20 PUSH1 0x0 KECCAK256 SWAP1 PUSH1 0x1F ADD PUSH1 0x20 SWAP1 DIV DUP2 ADD SWAP3 DUP3 PUSH3 0x851 JUMPI PUSH1 0x0 DUP6 SSTORE PUSH3 0x89C JUMP JUMPDEST DUP3 PUSH1 0x1F LT PUSH3 0x86C JUMPI DUP1 MLOAD PUSH1 0xFF NOT AND DUP4 DUP1 ADD OR DUP6 SSTORE PUSH3 0x89C JUMP JUMPDEST DUP3 DUP1 ADD PUSH1 0x1 ADD DUP6 SSTORE DUP3 ISZERO PUSH3 0x89C JUMPI SWAP2 DUP3 ADD JUMPDEST DUP3 DUP2 GT ISZERO PUSH3 0x89C JUMPI DUP3 MLOAD DUP3 SSTORE SWAP2 PUSH1 0x20 ADD SWAP2 SWAP1 PUSH1 0x1 ADD SWAP1 PUSH3 0x87F JUMP JUMPDEST POP PUSH3 0x8AA SWAP3 SWAP2 POP PUSH3 0x8AE JUMP JUMPDEST POP SWAP1 JUMP JUMPDEST JUMPDEST DUP1 DUP3 GT ISZERO PUSH3 0x8AA JUMPI PUSH1 0x0 DUP2 SSTORE PUSH1 0x1 ADD PUSH3 0x8AF JUMP JUMPDEST PUSH1 0x0 PUSH1 0x20 DUP3 DUP5 SUB SLT ISZERO PUSH3 0x8D8 JUMPI PUSH1 0x0 DUP1 REVERT JUMPDEST DUP2 MLOAD PUSH1 0x1 PUSH1 0x1 PUSH1 0xA0 SHL SUB DUP2 AND DUP2 EQ PUSH3 0x8F0 JUMPI PUSH1 0x0 DUP1 REVERT JUMPDEST SWAP4 SWAP3 POP POP POP JUMP JUMPDEST PUSH4 0x4E487B71 PUSH1 0xE0 SHL PUSH1 0x0 MSTORE PUSH1 0x11 PUSH1 0x4 MSTORE PUSH1 0x24 PUSH1 0x0 REVERT JUMPDEST PUSH1 0x0 DUP2 PUSH1 0x0 NOT DIV DUP4 GT DUP3 ISZERO ISZERO AND ISZERO PUSH3 0x92A JUMPI PUSH3 0x92A PUSH3 0x8F7 JUMP JUMPDEST POP MUL SWAP1 JUMP JUMPDEST PUSH1 0x0 DUP3 PUSH3 0x94D JUMPI PUSH4 0x4E487B71 PUSH1 0xE0 SHL PUSH1 0x0 MSTORE PUSH1 0x12 PUSH1 0x4 MSTORE PUSH1 0x24 PUSH1 0x0 REVERT JUMPDEST POP DIV SWAP1 JUMP JUMPDEST PUSH1 0x0 DUP3 NOT DUP3 GT ISZERO PUSH3 0x968 JUMPI PUSH3 0x968 PUSH3 0x8F7 JUMP JUMPDEST POP ADD SWAP1 JUMP JUMPDEST PUSH1 0x1 DUP2 DUP2 SHR SWAP1 DUP3 AND DUP1 PUSH3 0x982 JUMPI PUSH1 0x7F DUP3 AND SWAP2 POP JUMPDEST PUSH1 0x20 DUP3 LT DUP2 EQ ISZERO PUSH3 0x9A4 JUMPI PUSH4 0x4E487B71 PUSH1 0xE0 SHL PUSH1 0x0 MSTORE PUSH1 0x22 PUSH1 0x4 MSTORE PUSH1 0x24 PUSH1 0x0 REVERT JUMPDEST POP SWAP2 SWAP1 POP JUMP JUMPDEST PUSH1 0x80 MLOAD PUSH2 0x382E PUSH3 0x9FE PUSH1 0x0 CODECOPY PUSH1 0x0 DUP2 DUP2 PUSH2 0x52E ADD MSTORE DUP2 DUP2 PUSH2 0x1A3C ADD MSTORE DUP2 DUP2 PUSH2 0x1B28 ADD MSTORE DUP2 DUP2 PUSH2 0x20F5 ADD MSTORE DUP2 DUP2 PUSH2 0x2E40 ADD MSTORE DUP2 DUP2 PUSH2 0x2EF9 ADD MSTORE DUP2 DUP2 PUSH2 0x2F35 ADD MSTORE DUP2 DUP2 PUSH2 0x2FAF ADD MSTORE PUSH2 0x300C ADD MSTORE PUSH2 0x382E PUSH1 0x0 RETURN INVALID PUSH1 0x80 PUSH1 0x40 MSTORE PUSH1 0x4 CALLDATASIZE LT PUSH2 0x41F JUMPI PUSH1 0x0 CALLDATALOAD PUSH1 0xE0 SHR DUP1 PUSH4 0x857EBD4B GT PUSH2 0x21E JUMPI DUP1 PUSH4 0xC876D0B9 GT PUSH2 0x123 JUMPI DUP1 PUSH4 0xEE40166E GT PUSH2 0xAB JUMPI DUP1 PUSH4 0xF6374342 GT PUSH2 0x7A JUMPI DUP1 PUSH4 0xF6374342 EQ PUSH2 0xC4F JUMPI DUP1 PUSH4 0xF77DBDC6 EQ PUSH2 0xC65 JUMPI DUP1 PUSH4 0xF8B45B05 EQ PUSH2 0xC95 JUMPI DUP1 PUSH4 0xFC155D1D EQ PUSH2 0xCAB JUMPI DUP1 PUSH4 0xFE98AFED EQ PUSH2 0xCCB JUMPI PUSH1 0x0 DUP1 REVERT JUMPDEST DUP1 PUSH4 0xEE40166E EQ PUSH2 0xBEE JUMPI DUP1 PUSH4 0xF11A24D3 EQ PUSH2 0xC04 JUMPI DUP1 PUSH4 0xF22857A8 EQ PUSH2 0xC1A JUMPI DUP1 PUSH4 0xF2FDE38B EQ PUSH2 0xC2F JUMPI PUSH1 0x0 DUP1 REVERT JUMPDEST DUP1 PUSH4 0xD85BA063 GT PUSH2 0xF2 JUMPI DUP1 PUSH4 0xD85BA063 EQ PUSH2 0xB47 JUMPI DUP1 PUSH4 0xDD62ED3E EQ PUSH2 0xB5D JUMPI DUP1 PUSH4 0xE2F45605 EQ PUSH2 0xBA3 JUMPI DUP1 PUSH4 0xE3F8DA55 EQ PUSH2 0xBB9 JUMPI DUP1 PUSH4 0xE884F260 EQ PUSH2 0xBD9 JUMPI PUSH1 0x0 DUP1 REVERT JUMPDEST DUP1 PUSH4 0xC876D0B9 EQ PUSH2 0xAE1 JUMPI DUP1 PUSH4 0xC8C8EBE4 EQ PUSH2 0xAFB JUMPI DUP1 PUSH4 0xD0499018 EQ PUSH2 0xB11 JUMPI DUP1 PUSH4 0xD4980312 EQ PUSH2 0xB31 JUMPI PUSH1 0x0 DUP1 REVERT JUMPDEST DUP1 PUSH4 0x9A7A23D6 GT PUSH2 0x1A6 JUMPI DUP1 PUSH4 0xA9059CBB GT PUSH2 0x175 JUMPI DUP1 PUSH4 0xA9059CBB EQ PUSH2 0xA33 JUMPI DUP1 PUSH4 0xAFA4F3B2 EQ PUSH2 0xA53 JUMPI DUP1 PUSH4 0xB62496F5 EQ PUSH2 0xA73 JUMPI DUP1 PUSH4 0xBBC0C742 EQ PUSH2 0xAA2 JUMPI DUP1 PUSH4 0xC0246668 EQ PUSH2 0xAC1 JUMPI PUSH1 0x0 DUP1 REVERT JUMPDEST DUP1 PUSH4 0x9A7A23D6 EQ PUSH2 0x9B3 JUMPI DUP1 PUSH4 0xA457C2D7 EQ PUSH2 0x9D3 JUMPI DUP1 PUSH4 0xA4640B82 EQ PUSH2 0x9F3 JUMPI DUP1 PUSH4 0xA67096E2 EQ PUSH2 0xA13 JUMPI PUSH1 0x0 DUP1 REVERT JUMPDEST DUP1 PUSH4 0x8DA5CB5B GT PUSH2 0x1ED JUMPI DUP1 PUSH4 0x8DA5CB5B EQ PUSH2 0x92A JUMPI DUP1 PUSH4 0x92136913 EQ PUSH2 0x948 JUMPI DUP1 PUSH4 0x924DE9B7 EQ PUSH2 0x95E JUMPI DUP1 PUSH4 0x9485B9D8 EQ PUSH2 0x97E JUMPI DUP1 PUSH4 0x95D89B41 EQ PUSH2 0x99E JUMPI PUSH1 0x0 DUP1 REVERT JUMPDEST DUP1 PUSH4 0x857EBD4B EQ PUSH2 0x8C0 JUMPI DUP1 PUSH4 0x87DBD21D EQ PUSH2 0x8E0 JUMPI DUP1 PUSH4 0x8A8C523C EQ PUSH2 0x8F5 JUMPI DUP1 PUSH4 0x8B992B11 EQ PUSH2 0x90A JUMPI PUSH1 0x0 DUP1 REVERT JUMPDEST DUP1 PUSH4 0x313CE567 GT PUSH2 0x324 JUMPI DUP1 PUSH4 0x5D098B38 GT PUSH2 0x2AC JUMPI DUP1 PUSH4 0x715018A6 GT PUSH2 0x27B JUMPI DUP1 PUSH4 0x715018A6 EQ PUSH2 0x835 JUMPI DUP1 PUSH4 0x7571336A EQ PUSH2 0x84A JUMPI DUP1 PUSH4 0x75F0A874 EQ PUSH2 0x86A JUMPI DUP1 PUSH4 0x7BCE5A04 EQ PUSH2 0x88A JUMPI DUP1 PUSH4 0x800DB58E EQ PUSH2 0x8A0 JUMPI PUSH1 0x0 DUP1 REVERT JUMPDEST DUP1 PUSH4 0x5D098B38 EQ PUSH2 0x7A9 JUMPI DUP1 PUSH4 0x6A486A8E EQ PUSH2 0x7C9 JUMPI DUP1 PUSH4 0x6DDD1713 EQ PUSH2 0x7DF JUMPI DUP1 PUSH4 0x70A08231 EQ PUSH2 0x7FF JUMPI PUSH1 0x0 DUP1 REVERT JUMPDEST DUP1 PUSH4 0x49BD5A5E GT PUSH2 0x2F3 JUMPI DUP1 PUSH4 0x49BD5A5E EQ PUSH2 0x6F6 JUMPI DUP1 PUSH4 0x4A62BB65 EQ PUSH2 0x716 JUMPI DUP1 PUSH4 0x4FBEE193 EQ PUSH2 0x730 JUMPI DUP1 PUSH4 0x51C7CD5F EQ PUSH2 0x769 JUMPI DUP1 PUSH4 0x52BA9921 EQ PUSH2 0x789 JUMPI PUSH1 0x0 DUP1 REVERT JUMPDEST DUP1 PUSH4 0x313CE567 EQ PUSH2 0x680 JUMPI DUP1 PUSH4 0x39509351 EQ PUSH2 0x69C JUMPI DUP1 PUSH4 0x3B0E0133 EQ PUSH2 0x6BC JUMPI DUP1 PUSH4 0x45D377A4 EQ PUSH2 0x6DC JUMPI PUSH1 0x0 DUP1 REVERT JUMPDEST DUP1 PUSH4 0x1A221DBB GT PUSH2 0x3A7 JUMPI DUP1 PUSH4 0x1F3FED8F GT PUSH2 0x376 JUMPI DUP1 PUSH4 0x1F3FED8F EQ PUSH2 0x5FE JUMPI DUP1 PUSH4 0x1FE70A98 EQ PUSH2 0x614 JUMPI DUP1 PUSH4 0x23B872DD EQ PUSH2 0x62A JUMPI DUP1 PUSH4 0x27A14FC2 EQ PUSH2 0x64A JUMPI DUP1 PUSH4 0x27C8F835 EQ PUSH2 0x66A JUMPI PUSH1 0x0 DUP1 REVERT JUMPDEST DUP1 PUSH4 0x1A221DBB EQ PUSH2 0x592 JUMPI DUP1 PUSH4 0x1A8145BB EQ PUSH2 0x5A8 JUMPI DUP1 PUSH4 0x1CD348C0 EQ PUSH2 0x5BE JUMPI DUP1 PUSH4 0x1E293C10 EQ PUSH2 0x5DE JUMPI PUSH1 0x0 DUP1 REVERT JUMPDEST DUP1 PUSH4 0xF683E90 GT PUSH2 0x3EE JUMPI DUP1 PUSH4 0xF683E90 EQ PUSH2 0x4CC JUMPI DUP1 PUSH4 0x10D5DE53 EQ PUSH2 0x4EC JUMPI DUP1 PUSH4 0x1694505E EQ PUSH2 0x51C JUMPI DUP1 PUSH4 0x17700F01 EQ PUSH2 0x568 JUMPI DUP1 PUSH4 0x18160DDD EQ PUSH2 0x57D JUMPI PUSH1 0x0 DUP1 REVERT JUMPDEST DUP1 PUSH4 0x6FDDE03 EQ PUSH2 0x42B JUMPI DUP1 PUSH4 0x95EA7B3 EQ PUSH2 0x456 JUMPI DUP1 PUSH4 0xB166D50 EQ PUSH2 0x486 JUMPI DUP1 PUSH4 0xD075D9C EQ PUSH2 0x4AA JUMPI PUSH1 0x0 DUP1 REVERT JUMPDEST CALLDATASIZE PUSH2 0x426 JUMPI STOP JUMPDEST PUSH1 0x0 DUP1 REVERT JUMPDEST CALLVALUE DUP1 ISZERO PUSH2 0x437 JUMPI PUSH1 0x0 DUP1 REVERT JUMPDEST POP PUSH2 0x440 PUSH2 0xCEB JUMP JUMPDEST PUSH1 0x40 MLOAD PUSH2 0x44D SWAP2 SWAP1 PUSH2 0x3227 JUMP JUMPDEST PUSH1 0x40 MLOAD DUP1 SWAP2 SUB SWAP1 RETURN JUMPDEST CALLVALUE DUP1 ISZERO PUSH2 0x462 JUMPI PUSH1 0x0 DUP1 REVERT JUMPDEST POP PUSH2 0x476 PUSH2 0x471 CALLDATASIZE PUSH1 0x4 PUSH2 0x327A JUMP JUMPDEST PUSH2 0xD7D JUMP JUMPDEST PUSH1 0x40 MLOAD SWAP1 ISZERO ISZERO DUP2 MSTORE PUSH1 0x20 ADD PUSH2 0x44D JUMP JUMPDEST CALLVALUE DUP1 ISZERO PUSH2 0x492 JUMPI PUSH1 0x0 DUP1 REVERT JUMPDEST POP PUSH2 0x49C PUSH1 0x1A SLOAD DUP2 JUMP JUMPDEST PUSH1 0x40 MLOAD SWAP1 DUP2 MSTORE PUSH1 0x20 ADD PUSH2 0x44D JUMP JUMPDEST CALLVALUE DUP1 ISZERO PUSH2 0x4B6 JUMPI PUSH1 0x0 DUP1 REVERT JUMPDEST POP PUSH2 0x4CA PUSH2 0x4C5 CALLDATASIZE PUSH1 0x4 PUSH2 0x32A6 JUMP JUMPDEST PUSH2 0xD93 JUMP JUMPDEST STOP JUMPDEST CALLVALUE DUP1 ISZERO PUSH2 0x4D8 JUMPI PUSH1 0x0 DUP1 REVERT JUMPDEST POP PUSH2 0x4CA PUSH2 0x4E7 CALLDATASIZE PUSH1 0x4 PUSH2 0x32A6 JUMP JUMPDEST PUSH2 0xE0E JUMP JUMPDEST CALLVALUE DUP1 ISZERO PUSH2 0x4F8 JUMPI PUSH1 0x0 DUP1 REVERT JUMPDEST POP PUSH2 0x476 PUSH2 0x507 CALLDATASIZE PUSH1 0x4 PUSH2 0x32D2 JUMP JUMPDEST PUSH1 0x1C PUSH1 0x20 MSTORE PUSH1 0x0 SWAP1 DUP2 MSTORE PUSH1 0x40 SWAP1 KECCAK256 SLOAD PUSH1 0xFF AND DUP2 JUMP JUMPDEST CALLVALUE DUP1 ISZERO PUSH2 0x528 JUMPI PUSH1 0x0 DUP1 REVERT JUMPDEST POP PUSH2 0x550 PUSH32 0x0 DUP2 JUMP JUMPDEST PUSH1 0x40 MLOAD PUSH1 0x1 PUSH1 0x1 PUSH1 0xA0 SHL SUB SWAP1 SWAP2 AND DUP2 MSTORE PUSH1 0x20 ADD PUSH2 0x44D JUMP JUMPDEST CALLVALUE DUP1 ISZERO PUSH2 0x574 JUMPI PUSH1 0x0 DUP1 REVERT JUMPDEST POP PUSH2 0x4CA PUSH2 0xE64 JUMP JUMPDEST CALLVALUE DUP1 ISZERO PUSH2 0x589 JUMPI PUSH1 0x0 DUP1 REVERT JUMPDEST POP PUSH1 0x2 SLOAD PUSH2 0x49C JUMP JUMPDEST CALLVALUE DUP1 ISZERO PUSH2 0x59E JUMPI PUSH1 0x0 DUP1 REVERT JUMPDEST POP PUSH2 0x49C PUSH1 0x17 SLOAD DUP2 JUMP JUMPDEST CALLVALUE DUP1 ISZERO PUSH2 0x5B4 JUMPI PUSH1 0x0 DUP1 REVERT JUMPDEST POP PUSH2 0x49C PUSH1 0x19 SLOAD DUP2 JUMP JUMPDEST CALLVALUE DUP1 ISZERO PUSH2 0x5CA JUMPI PUSH1 0x0 DUP1 REVERT JUMPDEST POP PUSH1 0x8 SLOAD PUSH2 0x550 SWAP1 PUSH1 0x1 PUSH1 0x1 PUSH1 0xA0 SHL SUB AND DUP2 JUMP JUMPDEST CALLVALUE DUP1 ISZERO PUSH2 0x5EA JUMPI PUSH1 0x0 DUP1 REVERT JUMPDEST POP PUSH2 0x4CA PUSH2 0x5F9 CALLDATASIZE PUSH1 0x4 PUSH2 0x32EF JUMP JUMPDEST PUSH2 0xEA1 JUMP JUMPDEST CALLVALUE DUP1 ISZERO PUSH2 0x60A JUMPI PUSH1 0x0 DUP1 REVERT JUMPDEST POP PUSH2 0x49C PUSH1 0x18 SLOAD DUP2 JUMP JUMPDEST CALLVALUE DUP1 ISZERO PUSH2 0x620 JUMPI PUSH1 0x0 DUP1 REVERT JUMPDEST POP PUSH2 0x49C PUSH1 0x13 SLOAD DUP2 JUMP JUMPDEST CALLVALUE DUP1 ISZERO PUSH2 0x636 JUMPI PUSH1 0x0 DUP1 REVERT JUMPDEST POP PUSH2 0x476 PUSH2 0x645 CALLDATASIZE PUSH1 0x4 PUSH2 0x3308 JUMP JUMPDEST PUSH2 0xEE3 JUMP JUMPDEST CALLVALUE DUP1 ISZERO PUSH2 0x656 JUMPI PUSH1 0x0 DUP1 REVERT JUMPDEST POP PUSH2 0x4CA PUSH2 0x665 CALLDATASIZE PUSH1 0x4 PUSH2 0x32EF JUMP JUMPDEST PUSH2 0xF8F JUMP JUMPDEST CALLVALUE DUP1 ISZERO PUSH2 0x676 JUMPI PUSH1 0x0 DUP1 REVERT JUMPDEST POP PUSH2 0x550 PUSH2 0xDEAD DUP2 JUMP JUMPDEST CALLVALUE DUP1 ISZERO PUSH2 0x68C JUMPI PUSH1 0x0 DUP1 REVERT JUMPDEST POP PUSH1 0x40 MLOAD PUSH1 0x12 DUP2 MSTORE PUSH1 0x20 ADD PUSH2 0x44D JUMP JUMPDEST CALLVALUE DUP1 ISZERO PUSH2 0x6A8 JUMPI PUSH1 0x0 DUP1 REVERT JUMPDEST POP PUSH2 0x476 PUSH2 0x6B7 CALLDATASIZE PUSH1 0x4 PUSH2 0x327A JUMP JUMPDEST PUSH2 0xFD1 JUMP JUMPDEST CALLVALUE DUP1 ISZERO PUSH2 0x6C8 JUMPI PUSH1 0x0 DUP1 REVERT JUMPDEST POP PUSH2 0x476 PUSH2 0x6D7 CALLDATASIZE PUSH1 0x4 PUSH2 0x32D2 JUMP JUMPDEST PUSH2 0x100D JUMP JUMPDEST CALLVALUE DUP1 ISZERO PUSH2 0x6E8 JUMPI PUSH1 0x0 DUP1 REVERT JUMPDEST POP PUSH1 0x21 SLOAD PUSH2 0x476 SWAP1 PUSH1 0xFF AND DUP2 JUMP JUMPDEST CALLVALUE DUP1 ISZERO PUSH2 0x702 JUMPI PUSH1 0x0 DUP1 REVERT JUMPDEST POP PUSH1 0x6 SLOAD PUSH2 0x550 SWAP1 PUSH1 0x1 PUSH1 0x1 PUSH1 0xA0 SHL SUB AND DUP2 JUMP JUMPDEST CALLVALUE DUP1 ISZERO PUSH2 0x722 JUMPI PUSH1 0x0 DUP1 REVERT JUMPDEST POP PUSH1 0xC SLOAD PUSH2 0x476 SWAP1 PUSH1 0xFF AND DUP2 JUMP JUMPDEST CALLVALUE DUP1 ISZERO PUSH2 0x73C JUMPI PUSH1 0x0 DUP1 REVERT JUMPDEST POP PUSH2 0x476 PUSH2 0x74B CALLDATASIZE PUSH1 0x4 PUSH2 0x32D2 JUMP JUMPDEST PUSH1 0x1 PUSH1 0x1 PUSH1 0xA0 SHL SUB AND PUSH1 0x0 SWAP1 DUP2 MSTORE PUSH1 0x1B PUSH1 0x20 MSTORE PUSH1 0x40 SWAP1 KECCAK256 SLOAD PUSH1 0xFF AND SWAP1 JUMP JUMPDEST CALLVALUE DUP1 ISZERO PUSH2 0x775 JUMPI PUSH1 0x0 DUP1 REVERT JUMPDEST POP PUSH2 0x4CA PUSH2 0x784 CALLDATASIZE PUSH1 0x4 PUSH2 0x32A6 JUMP JUMPDEST PUSH2 0x1067 JUMP JUMPDEST CALLVALUE DUP1 ISZERO PUSH2 0x795 JUMPI PUSH1 0x0 DUP1 REVERT JUMPDEST POP PUSH2 0x476 PUSH2 0x7A4 CALLDATASIZE PUSH1 0x4 PUSH2 0x335F JUMP JUMPDEST PUSH2 0x10B0 JUMP JUMPDEST CALLVALUE DUP1 ISZERO PUSH2 0x7B5 JUMPI PUSH1 0x0 DUP1 REVERT JUMPDEST POP PUSH2 0x4CA PUSH2 0x7C4 CALLDATASIZE PUSH1 0x4 PUSH2 0x32D2 JUMP JUMPDEST PUSH2 0x1145 JUMP JUMPDEST CALLVALUE DUP1 ISZERO PUSH2 0x7D5 JUMPI PUSH1 0x0 DUP1 REVERT JUMPDEST POP PUSH2 0x49C PUSH1 0x14 SLOAD DUP2 JUMP JUMPDEST CALLVALUE DUP1 ISZERO PUSH2 0x7EB JUMPI PUSH1 0x0 DUP1 REVERT JUMPDEST POP PUSH1 0xC SLOAD PUSH2 0x476 SWAP1 PUSH3 0x10000 SWAP1 DIV PUSH1 0xFF AND DUP2 JUMP JUMPDEST CALLVALUE DUP1 ISZERO PUSH2 0x80B JUMPI PUSH1 0x0 DUP1 REVERT JUMPDEST POP PUSH2 0x49C PUSH2 0x81A CALLDATASIZE PUSH1 0x4 PUSH2 0x32D2 JUMP JUMPDEST PUSH1 0x1 PUSH1 0x1 PUSH1 0xA0 SHL SUB AND PUSH1 0x0 SWAP1 DUP2 MSTORE PUSH1 0x20 DUP2 SWAP1 MSTORE PUSH1 0x40 SWAP1 KECCAK256 SLOAD SWAP1 JUMP JUMPDEST CALLVALUE DUP1 ISZERO PUSH2 0x841 JUMPI PUSH1 0x0 DUP1 REVERT JUMPDEST POP PUSH2 0x4CA PUSH2 0x11CC JUMP JUMPDEST CALLVALUE DUP1 ISZERO PUSH2 0x856 JUMPI PUSH1 0x0 DUP1 REVERT JUMPDEST POP PUSH2 0x4CA PUSH2 0x865 CALLDATASIZE PUSH1 0x4 PUSH2 0x3432 JUMP JUMPDEST PUSH2 0x1202 JUMP JUMPDEST CALLVALUE DUP1 ISZERO PUSH2 0x876 JUMPI PUSH1 0x0 DUP1 REVERT JUMPDEST POP PUSH1 0x7 SLOAD PUSH2 0x550 SWAP1 PUSH1 0x1 PUSH1 0x1 PUSH1 0xA0 SHL SUB AND DUP2 JUMP JUMPDEST CALLVALUE DUP1 ISZERO PUSH2 0x896 JUMPI PUSH1 0x0 DUP1 REVERT JUMPDEST POP PUSH2 0x49C PUSH1 0x11 SLOAD DUP2 JUMP JUMPDEST CALLVALUE DUP1 ISZERO PUSH2 0x8AC JUMPI PUSH1 0x0 DUP1 REVERT JUMPDEST POP PUSH2 0x4CA PUSH2 0x8BB CALLDATASIZE PUSH1 0x4 PUSH2 0x32D2 JUMP JUMPDEST PUSH2 0x1257 JUMP JUMPDEST CALLVALUE DUP1 ISZERO PUSH2 0x8CC JUMPI PUSH1 0x0 DUP1 REVERT JUMPDEST POP PUSH2 0x476 PUSH2 0x8DB CALLDATASIZE PUSH1 0x4 PUSH2 0x32D2 JUMP JUMPDEST PUSH2 0x12CC JUMP JUMPDEST CALLVALUE DUP1 ISZERO PUSH2 0x8EC JUMPI PUSH1 0x0 DUP1 REVERT JUMPDEST POP PUSH2 0x4CA PUSH2 0x131E JUMP JUMPDEST CALLVALUE DUP1 ISZERO PUSH2 0x901 JUMPI PUSH1 0x0 DUP1 REVERT JUMPDEST POP PUSH2 0x4CA PUSH2 0x1354 JUMP JUMPDEST CALLVALUE DUP1 ISZERO PUSH2 0x916 JUMPI PUSH1 0x0 DUP1 REVERT JUMPDEST POP PUSH2 0x476 PUSH2 0x925 CALLDATASIZE PUSH1 0x4 PUSH2 0x32EF JUMP JUMPDEST PUSH2 0x1395 JUMP JUMPDEST CALLVALUE DUP1 ISZERO PUSH2 0x936 JUMPI PUSH1 0x0 DUP1 REVERT JUMPDEST POP PUSH1 0x5 SLOAD PUSH1 0x1 PUSH1 0x1 PUSH1 0xA0 SHL SUB AND PUSH2 0x550 JUMP JUMPDEST CALLVALUE DUP1 ISZERO PUSH2 0x954 JUMPI PUSH1 0x0 DUP1 REVERT JUMPDEST POP PUSH2 0x49C PUSH1 0x15 SLOAD DUP2 JUMP JUMPDEST CALLVALUE DUP1 ISZERO PUSH2 0x96A JUMPI PUSH1 0x0 DUP1 REVERT JUMPDEST POP PUSH2 0x4CA PUSH2 0x979 CALLDATASIZE PUSH1 0x4 PUSH2 0x346B JUMP JUMPDEST PUSH2 0x13CB JUMP JUMPDEST CALLVALUE DUP1 ISZERO PUSH2 0x98A JUMPI PUSH1 0x0 DUP1 REVERT JUMPDEST POP PUSH2 0x4CA PUSH2 0x999 CALLDATASIZE PUSH1 0x4 PUSH2 0x32D2 JUMP JUMPDEST PUSH2 0x1411 JUMP JUMPDEST CALLVALUE DUP1 ISZERO PUSH2 0x9AA JUMPI PUSH1 0x0 DUP1 REVERT JUMPDEST POP PUSH2 0x440 PUSH2 0x149F JUMP JUMPDEST CALLVALUE DUP1 ISZERO PUSH2 0x9BF JUMPI PUSH1 0x0 DUP1 REVERT JUMPDEST POP PUSH2 0x4CA PUSH2 0x9CE CALLDATASIZE PUSH1 0x4 PUSH2 0x3432 JUMP JUMPDEST PUSH2 0x14AE JUMP JUMPDEST CALLVALUE DUP1 ISZERO PUSH2 0x9DF JUMPI PUSH1 0x0 DUP1 REVERT JUMPDEST POP PUSH2 0x476 PUSH2 0x9EE CALLDATASIZE PUSH1 0x4 PUSH2 0x327A JUMP JUMPDEST PUSH2 0x1566 JUMP JUMPDEST CALLVALUE DUP1 ISZERO PUSH2 0x9FF JUMPI PUSH1 0x0 DUP1 REVERT JUMPDEST POP PUSH2 0x4CA PUSH2 0xA0E CALLDATASIZE PUSH1 0x4 PUSH2 0x32D2 JUMP JUMPDEST PUSH2 0x15FF JUMP JUMPDEST CALLVALUE DUP1 ISZERO PUSH2 0xA1F JUMPI PUSH1 0x0 DUP1 REVERT JUMPDEST POP PUSH2 0x4CA PUSH2 0xA2E CALLDATASIZE PUSH1 0x4 PUSH2 0x3488 JUMP JUMPDEST PUSH2 0x1686 JUMP JUMPDEST CALLVALUE DUP1 ISZERO PUSH2 0xA3F JUMPI PUSH1 0x0 DUP1 REVERT JUMPDEST POP PUSH2 0x476 PUSH2 0xA4E CALLDATASIZE PUSH1 0x4 PUSH2 0x327A JUMP JUMPDEST PUSH2 0x1731 JUMP JUMPDEST CALLVALUE DUP1 ISZERO PUSH2 0xA5F JUMPI PUSH1 0x0 DUP1 REVERT JUMPDEST POP PUSH2 0x476 PUSH2 0xA6E CALLDATASIZE PUSH1 0x4 PUSH2 0x32EF JUMP JUMPDEST PUSH2 0x173E JUMP JUMPDEST CALLVALUE DUP1 ISZERO PUSH2 0xA7F JUMPI PUSH1 0x0 DUP1 REVERT JUMPDEST POP PUSH2 0x476 PUSH2 0xA8E CALLDATASIZE PUSH1 0x4 PUSH2 0x32D2 JUMP JUMPDEST PUSH1 0x20 DUP1 MSTORE PUSH1 0x0 SWAP1 DUP2 MSTORE PUSH1 0x40 SWAP1 KECCAK256 SLOAD PUSH1 0xFF AND DUP2 JUMP JUMPDEST CALLVALUE DUP1 ISZERO PUSH2 0xAAE JUMPI PUSH1 0x0 DUP1 REVERT JUMPDEST POP PUSH1 0xC SLOAD PUSH2 0x476 SWAP1 PUSH2 0x100 SWAP1 DIV PUSH1 0xFF AND DUP2 JUMP JUMPDEST CALLVALUE DUP1 ISZERO PUSH2 0xACD JUMPI PUSH1 0x0 DUP1 REVERT JUMPDEST POP PUSH2 0x4CA PUSH2 0xADC CALLDATASIZE PUSH1 0x4 PUSH2 0x3432 JUMP JUMPDEST PUSH2 0x1774 JUMP JUMPDEST CALLVALUE DUP1 ISZERO PUSH2 0xAED JUMPI PUSH1 0x0 DUP1 REVERT JUMPDEST POP PUSH1 0xF SLOAD PUSH2 0x476 SWAP1 PUSH1 0xFF AND DUP2 JUMP JUMPDEST CALLVALUE DUP1 ISZERO PUSH2 0xB07 JUMPI PUSH1 0x0 DUP1 REVERT JUMPDEST POP PUSH2 0x49C PUSH1 0x9 SLOAD DUP2 JUMP JUMPDEST CALLVALUE DUP1 ISZERO PUSH2 0xB1D JUMPI PUSH1 0x0 DUP1 REVERT JUMPDEST POP PUSH2 0x476 PUSH2 0xB2C CALLDATASIZE PUSH1 0x4 PUSH2 0x335F JUMP JUMPDEST PUSH2 0x17FD JUMP JUMPDEST CALLVALUE DUP1 ISZERO PUSH2 0xB3D JUMPI PUSH1 0x0 DUP1 REVERT JUMPDEST POP PUSH2 0x49C PUSH1 0x1F SLOAD DUP2 JUMP JUMPDEST CALLVALUE DUP1 ISZERO PUSH2 0xB53 JUMPI PUSH1 0x0 DUP1 REVERT JUMPDEST POP PUSH2 0x49C PUSH1 0x10 SLOAD DUP2 JUMP JUMPDEST CALLVALUE DUP1 ISZERO PUSH2 0xB69 JUMPI PUSH1 0x0 DUP1 REVERT JUMPDEST POP PUSH2 0x49C PUSH2 0xB78 CALLDATASIZE PUSH1 0x4 PUSH2 0x3488 JUMP JUMPDEST PUSH1 0x1 PUSH1 0x1 PUSH1 0xA0 SHL SUB SWAP2 DUP3 AND PUSH1 0x0 SWAP1 DUP2 MSTORE PUSH1 0x1 PUSH1 0x20 SWAP1 DUP2 MSTORE PUSH1 0x40 DUP1 DUP4 KECCAK256 SWAP4 SWAP1 SWAP5 AND DUP3 MSTORE SWAP2 SWAP1 SWAP2 MSTORE KECCAK256 SLOAD SWAP1 JUMP JUMPDEST CALLVALUE DUP1 ISZERO PUSH2 0xBAF JUMPI PUSH1 0x0 DUP1 REVERT JUMPDEST POP PUSH2 0x49C PUSH1 0xA SLOAD DUP2 JUMP JUMPDEST CALLVALUE DUP1 ISZERO PUSH2 0xBC5 JUMPI PUSH1 0x0 DUP1 REVERT JUMPDEST POP PUSH2 0x476 PUSH2 0xBD4 CALLDATASIZE PUSH1 0x4 PUSH2 0x346B JUMP JUMPDEST PUSH2 0x1892 JUMP JUMPDEST CALLVALUE DUP1 ISZERO PUSH2 0xBE5 JUMPI PUSH1 0x0 DUP1 REVERT JUMPDEST POP PUSH2 0x476 PUSH2 0x18D6 JUMP JUMPDEST CALLVALUE DUP1 ISZERO PUSH2 0xBFA JUMPI PUSH1 0x0 DUP1 REVERT JUMPDEST POP PUSH2 0x49C PUSH1 0xD SLOAD DUP2 JUMP JUMPDEST CALLVALUE DUP1 ISZERO PUSH2 0xC10 JUMPI PUSH1 0x0 DUP1 REVERT JUMPDEST POP PUSH2 0x49C PUSH1 0x12 SLOAD DUP2 JUMP JUMPDEST CALLVALUE DUP1 ISZERO PUSH2 0xC26 JUMPI PUSH1 0x0 DUP1 REVERT JUMPDEST POP PUSH2 0x476 PUSH2 0x1913 JUMP JUMPDEST CALLVALUE DUP1 ISZERO PUSH2 0xC3B JUMPI PUSH1 0x0 DUP1 REVERT JUMPDEST POP PUSH2 0x4CA PUSH2 0xC4A CALLDATASIZE PUSH1 0x4 PUSH2 0x32D2 JUMP JUMPDEST PUSH2 0x1954 JUMP JUMPDEST CALLVALUE DUP1 ISZERO PUSH2 0xC5B JUMPI PUSH1 0x0 DUP1 REVERT JUMPDEST POP PUSH2 0x49C PUSH1 0x16 SLOAD DUP2 JUMP JUMPDEST CALLVALUE DUP1 ISZERO PUSH2 0xC71 JUMPI PUSH1 0x0 DUP1 REVERT JUMPDEST POP PUSH2 0x476 PUSH2 0xC80 CALLDATASIZE PUSH1 0x4 PUSH2 0x32D2 JUMP JUMPDEST PUSH1 0x1D PUSH1 0x20 MSTORE PUSH1 0x0 SWAP1 DUP2 MSTORE PUSH1 0x40 SWAP1 KECCAK256 SLOAD PUSH1 0xFF AND DUP2 JUMP JUMPDEST CALLVALUE DUP1 ISZERO PUSH2 0xCA1 JUMPI PUSH1 0x0 DUP1 REVERT JUMPDEST POP PUSH2 0x49C PUSH1 0xB SLOAD DUP2 JUMP JUMPDEST CALLVALUE DUP1 ISZERO PUSH2 0xCB7 JUMPI PUSH1 0x0 DUP1 REVERT JUMPDEST POP PUSH2 0x4CA PUSH2 0xCC6 CALLDATASIZE PUSH1 0x4 PUSH2 0x32EF JUMP JUMPDEST PUSH2 0x19EF JUMP JUMPDEST CALLVALUE DUP1 ISZERO PUSH2 0xCD7 JUMPI PUSH1 0x0 DUP1 REVERT JUMPDEST POP PUSH2 0x4CA PUSH2 0xCE6 CALLDATASIZE PUSH1 0x4 PUSH2 0x32D2 JUMP JUMPDEST PUSH2 0x1BD9 JUMP JUMPDEST PUSH1 0x60 PUSH1 0x3 DUP1 SLOAD PUSH2 0xCFA SWAP1 PUSH2 0x34B6 JUMP JUMPDEST DUP1 PUSH1 0x1F ADD PUSH1 0x20 DUP1 SWAP2 DIV MUL PUSH1 0x20 ADD PUSH1 0x40 MLOAD SWAP1 DUP2 ADD PUSH1 0x40 MSTORE DUP1 SWAP3 SWAP2 SWAP1 DUP2 DUP2 MSTORE PUSH1 0x20 ADD DUP3 DUP1 SLOAD PUSH2 0xD26 SWAP1 PUSH2 0x34B6 JUMP JUMPDEST DUP1 ISZERO PUSH2 0xD73 JUMPI DUP1 PUSH1 0x1F LT PUSH2 0xD48 JUMPI PUSH2 0x100 DUP1 DUP4 SLOAD DIV MUL DUP4 MSTORE SWAP2 PUSH1 0x20 ADD SWAP2 PUSH2 0xD73 JUMP JUMPDEST DUP3 ADD SWAP2 SWAP1 PUSH1 0x0 MSTORE PUSH1 0x20 PUSH1 0x0 KECCAK256 SWAP1 JUMPDEST DUP2 SLOAD DUP2 MSTORE SWAP1 PUSH1 0x1 ADD SWAP1 PUSH1 0x20 ADD DUP1 DUP4 GT PUSH2 0xD56 JUMPI DUP3 SWAP1 SUB PUSH1 0x1F AND DUP3 ADD SWAP2 JUMPDEST POP POP POP POP POP SWAP1 POP SWAP1 JUMP JUMPDEST PUSH1 0x0 PUSH2 0xD8A CALLER DUP5 DUP5 PUSH2 0x1C4B JUMP JUMPDEST POP PUSH1 0x1 SWAP3 SWAP2 POP POP JUMP JUMPDEST PUSH1 0x5 SLOAD PUSH1 0x1 PUSH1 0x1 PUSH1 0xA0 SHL SUB AND CALLER EQ PUSH2 0xDC6 JUMPI PUSH1 0x40 MLOAD PUSH3 0x461BCD PUSH1 0xE5 SHL DUP2 MSTORE PUSH1 0x4 ADD PUSH2 0xDBD SWAP1 PUSH2 0x34F1 JUMP JUMPDEST PUSH1 0x40 MLOAD DUP1 SWAP2 SUB SWAP1 REVERT JUMPDEST PUSH1 0x11 DUP4 SWAP1 SSTORE PUSH1 0x12 DUP3 SWAP1 SSTORE PUSH1 0x13 DUP2 SWAP1 SSTORE DUP1 PUSH2 0xDE0 DUP4 DUP6 PUSH2 0x353C JUMP JUMPDEST PUSH2 0xDEA SWAP2 SWAP1 PUSH2 0x353C JUMP JUMPDEST PUSH1 0x10 SSTORE PUSH1 0x21 SLOAD PUSH1 0xFF AND ISZERO PUSH2 0xE09 JUMPI PUSH1 0xA PUSH2 0xE04 DUP4 DUP3 PUSH2 0x3554 JUMP JUMPDEST PUSH1 0x24 SSTORE POP JUMPDEST POP POP POP JUMP JUMPDEST PUSH1 0x5 SLOAD PUSH1 0x1 PUSH1 0x1 PUSH1 0xA0 SHL SUB AND CALLER EQ PUSH2 0xE38 JUMPI PUSH1 0x40 MLOAD PUSH3 0x461BCD PUSH1 0xE5 SHL DUP2 MSTORE PUSH1 0x4 ADD PUSH2 0xDBD SWAP1 PUSH2 0x34F1 JUMP JUMPDEST PUSH1 0x15 DUP4 SWAP1 SSTORE PUSH1 0x16 DUP3 SWAP1 SSTORE PUSH1 0x17 DUP2 SWAP1 SSTORE DUP1 PUSH2 0xE52 DUP4 DUP6 PUSH2 0x353C JUMP JUMPDEST PUSH2 0xE5C SWAP2 SWAP1 PUSH2 0x353C JUMP JUMPDEST PUSH1 0x14 SSTORE POP POP POP JUMP JUMPDEST PUSH1 0x5 SLOAD PUSH1 0x1 PUSH1 0x1 PUSH1 0xA0 SHL SUB AND CALLER EQ PUSH2 0xE8E JUMPI PUSH1 0x40 MLOAD PUSH3 0x461BCD PUSH1 0xE5 SHL DUP2 MSTORE PUSH1 0x4 ADD PUSH2 0xDBD SWAP1 PUSH2 0x34F1 JUMP JUMPDEST PUSH1 0xC DUP1 SLOAD PUSH3 0xFFFF00 NOT AND SWAP1 SSTORE PUSH1 0x0 PUSH1 0xD SSTORE JUMP JUMPDEST PUSH1 0x5 SLOAD PUSH1 0x1 PUSH1 0x1 PUSH1 0xA0 SHL SUB AND CALLER EQ PUSH2 0xECB JUMPI PUSH1 0x40 MLOAD PUSH3 0x461BCD PUSH1 0xE5 SHL DUP2 MSTORE PUSH1 0x4 ADD PUSH2 0xDBD SWAP1 PUSH2 0x34F1 JUMP JUMPDEST PUSH2 0xEDD DUP2 PUSH8 0xDE0B6B3A7640000 PUSH2 0x356B JUMP JUMPDEST PUSH1 0x9 SSTORE POP JUMP JUMPDEST PUSH1 0x0 PUSH2 0xEF0 DUP5 DUP5 DUP5 PUSH2 0x1D6F JUMP JUMPDEST PUSH1 0x1 PUSH1 0x1 PUSH1 0xA0 SHL SUB DUP5 AND PUSH1 0x0 SWAP1 DUP2 MSTORE PUSH1 0x1 PUSH1 0x20 SWAP1 DUP2 MSTORE PUSH1 0x40 DUP1 DUP4 KECCAK256 CALLER DUP5 MSTORE SWAP1 SWAP2 MSTORE SWAP1 KECCAK256 SLOAD DUP3 DUP2 LT ISZERO PUSH2 0xF75 JUMPI PUSH1 0x40 MLOAD PUSH3 0x461BCD PUSH1 0xE5 SHL DUP2 MSTORE PUSH1 0x20 PUSH1 0x4 DUP3 ADD MSTORE PUSH1 0x28 PUSH1 0x24 DUP3 ADD MSTORE PUSH32 0x45524332303A207472616E7366657220616D6F756E7420657863656564732061 PUSH1 0x44 DUP3 ADD MSTORE PUSH8 0x6C6C6F77616E6365 PUSH1 0xC0 SHL PUSH1 0x64 DUP3 ADD MSTORE PUSH1 0x84 ADD PUSH2 0xDBD JUMP JUMPDEST PUSH2 0xF82 DUP6 CALLER DUP6 DUP5 SUB PUSH2 0x1C4B JUMP JUMPDEST PUSH1 0x1 SWAP2 POP POP JUMPDEST SWAP4 SWAP3 POP POP POP JUMP JUMPDEST PUSH1 0x5 SLOAD PUSH1 0x1 PUSH1 0x1 PUSH1 0xA0 SHL SUB AND CALLER EQ PUSH2 0xFB9 JUMPI PUSH1 0x40 MLOAD PUSH3 0x461BCD PUSH1 0xE5 SHL DUP2 MSTORE PUSH1 0x4 ADD PUSH2 0xDBD SWAP1 PUSH2 0x34F1 JUMP JUMPDEST PUSH2 0xFCB DUP2 PUSH8 0xDE0B6B3A7640000 PUSH2 0x356B JUMP JUMPDEST PUSH1 0xB SSTORE POP JUMP JUMPDEST CALLER PUSH1 0x0 DUP2 DUP2 MSTORE PUSH1 0x1 PUSH1 0x20 SWAP1 DUP2 MSTORE PUSH1 0x40 DUP1 DUP4 KECCAK256 PUSH1 0x1 PUSH1 0x1 PUSH1 0xA0 SHL SUB DUP8 AND DUP5 MSTORE SWAP1 SWAP2 MSTORE DUP2 KECCAK256 SLOAD SWAP1 SWAP2 PUSH2 0xD8A SWAP2 DUP6 SWAP1 PUSH2 0x1008 SWAP1 DUP7 SWAP1 PUSH2 0x353C JUMP JUMPDEST PUSH2 0x1C4B JUMP JUMPDEST PUSH1 0x5 SLOAD PUSH1 0x0 SWAP1 PUSH1 0x1 PUSH1 0x1 PUSH1 0xA0 SHL SUB AND CALLER EQ PUSH2 0x103A JUMPI PUSH1 0x40 MLOAD PUSH3 0x461BCD PUSH1 0xE5 SHL DUP2 MSTORE PUSH1 0x4 ADD PUSH2 0xDBD SWAP1 PUSH2 0x34F1 JUMP JUMPDEST POP PUSH1 0x1 PUSH1 0x1 PUSH1 0xA0 SHL SUB DUP2 AND PUSH1 0x0 SWAP1 DUP2 MSTORE PUSH1 0x1E PUSH1 0x20 MSTORE PUSH1 0x40 SWAP1 KECCAK256 DUP1 SLOAD PUSH1 0xFF NOT AND PUSH1 0x1 SWAP1 DUP2 OR SWAP1 SWAP2 SSTORE JUMPDEST SWAP2 SWAP1 POP JUMP JUMPDEST PUSH1 0x5 SLOAD PUSH1 0x1 PUSH1 0x1 PUSH1 0xA0 SHL SUB AND CALLER EQ PUSH2 0x1091 JUMPI PUSH1 0x40 MLOAD PUSH3 0x461BCD PUSH1 0xE5 SHL DUP2 MSTORE PUSH1 0x4 ADD PUSH2 0xDBD SWAP1 PUSH2 0x34F1 JUMP JUMPDEST PUSH1 0x21 DUP1 SLOAD PUSH1 0xFF NOT AND PUSH1 0x1 OR SWAP1 SSTORE NUMBER PUSH1 0x25 SSTORE PUSH1 0x22 SWAP3 SWAP1 SWAP3 SSTORE PUSH1 0x23 SSTORE PUSH1 0x24 SSTORE JUMP JUMPDEST PUSH1 0x5 SLOAD PUSH1 0x0 SWAP1 PUSH1 0x1 PUSH1 0x1 PUSH1 0xA0 SHL SUB AND CALLER EQ PUSH2 0x10DD JUMPI PUSH1 0x40 MLOAD PUSH3 0x461BCD PUSH1 0xE5 SHL DUP2 MSTORE PUSH1 0x4 ADD PUSH2 0xDBD SWAP1 PUSH2 0x34F1 JUMP JUMPDEST PUSH1 0x0 JUMPDEST DUP3 MLOAD DUP2 LT ISZERO PUSH2 0xD8A JUMPI PUSH1 0x1 PUSH1 0x1E PUSH1 0x0 DUP6 DUP5 DUP2 MLOAD DUP2 LT PUSH2 0x1101 JUMPI PUSH2 0x1101 PUSH2 0x358A JUMP JUMPDEST PUSH1 0x20 SWAP1 DUP2 MUL SWAP2 SWAP1 SWAP2 ADD DUP2 ADD MLOAD PUSH1 0x1 PUSH1 0x1 PUSH1 0xA0 SHL SUB AND DUP3 MSTORE DUP2 ADD SWAP2 SWAP1 SWAP2 MSTORE PUSH1 0x40 ADD PUSH1 0x0 KECCAK256 DUP1 SLOAD PUSH1 0xFF NOT AND SWAP2 ISZERO ISZERO SWAP2 SWAP1 SWAP2 OR SWAP1 SSTORE DUP1 PUSH2 0x113D DUP2 PUSH2 0x35A0 JUMP JUMPDEST SWAP2 POP POP PUSH2 0x10E0 JUMP JUMPDEST PUSH1 0x5 SLOAD PUSH1 0x1 PUSH1 0x1 PUSH1 0xA0 SHL SUB AND CALLER EQ PUSH2 0x116F JUMPI PUSH1 0x40 MLOAD PUSH3 0x461BCD PUSH1 0xE5 SHL DUP2 MSTORE PUSH1 0x4 ADD PUSH2 0xDBD SWAP1 PUSH2 0x34F1 JUMP JUMPDEST PUSH1 0x7 SLOAD PUSH1 0x40 MLOAD PUSH1 0x1 PUSH1 0x1 PUSH1 0xA0 SHL SUB SWAP2 DUP3 AND SWAP2 DUP4 AND SWAP1 PUSH32 0xA751787977EEB3902E30E1D19CA00C6AD274A1F622C31A206E32366700B05674 SWAP1 PUSH1 0x0 SWAP1 LOG3 PUSH1 0x7 DUP1 SLOAD PUSH1 0x1 PUSH1 0x1 PUSH1 0xA0 SHL SUB NOT AND PUSH1 0x1 PUSH1 0x1 PUSH1 0xA0 SHL SUB SWAP3 SWAP1 SWAP3 AND SWAP2 SWAP1 SWAP2 OR SWAP1 SSTORE JUMP JUMPDEST PUSH1 0x5 SLOAD PUSH1 0x1 PUSH1 0x1 PUSH1 0xA0 SHL SUB AND CALLER EQ PUSH2 0x11F6 JUMPI PUSH1 0x40 MLOAD PUSH3 0x461BCD PUSH1 0xE5 SHL DUP2 MSTORE PUSH1 0x4 ADD PUSH2 0xDBD SWAP1 PUSH2 0x34F1 JUMP JUMPDEST PUSH2 0x1200 PUSH1 0x0 PUSH2 0x28B4 JUMP JUMPDEST JUMP JUMPDEST PUSH1 0x5 SLOAD PUSH1 0x1 PUSH1 0x1 PUSH1 0xA0 SHL SUB AND CALLER EQ PUSH2 0x122C JUMPI PUSH1 0x40 MLOAD PUSH3 0x461BCD PUSH1 0xE5 SHL DUP2 MSTORE PUSH1 0x4 ADD PUSH2 0xDBD SWAP1 PUSH2 0x34F1 JUMP JUMPDEST PUSH1 0x1 PUSH1 0x1 PUSH1 0xA0 SHL SUB SWAP2 SWAP1 SWAP2 AND PUSH1 0x0 SWAP1 DUP2 MSTORE PUSH1 0x1C PUSH1 0x20 MSTORE PUSH1 0x40 SWAP1 KECCAK256 DUP1 SLOAD PUSH1 0xFF NOT AND SWAP2 ISZERO ISZERO SWAP2 SWAP1 SWAP2 OR SWAP1 SSTORE JUMP JUMPDEST PUSH1 0x5 SLOAD PUSH1 0x1 PUSH1 0x1 PUSH1 0xA0 SHL SUB AND CALLER EQ PUSH2 0x1281 JUMPI PUSH1 0x40 MLOAD PUSH3 0x461BCD PUSH1 0xE5 SHL DUP2 MSTORE PUSH1 0x4 ADD PUSH2 0xDBD SWAP1 PUSH2 0x34F1 JUMP JUMPDEST PUSH1 0x1 PUSH1 0x1 PUSH1 0xA0 SHL SUB DUP2 AND EXTCODESIZE PUSH2 0x12A8 JUMPI PUSH1 0x40 MLOAD PUSH3 0x461BCD PUSH1 0xE5 SHL DUP2 MSTORE PUSH1 0x4 ADD PUSH2 0xDBD SWAP1 PUSH2 0x35BB JUMP JUMPDEST PUSH1 0x1 PUSH1 0x1 PUSH1 0xA0 SHL SUB AND PUSH1 0x0 SWAP1 DUP2 MSTORE PUSH1 0x1D PUSH1 0x20 MSTORE PUSH1 0x40 SWAP1 KECCAK256 DUP1 SLOAD PUSH1 0xFF NOT AND PUSH1 0x1 OR SWAP1 SSTORE JUMP JUMPDEST PUSH1 0x5 SLOAD PUSH1 0x0 SWAP1 PUSH1 0x1 PUSH1 0x1 PUSH1 0xA0 SHL SUB AND CALLER EQ PUSH2 0x12F9 JUMPI PUSH1 0x40 MLOAD PUSH3 0x461BCD PUSH1 0xE5 SHL DUP2 MSTORE PUSH1 0x4 ADD PUSH2 0xDBD SWAP1 PUSH2 0x34F1 JUMP JUMPDEST POP PUSH1 0x1 PUSH1 0x1 PUSH1 0xA0 SHL SUB AND PUSH1 0x0 SWAP1 DUP2 MSTORE PUSH1 0x1E PUSH1 0x20 MSTORE PUSH1 0x40 SWAP1 KECCAK256 DUP1 SLOAD PUSH1 0xFF NOT AND SWAP1 SSTORE PUSH1 0x1 SWAP1 JUMP JUMPDEST PUSH1 0x5 SLOAD PUSH1 0x1 PUSH1 0x1 PUSH1 0xA0 SHL SUB AND CALLER EQ PUSH2 0x1348 JUMPI PUSH1 0x40 MLOAD PUSH3 0x461BCD PUSH1 0xE5 SHL DUP2 MSTORE PUSH1 0x4 ADD PUSH2 0xDBD SWAP1 PUSH2 0x34F1 JUMP JUMPDEST PUSH1 0x21 DUP1 SLOAD PUSH1 0xFF NOT AND SWAP1 SSTORE JUMP JUMPDEST PUSH1 0x5 SLOAD PUSH1 0x1 PUSH1 0x1 PUSH1 0xA0 SHL SUB AND CALLER EQ PUSH2 0x137E JUMPI PUSH1 0x40 MLOAD PUSH3 0x461BCD PUSH1 0xE5 SHL DUP2 MSTORE PUSH1 0x4 ADD PUSH2 0xDBD SWAP1 PUSH2 0x34F1 JUMP JUMPDEST PUSH1 0xC DUP1 SLOAD PUSH3 0xFFFF00 NOT AND PUSH3 0x10100 OR SWAP1 SSTORE NUMBER PUSH1 0xD SSTORE JUMP JUMPDEST PUSH1 0x5 SLOAD PUSH1 0x0 SWAP1 PUSH1 0x1 PUSH1 0x1 PUSH1 0xA0 SHL SUB AND CALLER EQ PUSH2 0x13C2 JUMPI PUSH1 0x40 MLOAD PUSH3 0x461BCD PUSH1 0xE5 SHL DUP2 MSTORE PUSH1 0x4 ADD PUSH2 0xDBD SWAP1 PUSH2 0x34F1 JUMP JUMPDEST POP PUSH1 0x1F SSTORE PUSH1 0x1 SWAP1 JUMP JUMPDEST PUSH1 0x5 SLOAD PUSH1 0x1 PUSH1 0x1 PUSH1 0xA0 SHL SUB AND CALLER EQ PUSH2 0x13F5 JUMPI PUSH1 0x40 MLOAD PUSH3 0x461BCD PUSH1 0xE5 SHL DUP2 MSTORE PUSH1 0x4 ADD PUSH2 0xDBD SWAP1 PUSH2 0x34F1 JUMP JUMPDEST PUSH1 0xC DUP1 SLOAD SWAP2 ISZERO ISZERO PUSH3 0x10000 MUL PUSH3 0xFF0000 NOT SWAP1 SWAP3 AND SWAP2 SWAP1 SWAP2 OR SWAP1 SSTORE JUMP JUMPDEST PUSH1 0x5 SLOAD PUSH1 0x1 PUSH1 0x1 PUSH1 0xA0 SHL SUB AND CALLER EQ PUSH2 0x143B JUMPI PUSH1 0x40 MLOAD PUSH3 0x461BCD PUSH1 0xE5 SHL DUP2 MSTORE PUSH1 0x4 ADD PUSH2 0xDBD SWAP1 PUSH2 0x34F1 JUMP JUMPDEST PUSH1 0x0 DUP2 PUSH1 0x1 PUSH1 0x1 PUSH1 0xA0 SHL SUB AND SELFBALANCE PUSH1 0x40 MLOAD PUSH1 0x0 PUSH1 0x40 MLOAD DUP1 DUP4 SUB DUP2 DUP6 DUP8 GAS CALL SWAP3 POP POP POP RETURNDATASIZE DUP1 PUSH1 0x0 DUP2 EQ PUSH2 0x1488 JUMPI PUSH1 0x40 MLOAD SWAP2 POP PUSH1 0x1F NOT PUSH1 0x3F RETURNDATASIZE ADD AND DUP3 ADD PUSH1 0x40 MSTORE RETURNDATASIZE DUP3 MSTORE RETURNDATASIZE PUSH1 0x0 PUSH1 0x20 DUP5 ADD RETURNDATACOPY PUSH2 0x148D JUMP JUMPDEST PUSH1 0x60 SWAP2 POP JUMPDEST POP POP SWAP1 POP DUP1 PUSH2 0x149B JUMPI PUSH1 0x0 DUP1 REVERT JUMPDEST POP POP JUMP JUMPDEST PUSH1 0x60 PUSH1 0x4 DUP1 SLOAD PUSH2 0xCFA SWAP1 PUSH2 0x34B6 JUMP JUMPDEST PUSH1 0x5 SLOAD PUSH1 0x1 PUSH1 0x1 PUSH1 0xA0 SHL SUB AND CALLER EQ PUSH2 0x14D8 JUMPI PUSH1 0x40 MLOAD PUSH3 0x461BCD PUSH1 0xE5 SHL DUP2 MSTORE PUSH1 0x4 ADD PUSH2 0xDBD SWAP1 PUSH2 0x34F1 JUMP JUMPDEST PUSH1 0x6 SLOAD PUSH1 0x1 PUSH1 0x1 PUSH1 0xA0 SHL SUB DUP4 DUP2 AND SWAP2 AND EQ ISZERO PUSH2 0x155C JUMPI PUSH1 0x40 MLOAD PUSH3 0x461BCD PUSH1 0xE5 SHL DUP2 MSTORE PUSH1 0x20 PUSH1 0x4 DUP3 ADD MSTORE PUSH1 0x39 PUSH1 0x24 DUP3 ADD MSTORE PUSH32 0x54686520706169722063616E6E6F742062652072656D6F7665642066726F6D20 PUSH1 0x44 DUP3 ADD MSTORE PUSH32 0x6175746F6D617465644D61726B65744D616B6572506169727300000000000000 PUSH1 0x64 DUP3 ADD MSTORE PUSH1 0x84 ADD PUSH2 0xDBD JUMP JUMPDEST PUSH2 0x149B DUP3 DUP3 PUSH2 0x2906 JUMP JUMPDEST CALLER PUSH1 0x0 SWAP1 DUP2 MSTORE PUSH1 0x1 PUSH1 0x20 SWAP1 DUP2 MSTORE PUSH1 0x40 DUP1 DUP4 KECCAK256 PUSH1 0x1 PUSH1 0x1 PUSH1 0xA0 SHL SUB DUP7 AND DUP5 MSTORE SWAP1 SWAP2 MSTORE DUP2 KECCAK256 SLOAD DUP3 DUP2 LT ISZERO PUSH2 0x15E8 JUMPI PUSH1 0x40 MLOAD PUSH3 0x461BCD PUSH1 0xE5 SHL DUP2 MSTORE PUSH1 0x20 PUSH1 0x4 DUP3 ADD MSTORE PUSH1 0x25 PUSH1 0x24 DUP3 ADD MSTORE PUSH32 0x45524332303A2064656372656173656420616C6C6F77616E63652062656C6F77 PUSH1 0x44 DUP3 ADD MSTORE PUSH5 0x207A65726F PUSH1 0xD8 SHL PUSH1 0x64 DUP3 ADD MSTORE PUSH1 0x84 ADD PUSH2 0xDBD JUMP JUMPDEST PUSH2 0x15F5 CALLER DUP6 DUP6 DUP5 SUB PUSH2 0x1C4B JUMP JUMPDEST POP PUSH1 0x1 SWAP4 SWAP3 POP POP POP JUMP JUMPDEST PUSH1 0x5 SLOAD PUSH1 0x1 PUSH1 0x1 PUSH1 0xA0 SHL SUB AND CALLER EQ PUSH2 0x1629 JUMPI PUSH1 0x40 MLOAD PUSH3 0x461BCD PUSH1 0xE5 SHL DUP2 MSTORE PUSH1 0x4 ADD PUSH2 0xDBD SWAP1 PUSH2 0x34F1 JUMP JUMPDEST PUSH1 0x8 SLOAD PUSH1 0x40 MLOAD PUSH1 0x1 PUSH1 0x1 PUSH1 0xA0 SHL SUB SWAP2 DUP3 AND SWAP2 DUP4 AND SWAP1 PUSH32 0x15E571905A1C816AC9AD091C2B82079DA1AD3668D345E3894C424C5E5B47D97B SWAP1 PUSH1 0x0 SWAP1 LOG3 PUSH1 0x8 DUP1 SLOAD PUSH1 0x1 PUSH1 0x1 PUSH1 0xA0 SHL SUB NOT AND PUSH1 0x1 PUSH1 0x1 PUSH1 0xA0 SHL SUB SWAP3 SWAP1 SWAP3 AND SWAP2 SWAP1 SWAP2 OR SWAP1 SSTORE JUMP JUMPDEST PUSH1 0x5 SLOAD PUSH1 0x1 PUSH1 0x1 PUSH1 0xA0 SHL SUB AND CALLER EQ PUSH2 0x16B0 JUMPI PUSH1 0x40 MLOAD PUSH3 0x461BCD PUSH1 0xE5 SHL DUP2 MSTORE PUSH1 0x4 ADD PUSH2 0xDBD SWAP1 PUSH2 0x34F1 JUMP JUMPDEST PUSH1 0x40 MLOAD PUSH4 0x70A08231 PUSH1 0xE0 SHL DUP2 MSTORE ADDRESS PUSH1 0x4 DUP3 ADD MSTORE PUSH1 0x0 SWAP1 PUSH1 0x1 PUSH1 0x1 PUSH1 0xA0 SHL SUB DUP4 AND SWAP1 PUSH4 0x70A08231 SWAP1 PUSH1 0x24 ADD PUSH1 0x20 PUSH1 0x40 MLOAD DUP1 DUP4 SUB DUP2 DUP7 GAS STATICCALL ISZERO DUP1 ISZERO PUSH2 0x16F7 JUMPI RETURNDATASIZE PUSH1 0x0 DUP1 RETURNDATACOPY RETURNDATASIZE PUSH1 0x0 REVERT JUMPDEST POP POP POP POP PUSH1 0x40 MLOAD RETURNDATASIZE PUSH1 0x1F NOT PUSH1 0x1F DUP3 ADD AND DUP3 ADD DUP1 PUSH1 0x40 MSTORE POP DUP2 ADD SWAP1 PUSH2 0x171B SWAP2 SWAP1 PUSH2 0x35FC JUMP JUMPDEST SWAP1 POP PUSH2 0xE09 PUSH1 0x1 PUSH1 0x1 PUSH1 0xA0 SHL SUB DUP4 AND DUP5 DUP4 PUSH2 0x2959 JUMP JUMPDEST PUSH1 0x0 PUSH2 0xD8A CALLER DUP5 DUP5 PUSH2 0x1D6F JUMP JUMPDEST PUSH1 0x5 SLOAD PUSH1 0x0 SWAP1 PUSH1 0x1 PUSH1 0x1 PUSH1 0xA0 SHL SUB AND CALLER EQ PUSH2 0x176B JUMPI PUSH1 0x40 MLOAD PUSH3 0x461BCD PUSH1 0xE5 SHL DUP2 MSTORE PUSH1 0x4 ADD PUSH2 0xDBD SWAP1 PUSH2 0x34F1 JUMP JUMPDEST POP PUSH1 0xA SSTORE PUSH1 0x1 SWAP1 JUMP JUMPDEST PUSH1 0x5 SLOAD PUSH1 0x1 PUSH1 0x1 PUSH1 0xA0 SHL SUB AND CALLER EQ PUSH2 0x179E JUMPI PUSH1 0x40 MLOAD PUSH3 0x461BCD PUSH1 0xE5 SHL DUP2 MSTORE PUSH1 0x4 ADD PUSH2 0xDBD SWAP1 PUSH2 0x34F1 JUMP JUMPDEST PUSH1 0x1 PUSH1 0x1 PUSH1 0xA0 SHL SUB DUP3 AND PUSH1 0x0 DUP2 DUP2 MSTORE PUSH1 0x1B PUSH1 0x20 SWAP1 DUP2 MSTORE PUSH1 0x40 SWAP2 DUP3 SWAP1 KECCAK256 DUP1 SLOAD PUSH1 0xFF NOT AND DUP6 ISZERO ISZERO SWAP1 DUP2 OR SWAP1 SWAP2 SSTORE SWAP2 MLOAD SWAP2 DUP3 MSTORE PUSH32 0x9D8F7706EA1113D1A167B526ECA956215946DD36CC7DF39EB16180222D8B5DF7 SWAP2 ADD PUSH1 0x40 MLOAD DUP1 SWAP2 SUB SWAP1 LOG2 POP POP JUMP JUMPDEST PUSH1 0x5 SLOAD PUSH1 0x0 SWAP1 PUSH1 0x1 PUSH1 0x1 PUSH1 0xA0 SHL SUB AND CALLER EQ PUSH2 0x182A JUMPI PUSH1 0x40 MLOAD PUSH3 0x461BCD PUSH1 0xE5 SHL DUP2 MSTORE PUSH1 0x4 ADD PUSH2 0xDBD SWAP1 PUSH2 0x34F1 JUMP JUMPDEST PUSH1 0x0 JUMPDEST DUP3 MLOAD DUP2 LT ISZERO PUSH2 0xD8A JUMPI PUSH1 0x0 PUSH1 0x1E PUSH1 0x0 DUP6 DUP5 DUP2 MLOAD DUP2 LT PUSH2 0x184E JUMPI PUSH2 0x184E PUSH2 0x358A JUMP JUMPDEST PUSH1 0x20 SWAP1 DUP2 MUL SWAP2 SWAP1 SWAP2 ADD DUP2 ADD MLOAD PUSH1 0x1 PUSH1 0x1 PUSH1 0xA0 SHL SUB AND DUP3 MSTORE DUP2 ADD SWAP2 SWAP1 SWAP2 MSTORE PUSH1 0x40 ADD PUSH1 0x0 KECCAK256 DUP1 SLOAD PUSH1 0xFF NOT AND SWAP2 ISZERO ISZERO SWAP2 SWAP1 SWAP2 OR SWAP1 SSTORE DUP1 PUSH2 0x188A DUP2 PUSH2 0x35A0 JUMP JUMPDEST SWAP2 POP POP PUSH2 0x182D JUMP JUMPDEST PUSH1 0x5 SLOAD PUSH1 0x0 SWAP1 PUSH1 0x1 PUSH1 0x1 PUSH1 0xA0 SHL SUB AND CALLER EQ PUSH2 0x18BF JUMPI PUSH1 0x40 MLOAD PUSH3 0x461BCD PUSH1 0xE5 SHL DUP2 MSTORE PUSH1 0x4 ADD PUSH2 0xDBD SWAP1 PUSH2 0x34F1 JUMP JUMPDEST POP PUSH1 0xC DUP1 SLOAD PUSH1 0xFF NOT AND SWAP2 ISZERO ISZERO SWAP2 SWAP1 SWAP2 OR SWAP1 SSTORE PUSH1 0x1 SWAP1 JUMP JUMPDEST PUSH1 0x5 SLOAD PUSH1 0x0 SWAP1 PUSH1 0x1 PUSH1 0x1 PUSH1 0xA0 SHL SUB AND CALLER EQ PUSH2 0x1903 JUMPI PUSH1 0x40 MLOAD PUSH3 0x461BCD PUSH1 0xE5 SHL DUP2 MSTORE PUSH1 0x4 ADD PUSH2 0xDBD SWAP1 PUSH2 0x34F1 JUMP JUMPDEST POP PUSH1 0xF DUP1 SLOAD PUSH1 0xFF NOT AND SWAP1 SSTORE PUSH1 0x1 SWAP1 JUMP JUMPDEST PUSH1 0x5 SLOAD PUSH1 0x0 SWAP1 PUSH1 0x1 PUSH1 0x1 PUSH1 0xA0 SHL SUB AND CALLER EQ PUSH2 0x1940 JUMPI PUSH1 0x40 MLOAD PUSH3 0x461BCD PUSH1 0xE5 SHL DUP2 MSTORE PUSH1 0x4 ADD PUSH2 0xDBD SWAP1 PUSH2 0x34F1 JUMP JUMPDEST POP PUSH1 0xF DUP1 SLOAD PUSH1 0xFF NOT AND PUSH1 0x1 SWAP1 DUP2 OR SWAP1 SWAP2 SSTORE SWAP1 JUMP JUMPDEST PUSH1 0x5 SLOAD PUSH1 0x1 PUSH1 0x1 PUSH1 0xA0 SHL SUB AND CALLER EQ PUSH2 0x197E JUMPI PUSH1 0x40 MLOAD PUSH3 0x461BCD PUSH1 0xE5 SHL DUP2 MSTORE PUSH1 0x4 ADD PUSH2 0xDBD SWAP1 PUSH2 0x34F1 JUMP JUMPDEST PUSH1 0x1 PUSH1 0x1 PUSH1 0xA0 SHL SUB DUP2 AND PUSH2 0x19E3 JUMPI PUSH1 0x40 MLOAD PUSH3 0x461BCD PUSH1 0xE5 SHL DUP2 MSTORE PUSH1 0x20 PUSH1 0x4 DUP3 ADD MSTORE PUSH1 0x26 PUSH1 0x24 DUP3 ADD MSTORE PUSH32 0x4F776E61626C653A206E6577206F776E657220697320746865207A65726F2061 PUSH1 0x44 DUP3 ADD MSTORE PUSH6 0x646472657373 PUSH1 0xD0 SHL PUSH1 0x64 DUP3 ADD MSTORE PUSH1 0x84 ADD PUSH2 0xDBD JUMP JUMPDEST PUSH2 0x19EC DUP2 PUSH2 0x28B4 JUMP JUMPDEST POP JUMP JUMPDEST PUSH1 0x5 SLOAD PUSH1 0x1 PUSH1 0x1 PUSH1 0xA0 SHL SUB AND CALLER EQ PUSH2 0x1A19 JUMPI PUSH1 0x40 MLOAD PUSH3 0x461BCD PUSH1 0xE5 SHL DUP2 MSTORE PUSH1 0x4 ADD PUSH2 0xDBD SWAP1 PUSH2 0x34F1 JUMP JUMPDEST PUSH1 0x40 DUP1 MLOAD PUSH1 0x2 DUP1 DUP3 MSTORE PUSH1 0x60 DUP3 ADD DUP4 MSTORE PUSH1 0x0 SWAP3 PUSH1 0x20 DUP4 ADD SWAP1 DUP1 CALLDATASIZE DUP4 CALLDATACOPY ADD SWAP1 POP POP SWAP1 POP PUSH32 0x0 PUSH1 0x1 PUSH1 0x1 PUSH1 0xA0 SHL SUB AND PUSH4 0xAD5C4648 PUSH1 0x40 MLOAD DUP2 PUSH4 0xFFFFFFFF AND PUSH1 0xE0 SHL DUP2 MSTORE PUSH1 0x4 ADD PUSH1 0x20 PUSH1 0x40 MLOAD DUP1 DUP4 SUB DUP2 DUP7 GAS STATICCALL ISZERO DUP1 ISZERO PUSH2 0x1A98 JUMPI RETURNDATASIZE PUSH1 0x0 DUP1 RETURNDATACOPY RETURNDATASIZE PUSH1 0x0 REVERT JUMPDEST POP POP POP POP PUSH1 0x40 MLOAD RETURNDATASIZE PUSH1 0x1F NOT PUSH1 0x1F DUP3 ADD AND DUP3 ADD DUP1 PUSH1 0x40 MSTORE POP DUP2 ADD SWAP1 PUSH2 0x1ABC SWAP2 SWAP1 PUSH2 0x3615 JUMP JUMPDEST DUP2 PUSH1 0x0 DUP2 MLOAD DUP2 LT PUSH2 0x1ACF JUMPI PUSH2 0x1ACF PUSH2 0x358A JUMP JUMPDEST PUSH1 0x20 MUL PUSH1 0x20 ADD ADD SWAP1 PUSH1 0x1 PUSH1 0x1 PUSH1 0xA0 SHL SUB AND SWAP1 DUP2 PUSH1 0x1 PUSH1 0x1 PUSH1 0xA0 SHL SUB AND DUP2 MSTORE POP POP ADDRESS DUP2 PUSH1 0x1 DUP2 MLOAD DUP2 LT PUSH2 0x1B03 JUMPI PUSH2 0x1B03 PUSH2 0x358A JUMP JUMPDEST PUSH1 0x1 PUSH1 0x1 PUSH1 0xA0 SHL SUB SWAP3 DUP4 AND PUSH1 0x20 SWAP2 DUP3 MUL SWAP3 SWAP1 SWAP3 ADD ADD MSTORE PUSH1 0x40 MLOAD PUSH4 0xB6F9DE95 PUSH1 0xE0 SHL DUP2 MSTORE PUSH32 0x0 SWAP1 SWAP2 AND SWAP1 PUSH4 0xB6F9DE95 SWAP1 DUP5 SWAP1 PUSH2 0x1B6A SWAP1 PUSH1 0x0 SWAP1 DUP7 SWAP1 PUSH2 0xDEAD SWAP1 TIMESTAMP SWAP1 PUSH1 0x4 ADD PUSH2 0x3676 JUMP JUMPDEST PUSH1 0x0 PUSH1 0x40 MLOAD DUP1 DUP4 SUB DUP2 DUP6 DUP9 DUP1 EXTCODESIZE ISZERO DUP1 ISZERO PUSH2 0x1B83 JUMPI PUSH1 0x0 DUP1 REVERT JUMPDEST POP GAS CALL ISZERO DUP1 ISZERO PUSH2 0x1B97 JUMPI RETURNDATASIZE PUSH1 0x0 DUP1 RETURNDATACOPY RETURNDATASIZE PUSH1 0x0 REVERT JUMPDEST POP POP POP POP POP PUSH32 0xA017C1567CFCDD2D750A8C01E39FE2A846BCEBC293C7D078477014D684820568 DUP3 PUSH1 0x40 MLOAD PUSH2 0x1BCD SWAP2 DUP2 MSTORE PUSH1 0x20 ADD SWAP1 JUMP JUMPDEST PUSH1 0x40 MLOAD DUP1 SWAP2 SUB SWAP1 LOG1 POP POP JUMP JUMPDEST PUSH1 0x5 SLOAD PUSH1 0x1 PUSH1 0x1 PUSH1 0xA0 SHL SUB AND CALLER EQ PUSH2 0x1C03 JUMPI PUSH1 0x40 MLOAD PUSH3 0x461BCD PUSH1 0xE5 SHL DUP2 MSTORE PUSH1 0x4 ADD PUSH2 0xDBD SWAP1 PUSH2 0x34F1 JUMP JUMPDEST PUSH1 0x1 PUSH1 0x1 PUSH1 0xA0 SHL SUB DUP2 AND EXTCODESIZE PUSH2 0x1C2A JUMPI PUSH1 0x40 MLOAD PUSH3 0x461BCD PUSH1 0xE5 SHL DUP2 MSTORE PUSH1 0x4 ADD PUSH2 0xDBD SWAP1 PUSH2 0x35BB JUMP JUMPDEST PUSH1 0x1 PUSH1 0x1 PUSH1 0xA0 SHL SUB AND PUSH1 0x0 SWAP1 DUP2 MSTORE PUSH1 0x1D PUSH1 0x20 MSTORE PUSH1 0x40 SWAP1 KECCAK256 DUP1 SLOAD PUSH1 0xFF NOT AND SWAP1 SSTORE JUMP JUMPDEST PUSH1 0x1 PUSH1 0x1 PUSH1 0xA0 SHL SUB DUP4 AND PUSH2 0x1CAD JUMPI PUSH1 0x40 MLOAD PUSH3 0x461BCD PUSH1 0xE5 SHL DUP2 MSTORE PUSH1 0x20 PUSH1 0x4 DUP3 ADD MSTORE PUSH1 0x24 DUP1 DUP3 ADD MSTORE PUSH32 0x45524332303A20617070726F76652066726F6D20746865207A65726F20616464 PUSH1 0x44 DUP3 ADD MSTORE PUSH4 0x72657373 PUSH1 0xE0 SHL PUSH1 0x64 DUP3 ADD MSTORE PUSH1 0x84 ADD PUSH2 0xDBD JUMP JUMPDEST PUSH1 0x1 PUSH1 0x1 PUSH1 0xA0 SHL SUB DUP3 AND PUSH2 0x1D0E JUMPI PUSH1 0x40 MLOAD PUSH3 0x461BCD PUSH1 0xE5 SHL DUP2 MSTORE PUSH1 0x20 PUSH1 0x4 DUP3 ADD MSTORE PUSH1 0x22 PUSH1 0x24 DUP3 ADD MSTORE PUSH32 0x45524332303A20617070726F766520746F20746865207A65726F206164647265 PUSH1 0x44 DUP3 ADD MSTORE PUSH2 0x7373 PUSH1 0xF0 SHL PUSH1 0x64 DUP3 ADD MSTORE PUSH1 0x84 ADD PUSH2 0xDBD JUMP JUMPDEST PUSH1 0x1 PUSH1 0x1 PUSH1 0xA0 SHL SUB DUP4 DUP2 AND PUSH1 0x0 DUP2 DUP2 MSTORE PUSH1 0x1 PUSH1 0x20 SWAP1 DUP2 MSTORE PUSH1 0x40 DUP1 DUP4 KECCAK256 SWAP5 DUP8 AND DUP1 DUP5 MSTORE SWAP5 DUP3 MSTORE SWAP2 DUP3 SWAP1 KECCAK256 DUP6 SWAP1 SSTORE SWAP1 MLOAD DUP5 DUP2 MSTORE PUSH32 0x8C5BE1E5EBEC7D5BD14F71427D1E84F3DD0314C0F7B2291E5B200AC8C7C3B925 SWAP2 ADD PUSH1 0x40 MLOAD DUP1 SWAP2 SUB SWAP1 LOG3 POP POP POP JUMP JUMPDEST CALLER PUSH1 0x0 SWAP1 DUP2 MSTORE PUSH1 0x1D PUSH1 0x20 MSTORE PUSH1 0x40 SWAP1 KECCAK256 SLOAD PUSH1 0xFF AND ISZERO PUSH2 0x283F JUMPI PUSH1 0x1 PUSH1 0x1 PUSH1 0xA0 SHL SUB DUP4 AND PUSH2 0x1DAD JUMPI PUSH1 0x40 MLOAD PUSH3 0x461BCD PUSH1 0xE5 SHL DUP2 MSTORE PUSH1 0x4 ADD PUSH2 0xDBD SWAP1 PUSH2 0x36AB JUMP JUMPDEST PUSH1 0x1 PUSH1 0x1 PUSH1 0xA0 SHL SUB DUP3 AND PUSH2 0x1DD3 JUMPI PUSH1 0x40 MLOAD PUSH3 0x461BCD PUSH1 0xE5 SHL DUP2 MSTORE PUSH1 0x4 ADD PUSH2 0xDBD SWAP1 PUSH2 0x36F0 JUMP JUMPDEST PUSH1 0x1 PUSH1 0x1 PUSH1 0xA0 SHL SUB DUP4 AND PUSH1 0x0 SWAP1 DUP2 MSTORE PUSH1 0x1E PUSH1 0x20 MSTORE PUSH1 0x40 SWAP1 KECCAK256 SLOAD PUSH1 0xFF AND DUP1 PUSH2 0x1E12 JUMPI POP PUSH1 0x1 PUSH1 0x1 PUSH1 0xA0 SHL SUB DUP3 AND PUSH1 0x0 SWAP1 DUP2 MSTORE PUSH1 0x1E PUSH1 0x20 MSTORE PUSH1 0x40 SWAP1 KECCAK256 SLOAD PUSH1 0xFF AND JUMPDEST ISZERO PUSH2 0x1E60 JUMPI PUSH1 0x0 PUSH1 0x64 PUSH1 0x1F SLOAD DUP4 PUSH2 0x1E29 SWAP2 SWAP1 PUSH2 0x356B JUMP JUMPDEST PUSH2 0x1E33 SWAP2 SWAP1 PUSH2 0x3733 JUMP JUMPDEST SWAP1 POP PUSH1 0x0 PUSH2 0x1E41 DUP3 DUP5 PUSH2 0x3554 JUMP JUMPDEST SWAP1 POP PUSH2 0x1E4E DUP6 ADDRESS DUP5 PUSH2 0x29AB JUMP JUMPDEST PUSH2 0x1E59 DUP6 DUP6 DUP4 PUSH2 0x29AB JUMP JUMPDEST POP POP POP POP POP JUMP JUMPDEST DUP1 PUSH2 0x1E71 JUMPI PUSH2 0xE09 DUP4 DUP4 PUSH1 0x0 PUSH2 0x29AB JUMP JUMPDEST PUSH1 0x21 SLOAD PUSH1 0xFF AND DUP1 ISZERO PUSH2 0x1E85 JUMPI POP PUSH1 0x0 PUSH1 0x24 SLOAD GT JUMPDEST DUP1 ISZERO PUSH2 0x1E93 JUMPI POP PUSH1 0x0 PUSH1 0x23 SLOAD GT JUMPDEST DUP1 ISZERO PUSH2 0x1EA1 JUMPI POP PUSH1 0x0 PUSH1 0x22 SLOAD GT JUMPDEST ISZERO PUSH2 0x1FBF JUMPI PUSH1 0x23 SLOAD PUSH1 0x25 SLOAD NUMBER SWAP2 SWAP1 PUSH2 0x1EB9 SWAP1 DUP4 PUSH2 0x3554 JUMP JUMPDEST GT ISZERO PUSH2 0x1FBD JUMPI PUSH1 0x0 PUSH1 0x22 SLOAD PUSH1 0x23 SLOAD PUSH1 0x25 SLOAD PUSH2 0x1ED4 SWAP2 SWAP1 PUSH2 0x3733 JUMP JUMPDEST PUSH2 0x1EDE SWAP2 SWAP1 PUSH2 0x356B JUMP JUMPDEST PUSH2 0x1EE8 SWAP1 DUP4 PUSH2 0x3554 JUMP JUMPDEST SWAP1 POP PUSH1 0x24 SLOAD PUSH1 0x11 SLOAD PUSH2 0x1EFA SWAP2 SWAP1 PUSH2 0x353C JUMP JUMPDEST DUP2 LT PUSH2 0x1F36 JUMPI PUSH1 0x21 DUP1 SLOAD PUSH1 0xFF NOT AND SWAP1 SSTORE PUSH1 0x24 SLOAD PUSH1 0x11 DUP2 SWAP1 SSTORE PUSH1 0x13 SLOAD PUSH1 0x12 SLOAD SWAP1 SWAP2 PUSH2 0x1F24 SWAP2 SWAP1 PUSH2 0x353C JUMP JUMPDEST PUSH2 0x1F2E SWAP2 SWAP1 PUSH2 0x353C JUMP JUMPDEST PUSH1 0x10 SSTORE PUSH2 0x1FBB JUMP JUMPDEST PUSH1 0x24 SLOAD DUP2 PUSH1 0x11 SLOAD PUSH2 0x1F47 SWAP2 SWAP1 PUSH2 0x3554 JUMP JUMPDEST GT ISZERO PUSH2 0x1F89 JUMPI DUP1 PUSH1 0x11 SLOAD PUSH2 0x1F5B SWAP2 SWAP1 PUSH2 0x3554 JUMP JUMPDEST PUSH1 0x11 DUP2 SWAP1 SSTORE PUSH1 0x13 SLOAD PUSH1 0x12 SLOAD SWAP1 SWAP2 PUSH2 0x1F72 SWAP2 SWAP1 PUSH2 0x353C JUMP JUMPDEST PUSH2 0x1F7C SWAP2 SWAP1 PUSH2 0x353C JUMP JUMPDEST PUSH1 0x10 SSTORE PUSH1 0x25 DUP3 SWAP1 SSTORE PUSH2 0x1FBB JUMP JUMPDEST PUSH1 0x21 DUP1 SLOAD PUSH1 0xFF NOT AND SWAP1 SSTORE PUSH1 0x24 SLOAD PUSH1 0x11 DUP2 SWAP1 SSTORE PUSH1 0x13 SLOAD PUSH1 0x12 SLOAD SWAP1 SWAP2 PUSH2 0x1FAD SWAP2 SWAP1 PUSH2 0x353C JUMP JUMPDEST PUSH2 0x1FB7 SWAP2 SWAP1 PUSH2 0x353C JUMP JUMPDEST PUSH1 0x10 SSTORE JUMPDEST POP JUMPDEST POP JUMPDEST PUSH1 0xC SLOAD PUSH1 0xFF AND ISZERO PUSH2 0x2436 JUMPI PUSH1 0x5 SLOAD PUSH1 0x1 PUSH1 0x1 PUSH1 0xA0 SHL SUB DUP5 DUP2 AND SWAP2 AND EQ DUP1 ISZERO SWAP1 PUSH2 0x1FF6 JUMPI POP PUSH1 0x5 SLOAD PUSH1 0x1 PUSH1 0x1 PUSH1 0xA0 SHL SUB DUP4 DUP2 AND SWAP2 AND EQ ISZERO JUMPDEST DUP1 ISZERO PUSH2 0x200A JUMPI POP PUSH1 0x1 PUSH1 0x1 PUSH1 0xA0 SHL SUB DUP3 AND ISZERO ISZERO JUMPDEST DUP1 ISZERO PUSH2 0x2021 JUMPI POP PUSH1 0x1 PUSH1 0x1 PUSH1 0xA0 SHL SUB DUP3 AND PUSH2 0xDEAD EQ ISZERO JUMPDEST DUP1 ISZERO PUSH2 0x2037 JUMPI POP PUSH1 0x6 SLOAD PUSH1 0x1 PUSH1 0xA0 SHL SWAP1 DIV PUSH1 0xFF AND ISZERO JUMPDEST ISZERO PUSH2 0x2436 JUMPI PUSH1 0xC SLOAD PUSH2 0x100 SWAP1 DIV PUSH1 0xFF AND PUSH2 0x20CF JUMPI PUSH1 0x1 PUSH1 0x1 PUSH1 0xA0 SHL SUB DUP4 AND PUSH1 0x0 SWAP1 DUP2 MSTORE PUSH1 0x1B PUSH1 0x20 MSTORE PUSH1 0x40 SWAP1 KECCAK256 SLOAD PUSH1 0xFF AND DUP1 PUSH2 0x208A JUMPI POP PUSH1 0x1 PUSH1 0x1 PUSH1 0xA0 SHL SUB DUP3 AND PUSH1 0x0 SWAP1 DUP2 MSTORE PUSH1 0x1B PUSH1 0x20 MSTORE PUSH1 0x40 SWAP1 KECCAK256 SLOAD PUSH1 0xFF AND JUMPDEST PUSH2 0x20CF JUMPI PUSH1 0x40 MLOAD PUSH3 0x461BCD PUSH1 0xE5 SHL DUP2 MSTORE PUSH1 0x20 PUSH1 0x4 DUP3 ADD MSTORE PUSH1 0x16 PUSH1 0x24 DUP3 ADD MSTORE PUSH22 0x2A3930B234B7339034B9903737BA1030B1BA34BB3297 PUSH1 0x51 SHL PUSH1 0x44 DUP3 ADD MSTORE PUSH1 0x64 ADD PUSH2 0xDBD JUMP JUMPDEST PUSH1 0xF SLOAD PUSH1 0xFF AND ISZERO PUSH2 0x21F2 JUMPI PUSH1 0x5 SLOAD PUSH1 0x1 PUSH1 0x1 PUSH1 0xA0 SHL SUB DUP4 DUP2 AND SWAP2 AND EQ DUP1 ISZERO SWAP1 PUSH2 0x212A JUMPI POP PUSH32 0x0 PUSH1 0x1 PUSH1 0x1 PUSH1 0xA0 SHL SUB AND DUP3 PUSH1 0x1 PUSH1 0x1 PUSH1 0xA0 SHL SUB AND EQ ISZERO JUMPDEST DUP1 ISZERO PUSH2 0x2144 JUMPI POP PUSH1 0x6 SLOAD PUSH1 0x1 PUSH1 0x1 PUSH1 0xA0 SHL SUB DUP4 DUP2 AND SWAP2 AND EQ ISZERO JUMPDEST ISZERO PUSH2 0x21F2 JUMPI ORIGIN PUSH1 0x0 SWAP1 DUP2 MSTORE PUSH1 0xE PUSH1 0x20 MSTORE PUSH1 0x40 SWAP1 KECCAK256 SLOAD NUMBER GT PUSH2 0x21DF JUMPI PUSH1 0x40 MLOAD PUSH3 0x461BCD PUSH1 0xE5 SHL DUP2 MSTORE PUSH1 0x20 PUSH1 0x4 DUP3 ADD MSTORE PUSH1 0x49 PUSH1 0x24 DUP3 ADD MSTORE PUSH32 0x5F7472616E736665723A3A205472616E736665722044656C617920656E61626C PUSH1 0x44 DUP3 ADD MSTORE PUSH32 0x65642E20204F6E6C79206F6E652070757263686173652070657220626C6F636B PUSH1 0x64 DUP3 ADD MSTORE PUSH9 0x1030B63637BBB2B217 PUSH1 0xB9 SHL PUSH1 0x84 DUP3 ADD MSTORE PUSH1 0xA4 ADD PUSH2 0xDBD JUMP JUMPDEST ORIGIN PUSH1 0x0 SWAP1 DUP2 MSTORE PUSH1 0xE PUSH1 0x20 MSTORE PUSH1 0x40 SWAP1 KECCAK256 NUMBER SWAP1 SSTORE JUMPDEST PUSH1 0x1 PUSH1 0x1 PUSH1 0xA0 SHL SUB DUP4 AND PUSH1 0x0 SWAP1 DUP2 MSTORE PUSH1 0x20 DUP1 MSTORE PUSH1 0x40 SWAP1 KECCAK256 SLOAD PUSH1 0xFF AND DUP1 ISZERO PUSH2 0x2232 JUMPI POP PUSH1 0x1 PUSH1 0x1 PUSH1 0xA0 SHL SUB DUP3 AND PUSH1 0x0 SWAP1 DUP2 MSTORE PUSH1 0x1C PUSH1 0x20 MSTORE PUSH1 0x40 SWAP1 KECCAK256 SLOAD PUSH1 0xFF AND ISZERO JUMPDEST ISZERO PUSH2 0x2316 JUMPI PUSH1 0x9 SLOAD DUP2 GT ISZERO PUSH2 0x22A7 JUMPI PUSH1 0x40 MLOAD PUSH3 0x461BCD PUSH1 0xE5 SHL DUP2 MSTORE PUSH1 0x20 PUSH1 0x4 DUP3 ADD MSTORE PUSH1 0x35 PUSH1 0x24 DUP3 ADD MSTORE PUSH32 0x427579207472616E7366657220616D6F756E7420657863656564732074686520 PUSH1 0x44 DUP3 ADD MSTORE PUSH21 0x36B0BC2A3930B739B0B1BA34B7B720B6B7BAB73A17 PUSH1 0x59 SHL PUSH1 0x64 DUP3 ADD MSTORE PUSH1 0x84 ADD PUSH2 0xDBD JUMP JUMPDEST PUSH1 0xB SLOAD PUSH1 0x1 PUSH1 0x1 PUSH1 0xA0 SHL SUB DUP4 AND PUSH1 0x0 SWAP1 DUP2 MSTORE PUSH1 0x20 DUP2 SWAP1 MSTORE PUSH1 0x40 SWAP1 KECCAK256 SLOAD PUSH2 0x22CD SWAP1 DUP4 PUSH2 0x353C JUMP JUMPDEST GT ISZERO PUSH2 0x2311 JUMPI PUSH1 0x40 MLOAD PUSH3 0x461BCD PUSH1 0xE5 SHL DUP2 MSTORE PUSH1 0x20 PUSH1 0x4 DUP3 ADD MSTORE PUSH1 0x13 PUSH1 0x24 DUP3 ADD MSTORE PUSH19 0x13585E081DD85B1B195D08195E18D959591959 PUSH1 0x6A SHL PUSH1 0x44 DUP3 ADD MSTORE PUSH1 0x64 ADD PUSH2 0xDBD JUMP JUMPDEST PUSH2 0x2436 JUMP JUMPDEST PUSH1 0x1 PUSH1 0x1 PUSH1 0xA0 SHL SUB DUP3 AND PUSH1 0x0 SWAP1 DUP2 MSTORE PUSH1 0x20 DUP1 MSTORE PUSH1 0x40 SWAP1 KECCAK256 SLOAD PUSH1 0xFF AND DUP1 ISZERO PUSH2 0x2356 JUMPI POP PUSH1 0x1 PUSH1 0x1 PUSH1 0xA0 SHL SUB DUP4 AND PUSH1 0x0 SWAP1 DUP2 MSTORE PUSH1 0x1C PUSH1 0x20 MSTORE PUSH1 0x40 SWAP1 KECCAK256 SLOAD PUSH1 0xFF AND ISZERO JUMPDEST ISZERO PUSH2 0x23CC JUMPI PUSH1 0x9 SLOAD DUP2 GT ISZERO PUSH2 0x2311 JUMPI PUSH1 0x40 MLOAD PUSH3 0x461BCD PUSH1 0xE5 SHL DUP2 MSTORE PUSH1 0x20 PUSH1 0x4 DUP3 ADD MSTORE PUSH1 0x36 PUSH1 0x24 DUP3 ADD MSTORE PUSH32 0x53656C6C207472616E7366657220616D6F756E74206578636565647320746865 PUSH1 0x44 DUP3 ADD MSTORE PUSH22 0x1036B0BC2A3930B739B0B1BA34B7B720B6B7BAB73A17 PUSH1 0x51 SHL PUSH1 0x64 DUP3 ADD MSTORE PUSH1 0x84 ADD PUSH2 0xDBD JUMP JUMPDEST PUSH1 0xB SLOAD PUSH1 0x1 PUSH1 0x1 PUSH1 0xA0 SHL SUB DUP4 AND PUSH1 0x0 SWAP1 DUP2 MSTORE PUSH1 0x20 DUP2 SWAP1 MSTORE PUSH1 0x40 SWAP1 KECCAK256 SLOAD PUSH2 0x23F2 SWAP1 DUP4 PUSH2 0x353C JUMP JUMPDEST GT ISZERO PUSH2 0x2436 JUMPI PUSH1 0x40 MLOAD PUSH3 0x461BCD PUSH1 0xE5 SHL DUP2 MSTORE PUSH1 0x20 PUSH1 0x4 DUP3 ADD MSTORE PUSH1 0x13 PUSH1 0x24 DUP3 ADD MSTORE PUSH19 0x13585E081DD85B1B195D08195E18D959591959 PUSH1 0x6A SHL PUSH1 0x44 DUP3 ADD MSTORE PUSH1 0x64 ADD PUSH2 0xDBD JUMP JUMPDEST ADDRESS PUSH1 0x0 SWAP1 DUP2 MSTORE PUSH1 0x20 DUP2 SWAP1 MSTORE PUSH1 0x40 SWAP1 KECCAK256 SLOAD PUSH1 0xA SLOAD DUP2 LT DUP1 ISZERO SWAP1 DUP2 SWAP1 PUSH2 0x2462 JUMPI POP PUSH1 0xC SLOAD PUSH3 0x10000 SWAP1 DIV PUSH1 0xFF AND JUMPDEST DUP1 ISZERO PUSH2 0x2478 JUMPI POP PUSH1 0x6 SLOAD PUSH1 0x1 PUSH1 0xA0 SHL SWAP1 DIV PUSH1 0xFF AND ISZERO JUMPDEST DUP1 ISZERO PUSH2 0x249C JUMPI POP PUSH1 0x1 PUSH1 0x1 PUSH1 0xA0 SHL SUB DUP6 AND PUSH1 0x0 SWAP1 DUP2 MSTORE PUSH1 0x20 DUP1 MSTORE PUSH1 0x40 SWAP1 KECCAK256 SLOAD PUSH1 0xFF AND ISZERO JUMPDEST DUP1 ISZERO PUSH2 0x24C1 JUMPI POP PUSH1 0x1 PUSH1 0x1 PUSH1 0xA0 SHL SUB DUP6 AND PUSH1 0x0 SWAP1 DUP2 MSTORE PUSH1 0x1B PUSH1 0x20 MSTORE PUSH1 0x40 SWAP1 KECCAK256 SLOAD PUSH1 0xFF AND ISZERO JUMPDEST DUP1 ISZERO PUSH2 0x24E6 JUMPI POP PUSH1 0x1 PUSH1 0x1 PUSH1 0xA0 SHL SUB DUP5 AND PUSH1 0x0 SWAP1 DUP2 MSTORE PUSH1 0x1B PUSH1 0x20 MSTORE PUSH1 0x40 SWAP1 KECCAK256 SLOAD PUSH1 0xFF AND ISZERO JUMPDEST ISZERO PUSH2 0x2514 JUMPI PUSH1 0x6 DUP1 SLOAD PUSH1 0xFF PUSH1 0xA0 SHL NOT AND PUSH1 0x1 PUSH1 0xA0 SHL OR SWAP1 SSTORE PUSH2 0x2506 PUSH2 0x2B01 JUMP JUMPDEST PUSH1 0x6 DUP1 SLOAD PUSH1 0xFF PUSH1 0xA0 SHL NOT AND SWAP1 SSTORE JUMPDEST PUSH1 0x6 SLOAD PUSH1 0x1 PUSH1 0x1 PUSH1 0xA0 SHL SUB DUP7 AND PUSH1 0x0 SWAP1 DUP2 MSTORE PUSH1 0x1B PUSH1 0x20 MSTORE PUSH1 0x40 SWAP1 KECCAK256 SLOAD PUSH1 0xFF PUSH1 0x1 PUSH1 0xA0 SHL SWAP1 SWAP3 DIV DUP3 AND ISZERO SWAP2 AND DUP1 PUSH2 0x2562 JUMPI POP PUSH1 0x1 PUSH1 0x1 PUSH1 0xA0 SHL SUB DUP6 AND PUSH1 0x0 SWAP1 DUP2 MSTORE PUSH1 0x1B PUSH1 0x20 MSTORE PUSH1 0x40 SWAP1 KECCAK256 SLOAD PUSH1 0xFF AND JUMPDEST ISZERO PUSH2 0x256B JUMPI POP PUSH1 0x0 JUMPDEST PUSH1 0x0 DUP2 ISZERO PUSH2 0x282B JUMPI NUMBER PUSH1 0xD SLOAD PUSH1 0x2 PUSH2 0x2583 SWAP2 SWAP1 PUSH2 0x353C JUMP JUMPDEST LT ISZERO DUP1 ISZERO PUSH2 0x25C9 JUMPI POP PUSH1 0x1 PUSH1 0x1 PUSH1 0xA0 SHL SUB DUP7 AND PUSH1 0x0 SWAP1 DUP2 MSTORE PUSH1 0x20 DUP1 MSTORE PUSH1 0x40 SWAP1 KECCAK256 SLOAD PUSH1 0xFF AND DUP1 PUSH2 0x25C9 JUMPI POP PUSH1 0x1 PUSH1 0x1 PUSH1 0xA0 SHL SUB DUP8 AND PUSH1 0x0 SWAP1 DUP2 MSTORE PUSH1 0x20 DUP1 MSTORE PUSH1 0x40 SWAP1 KECCAK256 SLOAD PUSH1 0xFF AND JUMPDEST ISZERO PUSH2 0x2676 JUMPI PUSH1 0x64 PUSH2 0x25DB DUP7 PUSH1 0x63 PUSH2 0x356B JUMP JUMPDEST PUSH2 0x25E5 SWAP2 SWAP1 PUSH2 0x3733 JUMP JUMPDEST SWAP1 POP PUSH1 0x63 PUSH2 0x25F4 DUP3 PUSH1 0x21 PUSH2 0x356B JUMP JUMPDEST PUSH2 0x25FE SWAP2 SWAP1 PUSH2 0x3733 JUMP JUMPDEST PUSH1 0x19 PUSH1 0x0 DUP3 DUP3 SLOAD PUSH2 0x260F SWAP2 SWAP1 PUSH2 0x353C JUMP JUMPDEST SWAP1 SWAP2 SSTORE POP PUSH1 0x63 SWAP1 POP PUSH2 0x2622 DUP3 PUSH1 0x21 PUSH2 0x356B JUMP JUMPDEST PUSH2 0x262C SWAP2 SWAP1 PUSH2 0x3733 JUMP JUMPDEST PUSH1 0x1A PUSH1 0x0 DUP3 DUP3 SLOAD PUSH2 0x263D SWAP2 SWAP1 PUSH2 0x353C JUMP JUMPDEST SWAP1 SWAP2 SSTORE POP PUSH1 0x63 SWAP1 POP PUSH2 0x2650 DUP3 PUSH1 0x21 PUSH2 0x356B JUMP JUMPDEST PUSH2 0x265A SWAP2 SWAP1 PUSH2 0x3733 JUMP JUMPDEST PUSH1 0x18 PUSH1 0x0 DUP3 DUP3 SLOAD PUSH2 0x266B SWAP2 SWAP1 PUSH2 0x353C JUMP JUMPDEST SWAP1 SWAP2 SSTORE POP PUSH2 0x280D SWAP1 POP JUMP JUMPDEST PUSH1 0x1 PUSH1 0x1 PUSH1 0xA0 SHL SUB DUP7 AND PUSH1 0x0 SWAP1 DUP2 MSTORE PUSH1 0x20 DUP1 MSTORE PUSH1 0x40 SWAP1 KECCAK256 SLOAD PUSH1 0xFF AND DUP1 ISZERO PUSH2 0x269F JUMPI POP PUSH1 0x0 PUSH1 0x14 SLOAD GT JUMPDEST ISZERO PUSH2 0x2731 JUMPI PUSH1 0x64 PUSH1 0x14 SLOAD DUP7 PUSH2 0x26B4 SWAP2 SWAP1 PUSH2 0x356B JUMP JUMPDEST PUSH2 0x26BE SWAP2 SWAP1 PUSH2 0x3733 JUMP JUMPDEST SWAP1 POP PUSH1 0x14 SLOAD PUSH1 0x16 SLOAD DUP3 PUSH2 0x26D1 SWAP2 SWAP1 PUSH2 0x356B JUMP JUMPDEST PUSH2 0x26DB SWAP2 SWAP1 PUSH2 0x3733 JUMP JUMPDEST PUSH1 0x19 PUSH1 0x0 DUP3 DUP3 SLOAD PUSH2 0x26EC SWAP2 SWAP1 PUSH2 0x353C JUMP JUMPDEST SWAP1 SWAP2 SSTORE POP POP PUSH1 0x14 SLOAD PUSH1 0x17 SLOAD PUSH2 0x2701 SWAP1 DUP4 PUSH2 0x356B JUMP JUMPDEST PUSH2 0x270B SWAP2 SWAP1 PUSH2 0x3733 JUMP JUMPDEST PUSH1 0x1A PUSH1 0x0 DUP3 DUP3 SLOAD PUSH2 0x271C SWAP2 SWAP1 PUSH2 0x353C JUMP JUMPDEST SWAP1 SWAP2 SSTORE POP POP PUSH1 0x14 SLOAD PUSH1 0x15 SLOAD PUSH2 0x2650 SWAP1 DUP4 PUSH2 0x356B JUMP JUMPDEST PUSH1 0x1 PUSH1 0x1 PUSH1 0xA0 SHL SUB DUP8 AND PUSH1 0x0 SWAP1 DUP2 MSTORE PUSH1 0x20 DUP1 MSTORE PUSH1 0x40 SWAP1 KECCAK256 SLOAD PUSH1 0xFF AND DUP1 ISZERO PUSH2 0x275A JUMPI POP PUSH1 0x0 PUSH1 0x10 SLOAD GT JUMPDEST ISZERO PUSH2 0x280D JUMPI PUSH1 0x64 PUSH1 0x10 SLOAD DUP7 PUSH2 0x276F SWAP2 SWAP1 PUSH2 0x356B JUMP JUMPDEST PUSH2 0x2779 SWAP2 SWAP1 PUSH2 0x3733 JUMP JUMPDEST SWAP1 POP PUSH1 0x10 SLOAD PUSH1 0x12 SLOAD DUP3 PUSH2 0x278C SWAP2 SWAP1 PUSH2 0x356B JUMP JUMPDEST PUSH2 0x2796 SWAP2 SWAP1 PUSH2 0x3733 JUMP JUMPDEST PUSH1 0x19 PUSH1 0x0 DUP3 DUP3 SLOAD PUSH2 0x27A7 SWAP2 SWAP1 PUSH2 0x353C JUMP JUMPDEST SWAP1 SWAP2 SSTORE POP POP PUSH1 0x10 SLOAD PUSH1 0x13 SLOAD PUSH2 0x27BC SWAP1 DUP4 PUSH2 0x356B JUMP JUMPDEST PUSH2 0x27C6 SWAP2 SWAP1 PUSH2 0x3733 JUMP JUMPDEST PUSH1 0x1A PUSH1 0x0 DUP3 DUP3 SLOAD PUSH2 0x27D7 SWAP2 SWAP1 PUSH2 0x353C JUMP JUMPDEST SWAP1 SWAP2 SSTORE POP POP PUSH1 0x10 SLOAD PUSH1 0x11 SLOAD PUSH2 0x27EC SWAP1 DUP4 PUSH2 0x356B JUMP JUMPDEST PUSH2 0x27F6 SWAP2 SWAP1 PUSH2 0x3733 JUMP JUMPDEST PUSH1 0x18 PUSH1 0x0 DUP3 DUP3 SLOAD PUSH2 0x2807 SWAP2 SWAP1 PUSH2 0x353C JUMP JUMPDEST SWAP1 SWAP2 SSTORE POP POP JUMPDEST DUP1 ISZERO PUSH2 0x281E JUMPI PUSH2 0x281E DUP8 ADDRESS DUP4 PUSH2 0x29AB JUMP JUMPDEST PUSH2 0x2828 DUP2 DUP7 PUSH2 0x3554 JUMP JUMPDEST SWAP5 POP JUMPDEST PUSH2 0x2836 DUP8 DUP8 DUP8 PUSH2 0x29AB JUMP JUMPDEST POP POP POP POP POP POP POP JUMP JUMPDEST CALLER EXTCODESIZE ISZERO PUSH2 0x288E JUMPI PUSH1 0x40 MLOAD PUSH3 0x461BCD PUSH1 0xE5 SHL DUP2 MSTORE PUSH1 0x20 PUSH1 0x4 DUP3 ADD MSTORE PUSH1 0x1C PUSH1 0x24 DUP3 ADD MSTORE PUSH32 0x436F6E7472616374206E6F7420616C6C6F77656420746F2063616C6C00000000 PUSH1 0x44 DUP3 ADD MSTORE PUSH1 0x64 ADD PUSH2 0xDBD JUMP JUMPDEST PUSH1 0x1 PUSH1 0x1 PUSH1 0xA0 SHL SUB DUP4 AND PUSH2 0x1DAD JUMPI PUSH1 0x40 MLOAD PUSH3 0x461BCD PUSH1 0xE5 SHL DUP2 MSTORE PUSH1 0x4 ADD PUSH2 0xDBD SWAP1 PUSH2 0x36AB JUMP JUMPDEST PUSH1 0x5 DUP1 SLOAD PUSH1 0x1 PUSH1 0x1 PUSH1 0xA0 SHL SUB DUP4 DUP2 AND PUSH1 0x1 PUSH1 0x1 PUSH1 0xA0 SHL SUB NOT DUP4 AND DUP2 OR SWAP1 SWAP4 SSTORE PUSH1 0x40 MLOAD SWAP2 AND SWAP2 SWAP1 DUP3 SWAP1 PUSH32 0x8BE0079C531659141344CD1FD0A4F28419497F9722A3DAAFE3B4186F6B6457E0 SWAP1 PUSH1 0x0 SWAP1 LOG3 POP POP JUMP JUMPDEST PUSH1 0x1 PUSH1 0x1 PUSH1 0xA0 SHL SUB DUP3 AND PUSH1 0x0 DUP2 DUP2 MSTORE PUSH1 0x20 DUP1 MSTORE PUSH1 0x40 DUP1 DUP3 KECCAK256 DUP1 SLOAD PUSH1 0xFF NOT AND DUP6 ISZERO ISZERO SWAP1 DUP2 OR SWAP1 SWAP2 SSTORE SWAP1 MLOAD SWAP1 SWAP3 SWAP2 PUSH32 0xFFA9187BF1F18BF477BD0EA1BCBB64E93B6A98132473929EDFCE215CD9B16FAB SWAP2 LOG3 POP POP JUMP JUMPDEST PUSH1 0x40 DUP1 MLOAD PUSH1 0x1 PUSH1 0x1 PUSH1 0xA0 SHL SUB DUP5 AND PUSH1 0x24 DUP3 ADD MSTORE PUSH1 0x44 DUP1 DUP3 ADD DUP5 SWAP1 MSTORE DUP3 MLOAD DUP1 DUP4 SUB SWAP1 SWAP2 ADD DUP2 MSTORE PUSH1 0x64 SWAP1 SWAP2 ADD SWAP1 SWAP2 MSTORE PUSH1 0x20 DUP2 ADD DUP1 MLOAD PUSH1 0x1 PUSH1 0x1 PUSH1 0xE0 SHL SUB AND PUSH4 0xA9059CBB PUSH1 0xE0 SHL OR SWAP1 MSTORE PUSH2 0xE09 SWAP1 DUP5 SWAP1 PUSH2 0x2D17 JUMP JUMPDEST PUSH1 0x1 PUSH1 0x1 PUSH1 0xA0 SHL SUB DUP4 AND PUSH2 0x29D1 JUMPI PUSH1 0x40 MLOAD PUSH3 0x461BCD PUSH1 0xE5 SHL DUP2 MSTORE PUSH1 0x4 ADD PUSH2 0xDBD SWAP1 PUSH2 0x36AB JUMP JUMPDEST PUSH1 0x1 PUSH1 0x1 PUSH1 0xA0 SHL SUB DUP3 AND PUSH2 0x29F7 JUMPI PUSH1 0x40 MLOAD PUSH3 0x461BCD PUSH1 0xE5 SHL DUP2 MSTORE PUSH1 0x4 ADD PUSH2 0xDBD SWAP1 PUSH2 0x36F0 JUMP JUMPDEST PUSH1 0x1 PUSH1 0x1 PUSH1 0xA0 SHL SUB DUP4 AND PUSH1 0x0 SWAP1 DUP2 MSTORE PUSH1 0x20 DUP2 SWAP1 MSTORE PUSH1 0x40 SWAP1 KECCAK256 SLOAD DUP2 DUP2 LT ISZERO PUSH2 0x2A6F JUMPI PUSH1 0x40 MLOAD PUSH3 0x461BCD PUSH1 0xE5 SHL DUP2 MSTORE PUSH1 0x20 PUSH1 0x4 DUP3 ADD MSTORE PUSH1 0x26 PUSH1 0x24 DUP3 ADD MSTORE PUSH32 0x45524332303A207472616E7366657220616D6F756E7420657863656564732062 PUSH1 0x44 DUP3 ADD MSTORE PUSH6 0x616C616E6365 PUSH1 0xD0 SHL PUSH1 0x64 DUP3 ADD MSTORE PUSH1 0x84 ADD PUSH2 0xDBD JUMP JUMPDEST PUSH1 0x1 PUSH1 0x1 PUSH1 0xA0 SHL SUB DUP1 DUP6 AND PUSH1 0x0 SWAP1 DUP2 MSTORE PUSH1 0x20 DUP2 SWAP1 MSTORE PUSH1 0x40 DUP1 DUP3 KECCAK256 DUP6 DUP6 SUB SWAP1 SSTORE SWAP2 DUP6 AND DUP2 MSTORE SWAP1 DUP2 KECCAK256 DUP1 SLOAD DUP5 SWAP3 SWAP1 PUSH2 0x2AA6 SWAP1 DUP5 SWAP1 PUSH2 0x353C JUMP JUMPDEST SWAP3 POP POP DUP2 SWAP1 SSTORE POP DUP3 PUSH1 0x1 PUSH1 0x1 PUSH1 0xA0 SHL SUB AND DUP5 PUSH1 0x1 PUSH1 0x1 PUSH1 0xA0 SHL SUB AND PUSH32 0xDDF252AD1BE2C89B69C2B068FC378DAA952BA7F163C4A11628F55A4DF523B3EF DUP5 PUSH1 0x40 MLOAD PUSH2 0x2AF2 SWAP2 DUP2 MSTORE PUSH1 0x20 ADD SWAP1 JUMP JUMPDEST PUSH1 0x40 MLOAD DUP1 SWAP2 SUB SWAP1 LOG3 JUMPDEST POP POP POP POP JUMP JUMPDEST ADDRESS PUSH1 0x0 SWAP1 DUP2 MSTORE PUSH1 0x20 DUP2 SWAP1 MSTORE PUSH1 0x40 DUP2 KECCAK256 SLOAD SWAP1 POP PUSH1 0x0 PUSH1 0x1A SLOAD PUSH1 0x18 SLOAD PUSH1 0x19 SLOAD PUSH2 0x2B28 SWAP2 SWAP1 PUSH2 0x353C JUMP JUMPDEST PUSH2 0x2B32 SWAP2 SWAP1 PUSH2 0x353C JUMP JUMPDEST SWAP1 POP DUP2 ISZERO DUP1 PUSH2 0x2B3F JUMPI POP DUP1 ISZERO JUMPDEST ISZERO PUSH2 0x2B48 JUMPI POP POP JUMP JUMPDEST PUSH1 0x0 PUSH1 0x2 DUP3 PUSH1 0x19 SLOAD DUP6 PUSH2 0x2B5B SWAP2 SWAP1 PUSH2 0x356B JUMP JUMPDEST PUSH2 0x2B65 SWAP2 SWAP1 PUSH2 0x3733 JUMP JUMPDEST PUSH2 0x2B6F SWAP2 SWAP1 PUSH2 0x3733 JUMP JUMPDEST SWAP1 POP PUSH1 0x0 PUSH2 0x2B7D DUP3 DUP6 PUSH2 0x3554 JUMP JUMPDEST SWAP1 POP SELFBALANCE PUSH2 0x2B89 DUP3 PUSH2 0x2DE9 JUMP JUMPDEST PUSH1 0x0 PUSH2 0x2B95 DUP3 SELFBALANCE PUSH2 0x3554 JUMP JUMPDEST SWAP1 POP PUSH1 0x0 DUP6 PUSH1 0x18 SLOAD DUP4 PUSH2 0x2BA8 SWAP2 SWAP1 PUSH2 0x356B JUMP JUMPDEST PUSH2 0x2BB2 SWAP2 SWAP1 PUSH2 0x3733 JUMP JUMPDEST SWAP1 POP PUSH1 0x0 DUP7 PUSH1 0x1A SLOAD DUP5 PUSH2 0x2BC5 SWAP2 SWAP1 PUSH2 0x356B JUMP JUMPDEST PUSH2 0x2BCF SWAP2 SWAP1 PUSH2 0x3733 JUMP JUMPDEST SWAP1 POP PUSH1 0x0 DUP2 PUSH2 0x2BDE DUP5 DUP7 PUSH2 0x3554 JUMP JUMPDEST PUSH2 0x2BE8 SWAP2 SWAP1 PUSH2 0x3554 JUMP JUMPDEST PUSH1 0x0 PUSH1 0x19 DUP2 SWAP1 SSTORE PUSH1 0x18 DUP2 SWAP1 SSTORE PUSH1 0x1A DUP2 SWAP1 SSTORE PUSH1 0x7 SLOAD PUSH1 0x40 MLOAD SWAP3 SWAP4 POP SWAP1 SWAP2 PUSH1 0x1 PUSH1 0x1 PUSH1 0xA0 SHL SUB SWAP1 SWAP2 AND SWAP1 DUP6 SWAP1 DUP4 DUP2 DUP2 DUP2 DUP6 DUP8 GAS CALL SWAP3 POP POP POP RETURNDATASIZE DUP1 PUSH1 0x0 DUP2 EQ PUSH2 0x2C4A JUMPI PUSH1 0x40 MLOAD SWAP2 POP PUSH1 0x1F NOT PUSH1 0x3F RETURNDATASIZE ADD AND DUP3 ADD PUSH1 0x40 MSTORE RETURNDATASIZE DUP3 MSTORE RETURNDATASIZE PUSH1 0x0 PUSH1 0x20 DUP5 ADD RETURNDATACOPY PUSH2 0x2C4F JUMP JUMPDEST PUSH1 0x60 SWAP2 POP JUMPDEST POP POP SWAP1 POP PUSH1 0x0 DUP9 GT DUP1 ISZERO PUSH2 0x2C63 JUMPI POP PUSH1 0x0 DUP3 GT JUMPDEST ISZERO PUSH2 0x2CB6 JUMPI PUSH2 0x2C72 DUP9 DUP4 PUSH2 0x2FA9 JUMP JUMPDEST PUSH1 0x19 SLOAD PUSH1 0x40 DUP1 MLOAD DUP10 DUP2 MSTORE PUSH1 0x20 DUP2 ADD DUP6 SWAP1 MSTORE DUP1 DUP3 ADD SWAP3 SWAP1 SWAP3 MSTORE MLOAD PUSH32 0x17BBFB9A6069321B6DED73BD96327C9E6B7212A5CD51FF219CD61370ACAFB561 SWAP2 DUP2 SWAP1 SUB PUSH1 0x60 ADD SWAP1 LOG1 JUMPDEST PUSH1 0x8 SLOAD PUSH1 0x40 MLOAD PUSH1 0x1 PUSH1 0x1 PUSH1 0xA0 SHL SUB SWAP1 SWAP2 AND SWAP1 SELFBALANCE SWAP1 PUSH1 0x0 DUP2 DUP2 DUP2 DUP6 DUP8 GAS CALL SWAP3 POP POP POP RETURNDATASIZE DUP1 PUSH1 0x0 DUP2 EQ PUSH2 0x2D03 JUMPI PUSH1 0x40 MLOAD SWAP2 POP PUSH1 0x1F NOT PUSH1 0x3F RETURNDATASIZE ADD AND DUP3 ADD PUSH1 0x40 MSTORE RETURNDATASIZE DUP3 MSTORE RETURNDATASIZE PUSH1 0x0 PUSH1 0x20 DUP5 ADD RETURNDATACOPY PUSH2 0x2D08 JUMP JUMPDEST PUSH1 0x60 SWAP2 POP JUMPDEST POP POP POP POP POP POP POP POP POP POP POP POP POP JUMP JUMPDEST PUSH1 0x0 PUSH2 0x2D6C DUP3 PUSH1 0x40 MLOAD DUP1 PUSH1 0x40 ADD PUSH1 0x40 MSTORE DUP1 PUSH1 0x20 DUP2 MSTORE PUSH1 0x20 ADD PUSH32 0x5361666545524332303A206C6F772D6C6576656C2063616C6C206661696C6564 DUP2 MSTORE POP DUP6 PUSH1 0x1 PUSH1 0x1 PUSH1 0xA0 SHL SUB AND PUSH2 0x3083 SWAP1 SWAP3 SWAP2 SWAP1 PUSH4 0xFFFFFFFF AND JUMP JUMPDEST DUP1 MLOAD SWAP1 SWAP2 POP ISZERO PUSH2 0xE09 JUMPI DUP1 DUP1 PUSH1 0x20 ADD SWAP1 MLOAD DUP2 ADD SWAP1 PUSH2 0x2D8A SWAP2 SWAP1 PUSH2 0x3755 JUMP JUMPDEST PUSH2 0xE09 JUMPI PUSH1 0x40 MLOAD PUSH3 0x461BCD PUSH1 0xE5 SHL DUP2 MSTORE PUSH1 0x20 PUSH1 0x4 DUP3 ADD MSTORE PUSH1 0x2A PUSH1 0x24 DUP3 ADD MSTORE PUSH32 0x5361666545524332303A204552433230206F7065726174696F6E20646964206E PUSH1 0x44 DUP3 ADD MSTORE PUSH10 0x1BDD081CDD58D8D95959 PUSH1 0xB2 SHL PUSH1 0x64 DUP3 ADD MSTORE PUSH1 0x84 ADD PUSH2 0xDBD JUMP JUMPDEST PUSH1 0x40 DUP1 MLOAD PUSH1 0x2 DUP1 DUP3 MSTORE PUSH1 0x60 DUP3 ADD DUP4 MSTORE PUSH1 0x0 SWAP3 PUSH1 0x20 DUP4 ADD SWAP1 DUP1 CALLDATASIZE DUP4 CALLDATACOPY ADD SWAP1 POP POP SWAP1 POP ADDRESS DUP2 PUSH1 0x0 DUP2 MLOAD DUP2 LT PUSH2 0x2E1E JUMPI PUSH2 0x2E1E PUSH2 0x358A JUMP JUMPDEST PUSH1 0x20 MUL PUSH1 0x20 ADD ADD SWAP1 PUSH1 0x1 PUSH1 0x1 PUSH1 0xA0 SHL SUB AND SWAP1 DUP2 PUSH1 0x1 PUSH1 0x1 PUSH1 0xA0 SHL SUB AND DUP2 MSTORE POP POP PUSH32 0x0 PUSH1 0x1 PUSH1 0x1 PUSH1 0xA0 SHL SUB AND PUSH4 0xAD5C4648 PUSH1 0x40 MLOAD DUP2 PUSH4 0xFFFFFFFF AND PUSH1 0xE0 SHL DUP2 MSTORE PUSH1 0x4 ADD PUSH1 0x20 PUSH1 0x40 MLOAD DUP1 DUP4 SUB DUP2 DUP7 GAS STATICCALL ISZERO DUP1 ISZERO PUSH2 0x2E9C JUMPI RETURNDATASIZE PUSH1 0x0 DUP1 RETURNDATACOPY RETURNDATASIZE PUSH1 0x0 REVERT JUMPDEST POP POP POP POP PUSH1 0x40 MLOAD RETURNDATASIZE PUSH1 0x1F NOT PUSH1 0x1F DUP3 ADD AND DUP3 ADD DUP1 PUSH1 0x40 MSTORE POP DUP2 ADD SWAP1 PUSH2 0x2EC0 SWAP2 SWAP1 PUSH2 0x3615 JUMP JUMPDEST DUP2 PUSH1 0x1 DUP2 MLOAD DUP2 LT PUSH2 0x2ED3 JUMPI PUSH2 0x2ED3 PUSH2 0x358A JUMP JUMPDEST PUSH1 0x20 MUL PUSH1 0x20 ADD ADD SWAP1 PUSH1 0x1 PUSH1 0x1 PUSH1 0xA0 SHL SUB AND SWAP1 DUP2 PUSH1 0x1 PUSH1 0x1 PUSH1 0xA0 SHL SUB AND DUP2 MSTORE POP POP PUSH2 0x2F1E ADDRESS PUSH32 0x0 DUP5 PUSH2 0x1C4B JUMP JUMPDEST PUSH1 0x40 MLOAD PUSH4 0x791AC947 PUSH1 0xE0 SHL DUP2 MSTORE PUSH1 0x1 PUSH1 0x1 PUSH1 0xA0 SHL SUB PUSH32 0x0 AND SWAP1 PUSH4 0x791AC947 SWAP1 PUSH2 0x2F73 SWAP1 DUP6 SWAP1 PUSH1 0x0 SWAP1 DUP7 SWAP1 ADDRESS SWAP1 TIMESTAMP SWAP1 PUSH1 0x4 ADD PUSH2 0x3772 JUMP JUMPDEST PUSH1 0x0 PUSH1 0x40 MLOAD DUP1 DUP4 SUB DUP2 PUSH1 0x0 DUP8 DUP1 EXTCODESIZE ISZERO DUP1 ISZERO PUSH2 0x2F8D JUMPI PUSH1 0x0 DUP1 REVERT JUMPDEST POP GAS CALL ISZERO DUP1 ISZERO PUSH2 0x2FA1 JUMPI RETURNDATASIZE PUSH1 0x0 DUP1 RETURNDATACOPY RETURNDATASIZE PUSH1 0x0 REVERT JUMPDEST POP POP POP POP POP POP JUMP JUMPDEST PUSH2 0x2FD4 ADDRESS PUSH32 0x0 DUP5 PUSH2 0x1C4B JUMP JUMPDEST PUSH1 0x40 MLOAD PUSH4 0xF305D719 PUSH1 0xE0 SHL DUP2 MSTORE ADDRESS PUSH1 0x4 DUP3 ADD MSTORE PUSH1 0x24 DUP2 ADD DUP4 SWAP1 MSTORE PUSH1 0x0 PUSH1 0x44 DUP3 ADD DUP2 SWAP1 MSTORE PUSH1 0x64 DUP3 ADD MSTORE PUSH2 0xDEAD PUSH1 0x84 DUP3 ADD MSTORE TIMESTAMP PUSH1 0xA4 DUP3 ADD MSTORE PUSH32 0x0 PUSH1 0x1 PUSH1 0x1 PUSH1 0xA0 SHL SUB AND SWAP1 PUSH4 0xF305D719 SWAP1 DUP4 SWAP1 PUSH1 0xC4 ADD PUSH1 0x60 PUSH1 0x40 MLOAD DUP1 DUP4 SUB DUP2 DUP6 DUP9 GAS CALL ISZERO DUP1 ISZERO PUSH2 0x305E JUMPI RETURNDATASIZE PUSH1 0x0 DUP1 RETURNDATACOPY RETURNDATASIZE PUSH1 0x0 REVERT JUMPDEST POP POP POP POP POP PUSH1 0x40 MLOAD RETURNDATASIZE PUSH1 0x1F NOT PUSH1 0x1F DUP3 ADD AND DUP3 ADD DUP1 PUSH1 0x40 MSTORE POP DUP2 ADD SWAP1 PUSH2 0x1E59 SWAP2 SWAP1 PUSH2 0x37AE JUMP JUMPDEST PUSH1 0x60 PUSH2 0x3092 DUP5 DUP5 PUSH1 0x0 DUP6 PUSH2 0x309A JUMP JUMPDEST SWAP5 SWAP4 POP POP POP POP JUMP JUMPDEST PUSH1 0x60 DUP3 SELFBALANCE LT ISZERO PUSH2 0x30FB JUMPI PUSH1 0x40 MLOAD PUSH3 0x461BCD PUSH1 0xE5 SHL DUP2 MSTORE PUSH1 0x20 PUSH1 0x4 DUP3 ADD MSTORE PUSH1 0x26 PUSH1 0x24 DUP3 ADD MSTORE PUSH32 0x416464726573733A20696E73756666696369656E742062616C616E636520666F PUSH1 0x44 DUP3 ADD MSTORE PUSH6 0x1C8818D85B1B PUSH1 0xD2 SHL PUSH1 0x64 DUP3 ADD MSTORE PUSH1 0x84 ADD PUSH2 0xDBD JUMP JUMPDEST DUP5 EXTCODESIZE PUSH2 0x3149 JUMPI PUSH1 0x40 MLOAD PUSH3 0x461BCD PUSH1 0xE5 SHL DUP2 MSTORE PUSH1 0x20 PUSH1 0x4 DUP3 ADD MSTORE PUSH1 0x1D PUSH1 0x24 DUP3 ADD MSTORE PUSH32 0x416464726573733A2063616C6C20746F206E6F6E2D636F6E7472616374000000 PUSH1 0x44 DUP3 ADD MSTORE PUSH1 0x64 ADD PUSH2 0xDBD JUMP JUMPDEST PUSH1 0x0 DUP1 DUP7 PUSH1 0x1 PUSH1 0x1 PUSH1 0xA0 SHL SUB AND DUP6 DUP8 PUSH1 0x40 MLOAD PUSH2 0x3165 SWAP2 SWAP1 PUSH2 0x37DC JUMP JUMPDEST PUSH1 0x0 PUSH1 0x40 MLOAD DUP1 DUP4 SUB DUP2 DUP6 DUP8 GAS CALL SWAP3 POP POP POP RETURNDATASIZE DUP1 PUSH1 0x0 DUP2 EQ PUSH2 0x31A2 JUMPI PUSH1 0x40 MLOAD SWAP2 POP PUSH1 0x1F NOT PUSH1 0x3F RETURNDATASIZE ADD AND DUP3 ADD PUSH1 0x40 MSTORE RETURNDATASIZE DUP3 MSTORE RETURNDATASIZE PUSH1 0x0 PUSH1 0x20 DUP5 ADD RETURNDATACOPY PUSH2 0x31A7 JUMP JUMPDEST PUSH1 0x60 SWAP2 POP JUMPDEST POP SWAP2 POP SWAP2 POP PUSH2 0x31B7 DUP3 DUP3 DUP7 PUSH2 0x31C2 JUMP JUMPDEST SWAP8 SWAP7 POP POP POP POP POP POP POP JUMP JUMPDEST PUSH1 0x60 DUP4 ISZERO PUSH2 0x31D1 JUMPI POP DUP2 PUSH2 0xF88 JUMP JUMPDEST DUP3 MLOAD ISZERO PUSH2 0x31E1 JUMPI DUP3 MLOAD DUP1 DUP5 PUSH1 0x20 ADD REVERT JUMPDEST DUP2 PUSH1 0x40 MLOAD PUSH3 0x461BCD PUSH1 0xE5 SHL DUP2 MSTORE PUSH1 0x4 ADD PUSH2 0xDBD SWAP2 SWAP1 PUSH2 0x3227 JUMP JUMPDEST PUSH1 0x0 JUMPDEST DUP4 DUP2 LT ISZERO PUSH2 0x3216 JUMPI DUP2 DUP2 ADD MLOAD DUP4 DUP3 ADD MSTORE PUSH1 0x20 ADD PUSH2 0x31FE JUMP JUMPDEST DUP4 DUP2 GT ISZERO PUSH2 0x2AFB JUMPI POP POP PUSH1 0x0 SWAP2 ADD MSTORE JUMP JUMPDEST PUSH1 0x20 DUP2 MSTORE PUSH1 0x0 DUP3 MLOAD DUP1 PUSH1 0x20 DUP5 ADD MSTORE PUSH2 0x3246 DUP2 PUSH1 0x40 DUP6 ADD PUSH1 0x20 DUP8 ADD PUSH2 0x31FB JUMP JUMPDEST PUSH1 0x1F ADD PUSH1 0x1F NOT AND SWAP2 SWAP1 SWAP2 ADD PUSH1 0x40 ADD SWAP3 SWAP2 POP POP JUMP JUMPDEST PUSH1 0x1 PUSH1 0x1 PUSH1 0xA0 SHL SUB DUP2 AND DUP2 EQ PUSH2 0x19EC JUMPI PUSH1 0x0 DUP1 REVERT JUMPDEST DUP1 CALLDATALOAD PUSH2 0x1062 DUP2 PUSH2 0x325A JUMP JUMPDEST PUSH1 0x0 DUP1 PUSH1 0x40 DUP4 DUP6 SUB SLT ISZERO PUSH2 0x328D JUMPI PUSH1 0x0 DUP1 REVERT JUMPDEST DUP3 CALLDATALOAD PUSH2 0x3298 DUP2 PUSH2 0x325A JUMP JUMPDEST SWAP5 PUSH1 0x20 SWAP4 SWAP1 SWAP4 ADD CALLDATALOAD SWAP4 POP POP POP JUMP JUMPDEST PUSH1 0x0 DUP1 PUSH1 0x0 PUSH1 0x60 DUP5 DUP7 SUB SLT ISZERO PUSH2 0x32BB JUMPI PUSH1 0x0 DUP1 REVERT JUMPDEST POP POP DUP2 CALLDATALOAD SWAP4 PUSH1 0x20 DUP4 ADD CALLDATALOAD SWAP4 POP PUSH1 0x40 SWAP1 SWAP3 ADD CALLDATALOAD SWAP2 SWAP1 POP JUMP JUMPDEST PUSH1 0x0 PUSH1 0x20 DUP3 DUP5 SUB SLT ISZERO PUSH2 0x32E4 JUMPI PUSH1 0x0 DUP1 REVERT JUMPDEST DUP2 CALLDATALOAD PUSH2 0xF88 DUP2 PUSH2 0x325A JUMP JUMPDEST PUSH1 0x0 PUSH1 0x20 DUP3 DUP5 SUB SLT ISZERO PUSH2 0x3301 JUMPI PUSH1 0x0 DUP1 REVERT JUMPDEST POP CALLDATALOAD SWAP2 SWAP1 POP JUMP JUMPDEST PUSH1 0x0 DUP1 PUSH1 0x0 PUSH1 0x60 DUP5 DUP7 SUB SLT ISZERO PUSH2 0x331D JUMPI PUSH1 0x0 DUP1 REVERT JUMPDEST DUP4 CALLDATALOAD PUSH2 0x3328 DUP2 PUSH2 0x325A JUMP JUMPDEST SWAP3 POP PUSH1 0x20 DUP5 ADD CALLDATALOAD PUSH2 0x3338 DUP2 PUSH2 0x325A JUMP JUMPDEST SWAP3 SWAP6 SWAP3 SWAP5 POP POP POP PUSH1 0x40 SWAP2 SWAP1 SWAP2 ADD CALLDATALOAD SWAP1 JUMP JUMPDEST PUSH4 0x4E487B71 PUSH1 0xE0 SHL PUSH1 0x0 MSTORE PUSH1 0x41 PUSH1 0x4 MSTORE PUSH1 0x24 PUSH1 0x0 REVERT JUMPDEST PUSH1 0x0 PUSH1 0x20 DUP1 DUP4 DUP6 SUB SLT ISZERO PUSH2 0x3372 JUMPI PUSH1 0x0 DUP1 REVERT JUMPDEST DUP3 CALLDATALOAD PUSH8 0xFFFFFFFFFFFFFFFF DUP1 DUP3 GT ISZERO PUSH2 0x338A JUMPI PUSH1 0x0 DUP1 REVERT JUMPDEST DUP2 DUP6 ADD SWAP2 POP DUP6 PUSH1 0x1F DUP4 ADD SLT PUSH2 0x339E JUMPI PUSH1 0x0 DUP1 REVERT JUMPDEST DUP2 CALLDATALOAD DUP2 DUP2 GT ISZERO PUSH2 0x33B0 JUMPI PUSH2 0x33B0 PUSH2 0x3349 JUMP JUMPDEST DUP1 PUSH1 0x5 SHL PUSH1 0x40 MLOAD PUSH1 0x1F NOT PUSH1 0x3F DUP4 ADD AND DUP2 ADD DUP2 DUP2 LT DUP6 DUP3 GT OR ISZERO PUSH2 0x33D5 JUMPI PUSH2 0x33D5 PUSH2 0x3349 JUMP JUMPDEST PUSH1 0x40 MSTORE SWAP2 DUP3 MSTORE DUP5 DUP3 ADD SWAP3 POP DUP4 DUP2 ADD DUP6 ADD SWAP2 DUP9 DUP4 GT ISZERO PUSH2 0x33F3 JUMPI PUSH1 0x0 DUP1 REVERT JUMPDEST SWAP4 DUP6 ADD SWAP4 JUMPDEST DUP3 DUP6 LT ISZERO PUSH2 0x3418 JUMPI PUSH2 0x3409 DUP6 PUSH2 0x326F JUMP JUMPDEST DUP5 MSTORE SWAP4 DUP6 ADD SWAP4 SWAP3 DUP6 ADD SWAP3 PUSH2 0x33F8 JUMP JUMPDEST SWAP9 SWAP8 POP POP POP POP POP POP POP POP JUMP JUMPDEST DUP1 ISZERO ISZERO DUP2 EQ PUSH2 0x19EC JUMPI PUSH1 0x0 DUP1 REVERT JUMPDEST PUSH1 0x0 DUP1 PUSH1 0x40 DUP4 DUP6 SUB SLT ISZERO PUSH2 0x3445 JUMPI PUSH1 0x0 DUP1 REVERT JUMPDEST DUP3 CALLDATALOAD PUSH2 0x3450 DUP2 PUSH2 0x325A JUMP JUMPDEST SWAP2 POP PUSH1 0x20 DUP4 ADD CALLDATALOAD PUSH2 0x3460 DUP2 PUSH2 0x3424 JUMP JUMPDEST DUP1 SWAP2 POP POP SWAP3 POP SWAP3 SWAP1 POP JUMP JUMPDEST PUSH1 0x0 PUSH1 0x20 DUP3 DUP5 SUB SLT ISZERO PUSH2 0x347D JUMPI PUSH1 0x0 DUP1 REVERT JUMPDEST DUP2 CALLDATALOAD PUSH2 0xF88 DUP2 PUSH2 0x3424 JUMP JUMPDEST PUSH1 0x0 DUP1 PUSH1 0x40 DUP4 DUP6 SUB SLT ISZERO PUSH2 0x349B JUMPI PUSH1 0x0 DUP1 REVERT JUMPDEST DUP3 CALLDATALOAD PUSH2 0x34A6 DUP2 PUSH2 0x325A JUMP JUMPDEST SWAP2 POP PUSH1 0x20 DUP4 ADD CALLDATALOAD PUSH2 0x3460 DUP2 PUSH2 0x325A JUMP JUMPDEST PUSH1 0x1 DUP2 DUP2 SHR SWAP1 DUP3 AND DUP1 PUSH2 0x34CA JUMPI PUSH1 0x7F DUP3 AND SWAP2 POP JUMPDEST PUSH1 0x20 DUP3 LT DUP2 EQ ISZERO PUSH2 0x34EB JUMPI PUSH4 0x4E487B71 PUSH1 0xE0 SHL PUSH1 0x0 MSTORE PUSH1 0x22 PUSH1 0x4 MSTORE PUSH1 0x24 PUSH1 0x0 REVERT JUMPDEST POP SWAP2 SWAP1 POP JUMP JUMPDEST PUSH1 0x20 DUP1 DUP3 MSTORE DUP2 DUP2 ADD MSTORE PUSH32 0x4F776E61626C653A2063616C6C6572206973206E6F7420746865206F776E6572 PUSH1 0x40 DUP3 ADD MSTORE PUSH1 0x60 ADD SWAP1 JUMP JUMPDEST PUSH4 0x4E487B71 PUSH1 0xE0 SHL PUSH1 0x0 MSTORE PUSH1 0x11 PUSH1 0x4 MSTORE PUSH1 0x24 PUSH1 0x0 REVERT JUMPDEST PUSH1 0x0 DUP3 NOT DUP3 GT ISZERO PUSH2 0x354F JUMPI PUSH2 0x354F PUSH2 0x3526 JUMP JUMPDEST POP ADD SWAP1 JUMP JUMPDEST PUSH1 0x0 DUP3 DUP3 LT ISZERO PUSH2 0x3566 JUMPI PUSH2 0x3566 PUSH2 0x3526 JUMP JUMPDEST POP SUB SWAP1 JUMP JUMPDEST PUSH1 0x0 DUP2 PUSH1 0x0 NOT DIV DUP4 GT DUP3 ISZERO ISZERO AND ISZERO PUSH2 0x3585 JUMPI PUSH2 0x3585 PUSH2 0x3526 JUMP JUMPDEST POP MUL SWAP1 JUMP JUMPDEST PUSH4 0x4E487B71 PUSH1 0xE0 SHL PUSH1 0x0 MSTORE PUSH1 0x32 PUSH1 0x4 MSTORE PUSH1 0x24 PUSH1 0x0 REVERT JUMPDEST PUSH1 0x0 PUSH1 0x0 NOT DUP3 EQ ISZERO PUSH2 0x35B4 JUMPI PUSH2 0x35B4 PUSH2 0x3526 JUMP JUMPDEST POP PUSH1 0x1 ADD SWAP1 JUMP JUMPDEST PUSH1 0x20 DUP1 DUP3 MSTORE PUSH1 0x21 SWAP1 DUP3 ADD MSTORE PUSH32 0x4F6E6C7920636F6E7472616374206164647265737320697320616C6C6F776564 PUSH1 0x40 DUP3 ADD MSTORE PUSH1 0x21 PUSH1 0xF8 SHL PUSH1 0x60 DUP3 ADD MSTORE PUSH1 0x80 ADD SWAP1 JUMP JUMPDEST PUSH1 0x0 PUSH1 0x20 DUP3 DUP5 SUB SLT ISZERO PUSH2 0x360E JUMPI PUSH1 0x0 DUP1 REVERT JUMPDEST POP MLOAD SWAP2 SWAP1 POP JUMP JUMPDEST PUSH1 0x0 PUSH1 0x20 DUP3 DUP5 SUB SLT ISZERO PUSH2 0x3627 JUMPI PUSH1 0x0 DUP1 REVERT JUMPDEST DUP2 MLOAD PUSH2 0xF88 DUP2 PUSH2 0x325A JUMP JUMPDEST PUSH1 0x0 DUP2 MLOAD DUP1 DUP5 MSTORE PUSH1 0x20 DUP1 DUP6 ADD SWAP5 POP DUP1 DUP5 ADD PUSH1 0x0 JUMPDEST DUP4 DUP2 LT ISZERO PUSH2 0x366B JUMPI DUP2 MLOAD PUSH1 0x1 PUSH1 0x1 PUSH1 0xA0 SHL SUB AND DUP8 MSTORE SWAP6 DUP3 ADD SWAP6 SWAP1 DUP3 ADD SWAP1 PUSH1 0x1 ADD PUSH2 0x3646 JUMP JUMPDEST POP SWAP5 SWAP6 SWAP5 POP POP POP POP POP JUMP JUMPDEST DUP5 DUP2 MSTORE PUSH1 0x80 PUSH1 0x20 DUP3 ADD MSTORE PUSH1 0x0 PUSH2 0x368F PUSH1 0x80 DUP4 ADD DUP7 PUSH2 0x3632 JUMP JUMPDEST PUSH1 0x1 PUSH1 0x1 PUSH1 0xA0 SHL SUB SWAP5 SWAP1 SWAP5 AND PUSH1 0x40 DUP4 ADD MSTORE POP PUSH1 0x60 ADD MSTORE SWAP3 SWAP2 POP POP JUMP JUMPDEST PUSH1 0x20 DUP1 DUP3 MSTORE PUSH1 0x25 SWAP1 DUP3 ADD MSTORE PUSH32 0x45524332303A207472616E736665722066726F6D20746865207A65726F206164 PUSH1 0x40 DUP3 ADD MSTORE PUSH5 0x6472657373 PUSH1 0xD8 SHL PUSH1 0x60 DUP3 ADD MSTORE PUSH1 0x80 ADD SWAP1 JUMP JUMPDEST PUSH1 0x20 DUP1 DUP3 MSTORE PUSH1 0x23 SWAP1 DUP3 ADD MSTORE PUSH32 0x45524332303A207472616E7366657220746F20746865207A65726F2061646472 PUSH1 0x40 DUP3 ADD MSTORE PUSH3 0x657373 PUSH1 0xE8 SHL PUSH1 0x60 DUP3 ADD MSTORE PUSH1 0x80 ADD SWAP1 JUMP JUMPDEST PUSH1 0x0 DUP3 PUSH2 0x3750 JUMPI PUSH4 0x4E487B71 PUSH1 0xE0 SHL PUSH1 0x0 MSTORE PUSH1 0x12 PUSH1 0x4 MSTORE PUSH1 0x24 PUSH1 0x0 REVERT JUMPDEST POP DIV SWAP1 JUMP JUMPDEST PUSH1 0x0 PUSH1 0x20 DUP3 DUP5 SUB SLT ISZERO PUSH2 0x3767 JUMPI PUSH1 0x0 DUP1 REVERT JUMPDEST DUP2 MLOAD PUSH2 0xF88 DUP2 PUSH2 0x3424 JUMP JUMPDEST DUP6 DUP2 MSTORE DUP5 PUSH1 0x20 DUP3 ADD MSTORE PUSH1 0xA0 PUSH1 0x40 DUP3 ADD MSTORE PUSH1 0x0 PUSH2 0x3791 PUSH1 0xA0 DUP4 ADD DUP7 PUSH2 0x3632 JUMP JUMPDEST PUSH1 0x1 PUSH1 0x1 PUSH1 0xA0 SHL SUB SWAP5 SWAP1 SWAP5 AND PUSH1 0x60 DUP4 ADD MSTORE POP PUSH1 0x80 ADD MSTORE SWAP4 SWAP3 POP POP POP JUMP JUMPDEST PUSH1 0x0 DUP1 PUSH1 0x0 PUSH1 0x60 DUP5 DUP7 SUB SLT ISZERO PUSH2 0x37C3 JUMPI PUSH1 0x0 DUP1 REVERT JUMPDEST DUP4 MLOAD SWAP3 POP PUSH1 0x20 DUP5 ADD MLOAD SWAP2 POP PUSH1 0x40 DUP5 ADD MLOAD SWAP1 POP SWAP3 POP SWAP3 POP SWAP3 JUMP JUMPDEST PUSH1 0x0 DUP3 MLOAD PUSH2 0x37EE DUP2 DUP5 PUSH1 0x20 DUP8 ADD PUSH2 0x31FB JUMP JUMPDEST SWAP2 SWAP1 SWAP2 ADD SWAP3 SWAP2 POP POP JUMP INVALID LOG2 PUSH5 0x6970667358 0x22 SLT KECCAK256 TIMESTAMP PC PUSH21 0x664E25DABBCA692D207FB38A37E60B13A2FCEE3D47 CALLDATASIZE 0xA7 0xD6 SGT 0xE 0xD9 0xE5 0xA8 PUSH5 0x736F6C6343 STOP ADDMOD 0xC STOP CALLER 0x4F PUSH24 0x6E61626C653A2063616C6C6572206973206E6F7420746865 KECCAK256 PUSH16 0x776E6572000000000000000000000000 "
		},
		"gasEstimates": {
			"creation": {
				"codeDepositCost": "2876400",
				"executionCost": "infinite",
				"totalCost": "infinite"
			},
			"external": {
				"_decreasing()": "2445",
				"_isExcludedFromContractBuyingLimit(address)": "2613",
				"_isExcludedMaxTransactionAmount(address)": "2616",
				"allowance(address,address)": "infinite",
				"approve(address,uint256)": "24682",
				"automatedMarketMakerPairs(address)": "2636",
				"balanceOf(address)": "2668",
				"blackListAddress(address)": "26949",
				"blackListAddresses(address[])": "infinite",
				"blackListFee()": "2429",
				"buyBackTokens(uint256)": "infinite",
				"buyBackWallet()": "2450",
				"buyBuyBackFee()": "2385",
				"buyLiquidityFee()": "2384",
				"buyMarketingFee()": "2428",
				"buyTotalFees()": "2362",
				"clearStuckBNBBalance(address)": "infinite",
				"clearStuckTokenBalance(address,address)": "infinite",
				"deadAddress()": "372",
				"decimals()": "246",
				"decreaseAllowance(address,uint256)": "26972",
				"decreaseTax(uint256,uint256,uint256)": "115188",
				"disableContractAddressTrading(address)": "29527",
				"disableDecreasingTax()": "26593",
				"disableTrading()": "31643",
				"disableTransferDelay()": "26734",
				"enableContractAddressTrading(address)": "29534",
				"enableTrading()": "48726",
				"enableTransferDelay()": "26702",
				"excludeFromFees(address,bool)": "infinite",
				"excludeFromMaxTransaction(address,bool)": "infinite",
				"increaseAllowance(address,uint256)": "27019",
				"isExcludedFromFees(address)": "2655",
				"limitsInEffect()": "2400",
				"marketingWallet()": "2448",
				"maxTransactionAmount()": "2385",
				"maxWallet()": "2405",
				"name()": "infinite",
				"owner()": "2399",
				"renounceOwnership()": "28184",
				"sellBuyBackFee()": "2364",
				"sellLiquidityFee()": "2361",
				"sellMarketingFee()": "2385",
				"sellTotalFees()": "2385",
				"setAutomatedMarketMakerPair(address,bool)": "infinite",
				"setBlackListFee(uint256)": "24676",
				"setBuyBackWallet(address)": "30474",
				"setBuyFees(uint256,uint256,uint256)": "infinite",
				"setMarketingWallet(address)": "30430",
				"setMaxTransactionAmount(uint256)": "24693",
				"setMaxWalletAmount(uint256)": "24692",
				"setSellFees(uint256,uint256,uint256)": "infinite",
				"setSwapTokensAtAmount(uint256)": "24630",
				"swapEnabled()": "2433",
				"swapTokensAtAmount()": "2406",
				"symbol()": "infinite",
				"tokensForBuyBack()": "2409",
				"tokensForLiquidity()": "2386",
				"tokensForMarketing()": "2363",
				"totalSupply()": "2449",
				"tradingActive()": "2454",
				"tradingActiveBlock()": "2362",
				"transfer(address,uint256)": "infinite",
				"transferDelayEnabled()": "2378",
				"transferFrom(address,address,uint256)": "infinite",
				"transferOwnership(address)": "infinite",
				"unblackListAddress(address)": "26884",
				"unblackListAddresses(address[])": "infinite",
				"uniswapV2Pair()": "2405",
				"uniswapV2Router()": "infinite",
				"updateLimitsInEffect(bool)": "26873",
				"updateSwapEnabled(bool)": "26789"
			},
			"internal": {
				"_setAutomatedMarketMakerPair(address,bool)": "25872",
				"_transfer(address,address,uint256)": "infinite",
				"addLiquidity(uint256,uint256)": "infinite",
				"swapBack()": "infinite",
				"swapTokensForEth(uint256)": "infinite"
			}
		},
		"methodIdentifiers": {
			"_decreasing()": "45d377a4",
			"_isExcludedFromContractBuyingLimit(address)": "f77dbdc6",
			"_isExcludedMaxTransactionAmount(address)": "10d5de53",
			"allowance(address,address)": "dd62ed3e",
			"approve(address,uint256)": "095ea7b3",
			"automatedMarketMakerPairs(address)": "b62496f5",
			"balanceOf(address)": "70a08231",
			"blackListAddress(address)": "3b0e0133",
			"blackListAddresses(address[])": "52ba9921",
			"blackListFee()": "d4980312",
			"buyBackTokens(uint256)": "fc155d1d",
			"buyBackWallet()": "1cd348c0",
			"buyBuyBackFee()": "1fe70a98",
			"buyLiquidityFee()": "f11a24d3",
			"buyMarketingFee()": "7bce5a04",
			"buyTotalFees()": "d85ba063",
			"clearStuckBNBBalance(address)": "9485b9d8",
			"clearStuckTokenBalance(address,address)": "a67096e2",
			"deadAddress()": "27c8f835",
			"decimals()": "313ce567",
			"decreaseAllowance(address,uint256)": "a457c2d7",
			"decreaseTax(uint256,uint256,uint256)": "51c7cd5f",
			"disableContractAddressTrading(address)": "fe98afed",
			"disableDecreasingTax()": "87dbd21d",
			"disableTrading()": "17700f01",
			"disableTransferDelay()": "e884f260",
			"enableContractAddressTrading(address)": "800db58e",
			"enableTrading()": "8a8c523c",
			"enableTransferDelay()": "f22857a8",
			"excludeFromFees(address,bool)": "c0246668",
			"excludeFromMaxTransaction(address,bool)": "7571336a",
			"increaseAllowance(address,uint256)": "39509351",
			"isExcludedFromFees(address)": "4fbee193",
			"limitsInEffect()": "4a62bb65",
			"marketingWallet()": "75f0a874",
			"maxTransactionAmount()": "c8c8ebe4",
			"maxWallet()": "f8b45b05",
			"name()": "06fdde03",
			"owner()": "8da5cb5b",
			"renounceOwnership()": "715018a6",
			"sellBuyBackFee()": "1a221dbb",
			"sellLiquidityFee()": "f6374342",
			"sellMarketingFee()": "92136913",
			"sellTotalFees()": "6a486a8e",
			"setAutomatedMarketMakerPair(address,bool)": "9a7a23d6",
			"setBlackListFee(uint256)": "8b992b11",
			"setBuyBackWallet(address)": "a4640b82",
			"setBuyFees(uint256,uint256,uint256)": "0d075d9c",
			"setMarketingWallet(address)": "5d098b38",
			"setMaxTransactionAmount(uint256)": "1e293c10",
			"setMaxWalletAmount(uint256)": "27a14fc2",
			"setSellFees(uint256,uint256,uint256)": "0f683e90",
			"setSwapTokensAtAmount(uint256)": "afa4f3b2",
			"swapEnabled()": "6ddd1713",
			"swapTokensAtAmount()": "e2f45605",
			"symbol()": "95d89b41",
			"tokensForBuyBack()": "0b166d50",
			"tokensForLiquidity()": "1a8145bb",
			"tokensForMarketing()": "1f3fed8f",
			"totalSupply()": "18160ddd",
			"tradingActive()": "bbc0c742",
			"tradingActiveBlock()": "ee40166e",
			"transfer(address,uint256)": "a9059cbb",
			"transferDelayEnabled()": "c876d0b9",
			"transferFrom(address,address,uint256)": "23b872dd",
			"transferOwnership(address)": "f2fde38b",
			"unblackListAddress(address)": "857ebd4b",
			"unblackListAddresses(address[])": "d0499018",
			"uniswapV2Pair()": "49bd5a5e",
			"uniswapV2Router()": "1694505e",
			"updateLimitsInEffect(bool)": "e3f8da55",
			"updateSwapEnabled(bool)": "924de9b7"
		}
	},
	"abi": [
		{
			"inputs": [],
			"stateMutability": "nonpayable",
			"type": "constructor"
		},
		{
			"anonymous": false,
			"inputs": [
				{
					"indexed": true,
					"internalType": "address",
					"name": "owner",
					"type": "address"
				},
				{
					"indexed": true,
					"internalType": "address",
					"name": "spender",
					"type": "address"
				},
				{
					"indexed": false,
					"internalType": "uint256",
					"name": "value",
					"type": "uint256"
				}
			],
			"name": "Approval",
			"type": "event"
		},
		{
			"anonymous": false,
			"inputs": [
				{
					"indexed": true,
					"internalType": "address",
					"name": "sniper",
					"type": "address"
				}
			],
			"name": "BoughtEarly",
			"type": "event"
		},
		{
			"anonymous": false,
			"inputs": [
				{
					"indexed": false,
					"internalType": "uint256",
					"name": "amount",
					"type": "uint256"
				}
			],
			"name": "BuyBackTriggered",
			"type": "event"
		},
		{
			"anonymous": false,
			"inputs": [
				{
					"indexed": true,
					"internalType": "address",
					"name": "account",
					"type": "address"
				},
				{
					"indexed": false,
					"internalType": "bool",
					"name": "isExcluded",
					"type": "bool"
				}
			],
			"name": "ExcludeFromFees",
			"type": "event"
		},
		{
			"anonymous": false,
			"inputs": [
				{
					"indexed": true,
					"internalType": "address",
					"name": "previousOwner",
					"type": "address"
				},
				{
					"indexed": true,
					"internalType": "address",
					"name": "newOwner",
					"type": "address"
				}
			],
			"name": "OwnershipTransferred",
			"type": "event"
		},
		{
			"anonymous": false,
			"inputs": [
				{
					"indexed": true,
					"internalType": "address",
					"name": "pair",
					"type": "address"
				},
				{
					"indexed": true,
					"internalType": "bool",
					"name": "value",
					"type": "bool"
				}
			],
			"name": "SetAutomatedMarketMakerPair",
			"type": "event"
		},
		{
			"anonymous": false,
			"inputs": [
				{
					"indexed": false,
					"internalType": "uint256",
					"name": "tokensSwapped",
					"type": "uint256"
				},
				{
					"indexed": false,
					"internalType": "uint256",
					"name": "ethReceived",
					"type": "uint256"
				},
				{
					"indexed": false,
					"internalType": "uint256",
					"name": "tokensIntoLiquidity",
					"type": "uint256"
				}
			],
			"name": "SwapAndLiquify",
			"type": "event"
		},
		{
			"anonymous": false,
			"inputs": [
				{
					"indexed": true,
					"internalType": "address",
					"name": "from",
					"type": "address"
				},
				{
					"indexed": true,
					"internalType": "address",
					"name": "to",
					"type": "address"
				},
				{
					"indexed": false,
					"internalType": "uint256",
					"name": "value",
					"type": "uint256"
				}
			],
			"name": "Transfer",
			"type": "event"
		},
		{
			"anonymous": false,
			"inputs": [
				{
					"indexed": true,
					"internalType": "address",
					"name": "newAddress",
					"type": "address"
				},
				{
					"indexed": true,
					"internalType": "address",
					"name": "oldAddress",
					"type": "address"
				}
			],
			"name": "UpdateUniswapV2Router",
			"type": "event"
		},
		{
			"anonymous": false,
			"inputs": [
				{
					"indexed": true,
					"internalType": "address",
					"name": "newWallet",
					"type": "address"
				},
				{
					"indexed": true,
					"internalType": "address",
					"name": "oldWallet",
					"type": "address"
				}
			],
			"name": "buyBackWalletUpdated",
			"type": "event"
		},
		{
			"anonymous": false,
			"inputs": [
				{
					"indexed": true,
					"internalType": "address",
					"name": "newWallet",
					"type": "address"
				},
				{
					"indexed": true,
					"internalType": "address",
					"name": "oldWallet",
					"type": "address"
				}
			],
			"name": "marketingWalletUpdated",
			"type": "event"
		},
		{
			"inputs": [],
			"name": "_decreasing",
			"outputs": [
				{
					"internalType": "bool",
					"name": "",
					"type": "bool"
				}
			],
			"stateMutability": "view",
			"type": "function"
		},
		{
			"inputs": [
				{
					"internalType": "address",
					"name": "",
					"type": "address"
				}
			],
			"name": "_isExcludedFromContractBuyingLimit",
			"outputs": [
				{
					"internalType": "bool",
					"name": "",
					"type": "bool"
				}
			],
			"stateMutability": "view",
			"type": "function"
		},
		{
			"inputs": [
				{
					"internalType": "address",
					"name": "",
					"type": "address"
				}
			],
			"name": "_isExcludedMaxTransactionAmount",
			"outputs": [
				{
					"internalType": "bool",
					"name": "",
					"type": "bool"
				}
			],
			"stateMutability": "view",
			"type": "function"
		},
		{
			"inputs": [
				{
					"internalType": "address",
					"name": "owner",
					"type": "address"
				},
				{
					"internalType": "address",
					"name": "spender",
					"type": "address"
				}
			],
			"name": "allowance",
			"outputs": [
				{
					"internalType": "uint256",
					"name": "",
					"type": "uint256"
				}
			],
			"stateMutability": "view",
			"type": "function"
		},
		{
			"inputs": [
				{
					"internalType": "address",
					"name": "spender",
					"type": "address"
				},
				{
					"internalType": "uint256",
					"name": "amount",
					"type": "uint256"
				}
			],
			"name": "approve",
			"outputs": [
				{
					"internalType": "bool",
					"name": "",
					"type": "bool"
				}
			],
			"stateMutability": "nonpayable",
			"type": "function"
		},
		{
			"inputs": [
				{
					"internalType": "address",
					"name": "",
					"type": "address"
				}
			],
			"name": "automatedMarketMakerPairs",
			"outputs": [
				{
					"internalType": "bool",
					"name": "",
					"type": "bool"
				}
			],
			"stateMutability": "view",
			"type": "function"
		},
		{
			"inputs": [
				{
					"internalType": "address",
					"name": "account",
					"type": "address"
				}
			],
			"name": "balanceOf",
			"outputs": [
				{
					"internalType": "uint256",
					"name": "",
					"type": "uint256"
				}
			],
			"stateMutability": "view",
			"type": "function"
		},
		{
			"inputs": [
				{
					"internalType": "address",
					"name": "addr",
					"type": "address"
				}
			],
			"name": "blackListAddress",
			"outputs": [
				{
					"internalType": "bool",
					"name": "",
					"type": "bool"
				}
			],
			"stateMutability": "nonpayable",
			"type": "function"
		},
		{
			"inputs": [
				{
					"internalType": "address[]",
					"name": "addrs",
					"type": "address[]"
				}
			],
			"name": "blackListAddresses",
			"outputs": [
				{
					"internalType": "bool",
					"name": "",
					"type": "bool"
				}
			],
			"stateMutability": "nonpayable",
			"type": "function"
		},
		{
			"inputs": [],
			"name": "blackListFee",
			"outputs": [
				{
					"internalType": "uint256",
					"name": "",
					"type": "uint256"
				}
			],
			"stateMutability": "view",
			"type": "function"
		},
		{
			"inputs": [
				{
					"internalType": "uint256",
					"name": "bnbAmountInWei",
					"type": "uint256"
				}
			],
			"name": "buyBackTokens",
			"outputs": [],
			"stateMutability": "nonpayable",
			"type": "function"
		},
		{
			"inputs": [],
			"name": "buyBackWallet",
			"outputs": [
				{
					"internalType": "address",
					"name": "",
					"type": "address"
				}
			],
			"stateMutability": "view",
			"type": "function"
		},
		{
			"inputs": [],
			"name": "buyBuyBackFee",
			"outputs": [
				{
					"internalType": "uint256",
					"name": "",
					"type": "uint256"
				}
			],
			"stateMutability": "view",
			"type": "function"
		},
		{
			"inputs": [],
			"name": "buyLiquidityFee",
			"outputs": [
				{
					"internalType": "uint256",
					"name": "",
					"type": "uint256"
				}
			],
			"stateMutability": "view",
			"type": "function"
		},
		{
			"inputs": [],
			"name": "buyMarketingFee",
			"outputs": [
				{
					"internalType": "uint256",
					"name": "",
					"type": "uint256"
				}
			],
			"stateMutability": "view",
			"type": "function"
		},
		{
			"inputs": [],
			"name": "buyTotalFees",
			"outputs": [
				{
					"internalType": "uint256",
					"name": "",
					"type": "uint256"
				}
			],
			"stateMutability": "view",
			"type": "function"
		},
		{
			"inputs": [
				{
					"internalType": "address",
					"name": "addr",
					"type": "address"
				}
			],
			"name": "clearStuckBNBBalance",
			"outputs": [],
			"stateMutability": "nonpayable",
			"type": "function"
		},
		{
			"inputs": [
				{
					"internalType": "address",
					"name": "addr",
					"type": "address"
				},
				{
					"internalType": "address",
					"name": "tokenAddress",
					"type": "address"
				}
			],
			"name": "clearStuckTokenBalance",
			"outputs": [],
			"stateMutability": "nonpayable",
			"type": "function"
		},
		{
			"inputs": [],
			"name": "deadAddress",
			"outputs": [
				{
					"internalType": "address",
					"name": "",
					"type": "address"
				}
			],
			"stateMutability": "view",
			"type": "function"
		},
		{
			"inputs": [],
			"name": "decimals",
			"outputs": [
				{
					"internalType": "uint8",
					"name": "",
					"type": "uint8"
				}
			],
			"stateMutability": "view",
			"type": "function"
		},
		{
			"inputs": [
				{
					"internalType": "address",
					"name": "spender",
					"type": "address"
				},
				{
					"internalType": "uint256",
					"name": "subtractedValue",
					"type": "uint256"
				}
			],
			"name": "decreaseAllowance",
			"outputs": [
				{
					"internalType": "bool",
					"name": "",
					"type": "bool"
				}
			],
			"stateMutability": "nonpayable",
			"type": "function"
		},
		{
			"inputs": [
				{
					"internalType": "uint256",
					"name": "percent",
					"type": "uint256"
				},
				{
					"internalType": "uint256",
					"name": "perBlock",
					"type": "uint256"
				},
				{
					"internalType": "uint256",
					"name": "limit",
					"type": "uint256"
				}
			],
			"name": "decreaseTax",
			"outputs": [],
			"stateMutability": "nonpayable",
			"type": "function"
		},
		{
			"inputs": [
				{
					"internalType": "address",
					"name": "addr",
					"type": "address"
				}
			],
			"name": "disableContractAddressTrading",
			"outputs": [],
			"stateMutability": "nonpayable",
			"type": "function"
		},
		{
			"inputs": [],
			"name": "disableDecreasingTax",
			"outputs": [],
			"stateMutability": "nonpayable",
			"type": "function"
		},
		{
			"inputs": [],
			"name": "disableTrading",
			"outputs": [],
			"stateMutability": "nonpayable",
			"type": "function"
		},
		{
			"inputs": [],
			"name": "disableTransferDelay",
			"outputs": [
				{
					"internalType": "bool",
					"name": "",
					"type": "bool"
				}
			],
			"stateMutability": "nonpayable",
			"type": "function"
		},
		{
			"inputs": [
				{
					"internalType": "address",
					"name": "addr",
					"type": "address"
				}
			],
			"name": "enableContractAddressTrading",
			"outputs": [],
			"stateMutability": "nonpayable",
			"type": "function"
		},
		{
			"inputs": [],
			"name": "enableTrading",
			"outputs": [],
			"stateMutability": "nonpayable",
			"type": "function"
		},
		{
			"inputs": [],
			"name": "enableTransferDelay",
			"outputs": [
				{
					"internalType": "bool",
					"name": "",
					"type": "bool"
				}
			],
			"stateMutability": "nonpayable",
			"type": "function"
		},
		{
			"inputs": [
				{
					"internalType": "address",
					"name": "account",
					"type": "address"
				},
				{
					"internalType": "bool",
					"name": "excluded",
					"type": "bool"
				}
			],
			"name": "excludeFromFees",
			"outputs": [],
			"stateMutability": "nonpayable",
			"type": "function"
		},
		{
			"inputs": [
				{
					"internalType": "address",
					"name": "updAds",
					"type": "address"
				},
				{
					"internalType": "bool",
					"name": "isEx",
					"type": "bool"
				}
			],
			"name": "excludeFromMaxTransaction",
			"outputs": [],
			"stateMutability": "nonpayable",
			"type": "function"
		},
		{
			"inputs": [
				{
					"internalType": "address",
					"name": "spender",
					"type": "address"
				},
				{
					"internalType": "uint256",
					"name": "addedValue",
					"type": "uint256"
				}
			],
			"name": "increaseAllowance",
			"outputs": [
				{
					"internalType": "bool",
					"name": "",
					"type": "bool"
				}
			],
			"stateMutability": "nonpayable",
			"type": "function"
		},
		{
			"inputs": [
				{
					"internalType": "address",
					"name": "account",
					"type": "address"
				}
			],
			"name": "isExcludedFromFees",
			"outputs": [
				{
					"internalType": "bool",
					"name": "",
					"type": "bool"
				}
			],
			"stateMutability": "view",
			"type": "function"
		},
		{
			"inputs": [],
			"name": "limitsInEffect",
			"outputs": [
				{
					"internalType": "bool",
					"name": "",
					"type": "bool"
				}
			],
			"stateMutability": "view",
			"type": "function"
		},
		{
			"inputs": [],
			"name": "marketingWallet",
			"outputs": [
				{
					"internalType": "address",
					"name": "",
					"type": "address"
				}
			],
			"stateMutability": "view",
			"type": "function"
		},
		{
			"inputs": [],
			"name": "maxTransactionAmount",
			"outputs": [
				{
					"internalType": "uint256",
					"name": "",
					"type": "uint256"
				}
			],
			"stateMutability": "view",
			"type": "function"
		},
		{
			"inputs": [],
			"name": "maxWallet",
			"outputs": [
				{
					"internalType": "uint256",
					"name": "",
					"type": "uint256"
				}
			],
			"stateMutability": "view",
			"type": "function"
		},
		{
			"inputs": [],
			"name": "name",
			"outputs": [
				{
					"internalType": "string",
					"name": "",
					"type": "string"
				}
			],
			"stateMutability": "view",
			"type": "function"
		},
		{
			"inputs": [],
			"name": "owner",
			"outputs": [
				{
					"internalType": "address",
					"name": "",
					"type": "address"
				}
			],
			"stateMutability": "view",
			"type": "function"
		},
		{
			"inputs": [],
			"name": "renounceOwnership",
			"outputs": [],
			"stateMutability": "nonpayable",
			"type": "function"
		},
		{
			"inputs": [],
			"name": "sellBuyBackFee",
			"outputs": [
				{
					"internalType": "uint256",
					"name": "",
					"type": "uint256"
				}
			],
			"stateMutability": "view",
			"type": "function"
		},
		{
			"inputs": [],
			"name": "sellLiquidityFee",
			"outputs": [
				{
					"internalType": "uint256",
					"name": "",
					"type": "uint256"
				}
			],
			"stateMutability": "view",
			"type": "function"
		},
		{
			"inputs": [],
			"name": "sellMarketingFee",
			"outputs": [
				{
					"internalType": "uint256",
					"name": "",
					"type": "uint256"
				}
			],
			"stateMutability": "view",
			"type": "function"
		},
		{
			"inputs": [],
			"name": "sellTotalFees",
			"outputs": [
				{
					"internalType": "uint256",
					"name": "",
					"type": "uint256"
				}
			],
			"stateMutability": "view",
			"type": "function"
		},
		{
			"inputs": [
				{
					"internalType": "address",
					"name": "pair",
					"type": "address"
				},
				{
					"internalType": "bool",
					"name": "value",
					"type": "bool"
				}
			],
			"name": "setAutomatedMarketMakerPair",
			"outputs": [],
			"stateMutability": "nonpayable",
			"type": "function"
		},
		{
			"inputs": [
				{
					"internalType": "uint256",
					"name": "_fee",
					"type": "uint256"
				}
			],
			"name": "setBlackListFee",
			"outputs": [
				{
					"internalType": "bool",
					"name": "",
					"type": "bool"
				}
			],
			"stateMutability": "nonpayable",
			"type": "function"
		},
		{
			"inputs": [
				{
					"internalType": "address",
					"name": "newWallet",
					"type": "address"
				}
			],
			"name": "setBuyBackWallet",
			"outputs": [],
			"stateMutability": "nonpayable",
			"type": "function"
		},
		{
			"inputs": [
				{
					"internalType": "uint256",
					"name": "_marketingFee",
					"type": "uint256"
				},
				{
					"internalType": "uint256",
					"name": "_liquidityFee",
					"type": "uint256"
				},
				{
					"internalType": "uint256",
					"name": "_buyBackFee",
					"type": "uint256"
				}
			],
			"name": "setBuyFees",
			"outputs": [],
			"stateMutability": "nonpayable",
			"type": "function"
		},
		{
			"inputs": [
				{
					"internalType": "address",
					"name": "newMarketingWallet",
					"type": "address"
				}
			],
			"name": "setMarketingWallet",
			"outputs": [],
			"stateMutability": "nonpayable",
			"type": "function"
		},
		{
			"inputs": [
				{
					"internalType": "uint256",
					"name": "newNum",
					"type": "uint256"
				}
			],
			"name": "setMaxTransactionAmount",
			"outputs": [],
			"stateMutability": "nonpayable",
			"type": "function"
		},
		{
			"inputs": [
				{
					"internalType": "uint256",
					"name": "newNum",
					"type": "uint256"
				}
			],
			"name": "setMaxWalletAmount",
			"outputs": [],
			"stateMutability": "nonpayable",
			"type": "function"
		},
		{
			"inputs": [
				{
					"internalType": "uint256",
					"name": "_marketingFee",
					"type": "uint256"
				},
				{
					"internalType": "uint256",
					"name": "_liquidityFee",
					"type": "uint256"
				},
				{
					"internalType": "uint256",
					"name": "_buyBackFee",
					"type": "uint256"
				}
			],
			"name": "setSellFees",
			"outputs": [],
			"stateMutability": "nonpayable",
			"type": "function"
		},
		{
			"inputs": [
				{
					"internalType": "uint256",
					"name": "newAmount",
					"type": "uint256"
				}
			],
			"name": "setSwapTokensAtAmount",
			"outputs": [
				{
					"internalType": "bool",
					"name": "",
					"type": "bool"
				}
			],
			"stateMutability": "nonpayable",
			"type": "function"
		},
		{
			"inputs": [],
			"name": "swapEnabled",
			"outputs": [
				{
					"internalType": "bool",
					"name": "",
					"type": "bool"
				}
			],
			"stateMutability": "view",
			"type": "function"
		},
		{
			"inputs": [],
			"name": "swapTokensAtAmount",
			"outputs": [
				{
					"internalType": "uint256",
					"name": "",
					"type": "uint256"
				}
			],
			"stateMutability": "view",
			"type": "function"
		},
		{
			"inputs": [],
			"name": "symbol",
			"outputs": [
				{
					"internalType": "string",
					"name": "",
					"type": "string"
				}
			],
			"stateMutability": "view",
			"type": "function"
		},
		{
			"inputs": [],
			"name": "tokensForBuyBack",
			"outputs": [
				{
					"internalType": "uint256",
					"name": "",
					"type": "uint256"
				}
			],
			"stateMutability": "view",
			"type": "function"
		},
		{
			"inputs": [],
			"name": "tokensForLiquidity",
			"outputs": [
				{
					"internalType": "uint256",
					"name": "",
					"type": "uint256"
				}
			],
			"stateMutability": "view",
			"type": "function"
		},
		{
			"inputs": [],
			"name": "tokensForMarketing",
			"outputs": [
				{
					"internalType": "uint256",
					"name": "",
					"type": "uint256"
				}
			],
			"stateMutability": "view",
			"type": "function"
		},
		{
			"inputs": [],
			"name": "totalSupply",
			"outputs": [
				{
					"internalType": "uint256",
					"name": "",
					"type": "uint256"
				}
			],
			"stateMutability": "view",
			"type": "function"
		},
		{
			"inputs": [],
			"name": "tradingActive",
			"outputs": [
				{
					"internalType": "bool",
					"name": "",
					"type": "bool"
				}
			],
			"stateMutability": "view",
			"type": "function"
		},
		{
			"inputs": [],
			"name": "tradingActiveBlock",
			"outputs": [
				{
					"internalType": "uint256",
					"name": "",
					"type": "uint256"
				}
			],
			"stateMutability": "view",
			"type": "function"
		},
		{
			"inputs": [
				{
					"internalType": "address",
					"name": "recipient",
					"type": "address"
				},
				{
					"internalType": "uint256",
					"name": "amount",
					"type": "uint256"
				}
			],
			"name": "transfer",
			"outputs": [
				{
					"internalType": "bool",
					"name": "",
					"type": "bool"
				}
			],
			"stateMutability": "nonpayable",
			"type": "function"
		},
		{
			"inputs": [],
			"name": "transferDelayEnabled",
			"outputs": [
				{
					"internalType": "bool",
					"name": "",
					"type": "bool"
				}
			],
			"stateMutability": "view",
			"type": "function"
		},
		{
			"inputs": [
				{
					"internalType": "address",
					"name": "sender",
					"type": "address"
				},
				{
					"internalType": "address",
					"name": "recipient",
					"type": "address"
				},
				{
					"internalType": "uint256",
					"name": "amount",
					"type": "uint256"
				}
			],
			"name": "transferFrom",
			"outputs": [
				{
					"internalType": "bool",
					"name": "",
					"type": "bool"
				}
			],
			"stateMutability": "nonpayable",
			"type": "function"
		},
		{
			"inputs": [
				{
					"internalType": "address",
					"name": "newOwner",
					"type": "address"
				}
			],
			"name": "transferOwnership",
			"outputs": [],
			"stateMutability": "nonpayable",
			"type": "function"
		},
		{
			"inputs": [
				{
					"internalType": "address",
					"name": "addr",
					"type": "address"
				}
			],
			"name": "unblackListAddress",
			"outputs": [
				{
					"internalType": "bool",
					"name": "",
					"type": "bool"
				}
			],
			"stateMutability": "nonpayable",
			"type": "function"
		},
		{
			"inputs": [
				{
					"internalType": "address[]",
					"name": "addrs",
					"type": "address[]"
				}
			],
			"name": "unblackListAddresses",
			"outputs": [
				{
					"internalType": "bool",
					"name": "",
					"type": "bool"
				}
			],
			"stateMutability": "nonpayable",
			"type": "function"
		},
		{
			"inputs": [],
			"name": "uniswapV2Pair",
			"outputs": [
				{
					"internalType": "address",
					"name": "",
					"type": "address"
				}
			],
			"stateMutability": "view",
			"type": "function"
		},
		{
			"inputs": [],
			"name": "uniswapV2Router",
			"outputs": [
				{
					"internalType": "contract IUniswapV2Router02",
					"name": "",
					"type": "address"
				}
			],
			"stateMutability": "view",
			"type": "function"
		},
		{
			"inputs": [
				{
					"internalType": "bool",
					"name": "limitEffect",
					"type": "bool"
				}
			],
			"name": "updateLimitsInEffect",
			"outputs": [
				{
					"internalType": "bool",
					"name": "",
					"type": "bool"
				}
			],
			"stateMutability": "nonpayable",
			"type": "function"
		},
		{
			"inputs": [
				{
					"internalType": "bool",
					"name": "enabled",
					"type": "bool"
				}
			],
			"name": "updateSwapEnabled",
			"outputs": [],
			"stateMutability": "nonpayable",
			"type": "function"
		},
		{
			"stateMutability": "payable",
			"type": "receive"
		}
	]
}